{
  "contractName": "MedicalChain",
  "abi": [
    {
      "inputs": [],
      "stateMutability": "nonpayable",
      "type": "constructor"
    },
    {
      "anonymous": false,
      "inputs": [
        {
          "indexed": false,
          "internalType": "address",
          "name": "admin",
          "type": "address"
        },
        {
          "indexed": false,
          "internalType": "address",
          "name": "doctor",
          "type": "address"
        }
      ],
      "name": "DrDetailsAdded",
      "type": "event"
    },
    {
      "anonymous": false,
      "inputs": [
        {
          "indexed": false,
          "internalType": "address",
          "name": "dr",
          "type": "address"
        },
        {
          "indexed": false,
          "internalType": "address",
          "name": "patient",
          "type": "address"
        }
      ],
      "name": "GrantAccessToDr",
      "type": "event"
    },
    {
      "anonymous": false,
      "inputs": [
        {
          "indexed": false,
          "internalType": "address",
          "name": "dr",
          "type": "address"
        },
        {
          "indexed": false,
          "internalType": "address",
          "name": "patient",
          "type": "address"
        }
      ],
      "name": "HealthRecordsAdded",
      "type": "event"
    },
    {
      "anonymous": false,
      "inputs": [
        {
          "indexed": false,
          "internalType": "address",
          "name": "doctor",
          "type": "address"
        },
        {
          "indexed": false,
          "internalType": "address",
          "name": "patient",
          "type": "address"
        }
      ],
      "name": "PatDetailsAdded",
      "type": "event"
    },
    {
      "anonymous": false,
      "inputs": [
        {
          "indexed": false,
          "internalType": "address",
          "name": "dr",
          "type": "address"
        },
        {
          "indexed": false,
          "internalType": "address",
          "name": "patient",
          "type": "address"
        }
      ],
      "name": "RevokeAccessToDr",
      "type": "event"
    },
    {
      "inputs": [],
      "name": "owner",
      "outputs": [
        {
          "internalType": "address",
          "name": "",
          "type": "address"
        }
      ],
      "stateMutability": "view",
      "type": "function",
      "constant": true
    },
    {
      "inputs": [
        {
          "internalType": "bool",
          "name": "_state",
          "type": "bool"
        },
        {
          "internalType": "address",
          "name": "_drId",
          "type": "address"
        },
        {
          "internalType": "string",
          "name": "_name",
          "type": "string"
        },
        {
          "internalType": "string",
          "name": "_speciality",
          "type": "string"
        }
      ],
      "name": "setDoctorDetails",
      "outputs": [],
      "stateMutability": "payable",
      "type": "function",
      "payable": true
    },
    {
      "inputs": [
        {
          "internalType": "address",
          "name": "_Id",
          "type": "address"
        }
      ],
      "name": "getDoctorDetails",
      "outputs": [
        {
          "internalType": "bool",
          "name": "_state",
          "type": "bool"
        },
        {
          "internalType": "address",
          "name": "_drId",
          "type": "address"
        },
        {
          "internalType": "string",
          "name": "_name",
          "type": "string"
        },
        {
          "internalType": "string",
          "name": "_speciality",
          "type": "string"
        }
      ],
      "stateMutability": "view",
      "type": "function",
      "constant": true
    },
    {
      "inputs": [
        {
          "internalType": "address",
          "name": "sender",
          "type": "address"
        },
        {
          "internalType": "address",
          "name": "_paId",
          "type": "address"
        },
        {
          "internalType": "string",
          "name": "_prescription",
          "type": "string"
        }
      ],
      "name": "setHealthRecordsDetails",
      "outputs": [],
      "stateMutability": "nonpayable",
      "type": "function"
    },
    {
      "inputs": [
        {
          "internalType": "bool",
          "name": "_state",
          "type": "bool"
        },
        {
          "internalType": "address",
          "name": "_paId",
          "type": "address"
        },
        {
          "internalType": "string",
          "name": "_paName",
          "type": "string"
        },
        {
          "internalType": "uint32",
          "name": "_paAge",
          "type": "uint32"
        },
        {
          "internalType": "string",
          "name": "_paBloodGroup",
          "type": "string"
        },
        {
          "internalType": "address",
          "name": "_hospital",
          "type": "address"
        },
        {
          "internalType": "string[]",
          "name": "_paRecords",
          "type": "string[]"
        }
      ],
      "name": "setPatientDetails",
      "outputs": [],
      "stateMutability": "payable",
      "type": "function",
      "payable": true
    },
    {
      "inputs": [
        {
          "internalType": "address",
          "name": "account",
          "type": "address"
        }
      ],
      "name": "toString",
      "outputs": [
        {
          "internalType": "string",
          "name": "",
          "type": "string"
        }
      ],
      "stateMutability": "pure",
      "type": "function",
      "constant": true
    },
    {
      "inputs": [
        {
          "internalType": "bytes",
          "name": "data",
          "type": "bytes"
        }
      ],
      "name": "toString1",
      "outputs": [
        {
          "internalType": "string",
          "name": "",
          "type": "string"
        }
      ],
      "stateMutability": "pure",
      "type": "function",
      "constant": true
    },
    {
      "inputs": [
        {
          "internalType": "address",
          "name": "sender",
          "type": "address"
        },
        {
          "internalType": "address",
          "name": "_Id",
          "type": "address"
        }
      ],
      "name": "getPatientDetails",
      "outputs": [
        {
          "internalType": "bool",
          "name": "_state",
          "type": "bool"
        },
        {
          "internalType": "address",
          "name": "_paId",
          "type": "address"
        },
        {
          "internalType": "string",
          "name": "_paName",
          "type": "string"
        },
        {
          "internalType": "uint32",
          "name": "_paAge",
          "type": "uint32"
        },
        {
          "internalType": "string",
          "name": "_paBloodGroup",
          "type": "string"
        },
        {
          "internalType": "address",
          "name": "_hospital",
          "type": "address"
        },
        {
          "internalType": "string[]",
          "name": "_paRecords",
          "type": "string[]"
        }
      ],
      "stateMutability": "view",
      "type": "function",
      "constant": true
    },
    {
      "inputs": [
        {
          "internalType": "address",
          "name": "sender",
          "type": "address"
        },
        {
          "internalType": "address",
          "name": "_dr",
          "type": "address"
        }
      ],
      "name": "getHealthRecords",
      "outputs": [
        {
          "internalType": "string",
          "name": "_drName",
          "type": "string"
        },
        {
          "internalType": "address",
          "name": "_drId",
          "type": "address"
        },
        {
          "internalType": "string",
          "name": "_paName",
          "type": "string"
        },
        {
          "internalType": "address",
          "name": "_paId",
          "type": "address"
        },
        {
          "internalType": "string",
          "name": "_prescription",
          "type": "string"
        },
        {
          "internalType": "string[]",
          "name": "_rec",
          "type": "string[]"
        }
      ],
      "stateMutability": "view",
      "type": "function",
      "constant": true
    },
    {
      "inputs": [
        {
          "internalType": "address",
          "name": "sender",
          "type": "address"
        },
        {
          "internalType": "address",
          "name": "doctor_id",
          "type": "address"
        },
        {
          "internalType": "uint256",
          "name": "access",
          "type": "uint256"
        }
      ],
      "name": "grantAccessToDoctor",
      "outputs": [],
      "stateMutability": "nonpayable",
      "type": "function"
    },
    {
      "inputs": [
        {
          "internalType": "address",
          "name": "sender",
          "type": "address"
        },
        {
          "internalType": "address",
          "name": "doctor_id",
          "type": "address"
        }
      ],
      "name": "revokeAccessFromDoctor",
      "outputs": [],
      "stateMutability": "nonpayable",
      "type": "function"
    },
    {
      "inputs": [
        {
          "internalType": "address",
          "name": "_paId",
          "type": "address"
        }
      ],
      "name": "getHealthRecordsForDoctor",
      "outputs": [
        {
          "internalType": "string",
          "name": "_drName",
          "type": "string"
        },
        {
          "internalType": "address",
          "name": "_drId",
          "type": "address"
        },
        {
          "internalType": "string",
          "name": "_paName",
          "type": "string"
        },
        {
          "internalType": "address",
          "name": "_pId",
          "type": "address"
        },
        {
          "internalType": "string",
          "name": "_prescription",
          "type": "string"
        },
        {
          "internalType": "string[]",
          "name": "_rec",
          "type": "string[]"
        }
      ],
      "stateMutability": "view",
      "type": "function",
      "constant": true
    }
  ],
  "bytecode": "0x608060405266038d7ea4c6800060055534801561001b57600080fd5b5033600460006101000a81548173ffffffffffffffffffffffffffffffffffffffff021916908373ffffffffffffffffffffffffffffffffffffffff1602179055506145698061006c6000396000f3fe6080604052600436106100a65760003560e01c8063579e74ca11610064578063579e74ca146101ef5780637284cd0b146102185780638da5cb5b14610234578063bab90dbd1461025f578063c668473f1461029f578063f83009ba146102c8576100a6565b806211802a146100ab5780630e9a705a146100e857806314f8abba1461012b57806316c168be1461015457806356009c6b1461017057806356ca623e146101b2575b600080fd5b3480156100b757600080fd5b506100d260048036038101906100cd9190613214565b61030a565b6040516100df91906132e5565b60405180910390f35b3480156100f457600080fd5b5061010f600480360381019061010a9190613365565b610604565b60405161012297969594939291906134fa565b60405180910390f35b34801561013757600080fd5b50610152600480360381019061014d9190613365565b610b59565b005b61016e6004803603810190610169919061375d565b610d6d565b005b34801561017c57600080fd5b5061019760048036038101906101929190613365565b6110e6565b6040516101a996959493929190613853565b60405180910390f35b3480156101be57600080fd5b506101d960048036038101906101d491906138d0565b611755565b6040516101e691906132e5565b60405180910390f35b3480156101fb57600080fd5b5061021660048036038101906102119190613933565b611786565b005b610232600480360381019061022d9190613986565b6118db565b005b34801561024057600080fd5b50610249611b91565b6040516102569190613a25565b60405180910390f35b34801561026b57600080fd5b50610286600480360381019061028191906138d0565b611bb7565b6040516102969493929190613a40565b60405180910390f35b3480156102ab57600080fd5b506102c660048036038101906102c19190613a93565b611ea1565b005b3480156102d457600080fd5b506102ef60048036038101906102ea91906138d0565b6128b6565b60405161030196959493929190613853565b60405180910390f35b606060006040518060400160405280601081526020017f303132333435363738396162636465660000000000000000000000000000000081525090506000600284516103569190613b31565b60026103629190613b8b565b67ffffffffffffffff81111561037b5761037a6130e9565b5b6040519080825280601f01601f1916602001820160405280156103ad5781602001600182028036833780820191505090505b5090507f3000000000000000000000000000000000000000000000000000000000000000816000815181106103e5576103e4613be1565b5b60200101907effffffffffffffffffffffffffffffffffffffffffffffffffffffffffffff1916908160001a9053507f78000000000000000000000000000000000000000000000000000000000000008160018151811061044957610448613be1565b5b60200101907effffffffffffffffffffffffffffffffffffffffffffffffffffffffffffff1916908160001a90535060005b84518110156105f95782600486838151811061049a57610499613be1565b5b602001015160f81c60f81b7effffffffffffffffffffffffffffffffffffffffffffffffffffffffffffff1916901c60f81c60ff16815181106104e0576104df613be1565b5b602001015160f81c60f81b826002836104f99190613b31565b60026105059190613b8b565b8151811061051657610515613be1565b5b60200101907effffffffffffffffffffffffffffffffffffffffffffffffffffffffffffff1916908160001a90535082600f60f81b86838151811061055e5761055d613be1565b5b602001015160f81c60f81b1660f81c60ff168151811061058157610580613be1565b5b602001015160f81c60f81b8260028361059a9190613b31565b60036105a69190613b8b565b815181106105b7576105b6613be1565b5b60200101907effffffffffffffffffffffffffffffffffffffffffffffffffffffffffffff1916908160001a90535080806105f190613c10565b91505061047b565b508092505050919050565b6000806060600060606000606060011515600160008b73ffffffffffffffffffffffffffffffffffffffff1673ffffffffffffffffffffffffffffffffffffffff16815260200190815260200160002060000160009054906101000a900460ff16151514806106ef57506001600360008a73ffffffffffffffffffffffffffffffffffffffff1673ffffffffffffffffffffffffffffffffffffffff16815260200190815260200160002060008b73ffffffffffffffffffffffffffffffffffffffff1673ffffffffffffffffffffffffffffffffffffffff16815260200190815260200160002054145b61072e576040517f08c379a000000000000000000000000000000000000000000000000000000000815260040161072590613ca4565b60405180910390fd5b600160008973ffffffffffffffffffffffffffffffffffffffff1673ffffffffffffffffffffffffffffffffffffffff16815260200190815260200160002060000160009054906101000a900460ff169650600160008973ffffffffffffffffffffffffffffffffffffffff1673ffffffffffffffffffffffffffffffffffffffff16815260200190815260200160002060000160019054906101000a900473ffffffffffffffffffffffffffffffffffffffff169550600160008973ffffffffffffffffffffffffffffffffffffffff1673ffffffffffffffffffffffffffffffffffffffff168152602001908152602001600020600101805461083290613cf3565b80601f016020809104026020016040519081016040528092919081815260200182805461085e90613cf3565b80156108ab5780601f10610880576101008083540402835291602001916108ab565b820191906000526020600020905b81548152906001019060200180831161088e57829003601f168201915b50505050509450600160008973ffffffffffffffffffffffffffffffffffffffff1673ffffffffffffffffffffffffffffffffffffffff16815260200190815260200160002060020160009054906101000a900463ffffffff169350600160008973ffffffffffffffffffffffffffffffffffffffff1673ffffffffffffffffffffffffffffffffffffffff168152602001908152602001600020600301805461095490613cf3565b80601f016020809104026020016040519081016040528092919081815260200182805461098090613cf3565b80156109cd5780601f106109a2576101008083540402835291602001916109cd565b820191906000526020600020905b8154815290600101906020018083116109b057829003601f168201915b50505050509250600160008973ffffffffffffffffffffffffffffffffffffffff1673ffffffffffffffffffffffffffffffffffffffff16815260200190815260200160002060040160009054906101000a900473ffffffffffffffffffffffffffffffffffffffff169150600160008973ffffffffffffffffffffffffffffffffffffffff1673ffffffffffffffffffffffffffffffffffffffff168152602001908152602001600020600501805480602002602001604051908101604052809291908181526020016000905b82821015610b47578382906000526020600020018054610aba90613cf3565b80601f0160208091040260200160405190810160405280929190818152602001828054610ae690613cf3565b8015610b335780601f10610b0857610100808354040283529160200191610b33565b820191906000526020600020905b815481529060010190602001808311610b1657829003601f168201915b505050505081526020019060010190610a9b565b50505050905092959891949750929550565b60011515600160008473ffffffffffffffffffffffffffffffffffffffff1673ffffffffffffffffffffffffffffffffffffffff16815260200190815260200160002060000160009054906101000a900460ff16151514610bef576040517f08c379a0000000000000000000000000000000000000000000000000000000008152600401610be690613d70565b60405180910390fd5b6000600360008473ffffffffffffffffffffffffffffffffffffffff1673ffffffffffffffffffffffffffffffffffffffff16815260200190815260200160002060008373ffffffffffffffffffffffffffffffffffffffff1673ffffffffffffffffffffffffffffffffffffffff1681526020019081526020016000205411610cae576040517f08c379a0000000000000000000000000000000000000000000000000000000008152600401610ca590613e02565b60405180910390fd5b6000600360008473ffffffffffffffffffffffffffffffffffffffff1673ffffffffffffffffffffffffffffffffffffffff16815260200190815260200160002060008373ffffffffffffffffffffffffffffffffffffffff1673ffffffffffffffffffffffffffffffffffffffff168152602001908152602001600020819055507fee024b242cc6bc903f74ff40909078ef86263bdc26de1c8b9c3ef56d2cfe2d6f8183604051610d61929190613e22565b60405180910390a15050565b600115156000803373ffffffffffffffffffffffffffffffffffffffff1673ffffffffffffffffffffffffffffffffffffffff16815260200190815260200160002060000160009054906101000a900460ff16151514610e02576040517f08c379a0000000000000000000000000000000000000000000000000000000008152600401610df990613e97565b60405180910390fd5b600554341015610e47576040517f08c379a0000000000000000000000000000000000000000000000000000000008152600401610e3e90613f03565b60405180910390fd5b60001515600160008873ffffffffffffffffffffffffffffffffffffffff1673ffffffffffffffffffffffffffffffffffffffff16815260200190815260200160002060000160009054906101000a900460ff16151514610edd576040517f08c379a0000000000000000000000000000000000000000000000000000000008152600401610ed490613f6f565b60405180910390fd5b6040518060e0016040528088151581526020018773ffffffffffffffffffffffffffffffffffffffff1681526020018681526020018563ffffffff1681526020018481526020018373ffffffffffffffffffffffffffffffffffffffff16815260200182815250600160008873ffffffffffffffffffffffffffffffffffffffff1673ffffffffffffffffffffffffffffffffffffffff16815260200190815260200160002060008201518160000160006101000a81548160ff02191690831515021790555060208201518160000160016101000a81548173ffffffffffffffffffffffffffffffffffffffff021916908373ffffffffffffffffffffffffffffffffffffffff1602179055506040820151816001019081610fff919061413b565b5060608201518160020160006101000a81548163ffffffff021916908363ffffffff160217905550608082015181600301908161103c919061413b565b5060a08201518160040160006101000a81548173ffffffffffffffffffffffffffffffffffffffff021916908373ffffffffffffffffffffffffffffffffffffffff16021790555060c08201518160050190805190602001906110a0929190612fe0565b509050507ff426af7bbaad7fa53d53cc9eed882319a2e3c04913923e0a7283d6747cc2949b33876040516110d5929190613e22565b60405180910390a150505050505050565b60606000606060006060808760011515600160008373ffffffffffffffffffffffffffffffffffffffff1673ffffffffffffffffffffffffffffffffffffffff16815260200190815260200160002060000160009054906101000a900460ff16151514611188576040517f08c379a000000000000000000000000000000000000000000000000000000000815260040161117f90614259565b60405180910390fd5b600260008973ffffffffffffffffffffffffffffffffffffffff1673ffffffffffffffffffffffffffffffffffffffff16815260200190815260200160002060008a73ffffffffffffffffffffffffffffffffffffffff1673ffffffffffffffffffffffffffffffffffffffff168152602001908152602001600020600001600101805461121590613cf3565b80601f016020809104026020016040519081016040528092919081815260200182805461124190613cf3565b801561128e5780601f106112635761010080835404028352916020019161128e565b820191906000526020600020905b81548152906001019060200180831161127157829003601f168201915b50505050509650600260008973ffffffffffffffffffffffffffffffffffffffff1673ffffffffffffffffffffffffffffffffffffffff16815260200190815260200160002060008a73ffffffffffffffffffffffffffffffffffffffff1673ffffffffffffffffffffffffffffffffffffffff16815260200190815260200160002060000160000160019054906101000a900473ffffffffffffffffffffffffffffffffffffffff169550600260008973ffffffffffffffffffffffffffffffffffffffff1673ffffffffffffffffffffffffffffffffffffffff16815260200190815260200160002060008a73ffffffffffffffffffffffffffffffffffffffff1673ffffffffffffffffffffffffffffffffffffffff16815260200190815260200160002060030160010180546113c790613cf3565b80601f01602080910402602001604051908101604052809291908181526020018280546113f390613cf3565b80156114405780601f1061141557610100808354040283529160200191611440565b820191906000526020600020905b81548152906001019060200180831161142357829003601f168201915b50505050509450600260008973ffffffffffffffffffffffffffffffffffffffff1673ffffffffffffffffffffffffffffffffffffffff16815260200190815260200160002060008a73ffffffffffffffffffffffffffffffffffffffff1673ffffffffffffffffffffffffffffffffffffffff16815260200190815260200160002060030160000160019054906101000a900473ffffffffffffffffffffffffffffffffffffffff169350600260008973ffffffffffffffffffffffffffffffffffffffff1673ffffffffffffffffffffffffffffffffffffffff16815260200190815260200160002060008a73ffffffffffffffffffffffffffffffffffffffff1673ffffffffffffffffffffffffffffffffffffffff168152602001908152602001600020600901600001805461157990613cf3565b80601f01602080910402602001604051908101604052809291908181526020018280546115a590613cf3565b80156115f25780601f106115c7576101008083540402835291602001916115f2565b820191906000526020600020905b8154815290600101906020018083116115d557829003601f168201915b50505050509250600260008973ffffffffffffffffffffffffffffffffffffffff1673ffffffffffffffffffffffffffffffffffffffff16815260200190815260200160002060008a73ffffffffffffffffffffffffffffffffffffffff1673ffffffffffffffffffffffffffffffffffffffff168152602001908152602001600020600a01805480602002602001604051908101604052809291908181526020016000905b828210156117445783829060005260206000200180546116b790613cf3565b80601f01602080910402602001604051908101604052809291908181526020018280546116e390613cf3565b80156117305780601f1061170557610100808354040283529160200191611730565b820191906000526020600020905b81548152906001019060200180831161171357829003601f168201915b505050505081526020019060010190611698565b505050509150509295509295509295565b606061177f8260405160200161176b91906142c1565b60405160208183030381529060405261030a565b9050919050565b60011515600160008573ffffffffffffffffffffffffffffffffffffffff1673ffffffffffffffffffffffffffffffffffffffff16815260200190815260200160002060000160009054906101000a900460ff1615151461181c576040517f08c379a000000000000000000000000000000000000000000000000000000000815260040161181390613d70565b60405180910390fd5b80600360008573ffffffffffffffffffffffffffffffffffffffff1673ffffffffffffffffffffffffffffffffffffffff16815260200190815260200160002060008473ffffffffffffffffffffffffffffffffffffffff1673ffffffffffffffffffffffffffffffffffffffff168152602001908152602001600020819055507f19dd02d0615ff9058c55159271b51d3d8ead87b40cc392e6dbeca6483cff333382846040516118ce929190613e22565b60405180910390a1505050565b600460009054906101000a900473ffffffffffffffffffffffffffffffffffffffff1673ffffffffffffffffffffffffffffffffffffffff163373ffffffffffffffffffffffffffffffffffffffff161461196b576040517f08c379a000000000000000000000000000000000000000000000000000000000815260040161196290614328565b60405180910390fd5b6005543410156119b0576040517f08c379a00000000000000000000000000000000000000000000000000000000081526004016119a790613f03565b60405180910390fd5b600015156000808573ffffffffffffffffffffffffffffffffffffffff1673ffffffffffffffffffffffffffffffffffffffff16815260200190815260200160002060000160009054906101000a900460ff16151514611a45576040517f08c379a0000000000000000000000000000000000000000000000000000000008152600401611a3c90614394565b60405180910390fd5b604051806080016040528085151581526020018473ffffffffffffffffffffffffffffffffffffffff168152602001838152602001828152506000808573ffffffffffffffffffffffffffffffffffffffff1673ffffffffffffffffffffffffffffffffffffffff16815260200190815260200160002060008201518160000160006101000a81548160ff02191690831515021790555060208201518160000160016101000a81548173ffffffffffffffffffffffffffffffffffffffff021916908373ffffffffffffffffffffffffffffffffffffffff1602179055506040820151816001019081611b38919061413b565b506060820151816002019081611b4e919061413b565b509050507f83c041d3aeb1dcb1f28cb15e20bdfee5ed1ca3740e487f9cab72e13eeb8595053384604051611b83929190613e22565b60405180910390a150505050565b600460009054906101000a900473ffffffffffffffffffffffffffffffffffffffff1681565b600080606080600460009054906101000a900473ffffffffffffffffffffffffffffffffffffffff1673ffffffffffffffffffffffffffffffffffffffff163373ffffffffffffffffffffffffffffffffffffffff1614611c4d576040517f08c379a0000000000000000000000000000000000000000000000000000000008152600401611c4490614328565b60405180910390fd5b6000808673ffffffffffffffffffffffffffffffffffffffff1673ffffffffffffffffffffffffffffffffffffffff16815260200190815260200160002060000160009054906101000a900460ff1693506000808673ffffffffffffffffffffffffffffffffffffffff1673ffffffffffffffffffffffffffffffffffffffff16815260200190815260200160002060000160019054906101000a900473ffffffffffffffffffffffffffffffffffffffff1692506000808673ffffffffffffffffffffffffffffffffffffffff1673ffffffffffffffffffffffffffffffffffffffff1681526020019081526020016000206001018054611d4e90613cf3565b80601f0160208091040260200160405190810160405280929190818152602001828054611d7a90613cf3565b8015611dc75780601f10611d9c57610100808354040283529160200191611dc7565b820191906000526020600020905b815481529060010190602001808311611daa57829003601f168201915b505050505091506000808673ffffffffffffffffffffffffffffffffffffffff1673ffffffffffffffffffffffffffffffffffffffff1681526020019081526020016000206002018054611e1a90613cf3565b80601f0160208091040260200160405190810160405280929190818152602001828054611e4690613cf3565b8015611e935780601f10611e6857610100808354040283529160200191611e93565b820191906000526020600020905b815481529060010190602001808311611e7657829003601f168201915b505050505090509193509193565b600115156000803373ffffffffffffffffffffffffffffffffffffffff1673ffffffffffffffffffffffffffffffffffffffff16815260200190815260200160002060000160009054906101000a900460ff16151514611f36576040517f08c379a0000000000000000000000000000000000000000000000000000000008152600401611f2d90613e97565b60405180910390fd5b6000808473ffffffffffffffffffffffffffffffffffffffff1673ffffffffffffffffffffffffffffffffffffffff168152602001908152602001600020600101600260008573ffffffffffffffffffffffffffffffffffffffff1673ffffffffffffffffffffffffffffffffffffffff16815260200190815260200160002060008473ffffffffffffffffffffffffffffffffffffffff1673ffffffffffffffffffffffffffffffffffffffff168152602001908152602001600020600001600101908161200591906143df565b506000808473ffffffffffffffffffffffffffffffffffffffff1673ffffffffffffffffffffffffffffffffffffffff16815260200190815260200160002060000160019054906101000a900473ffffffffffffffffffffffffffffffffffffffff16600260008573ffffffffffffffffffffffffffffffffffffffff1673ffffffffffffffffffffffffffffffffffffffff16815260200190815260200160002060008473ffffffffffffffffffffffffffffffffffffffff1673ffffffffffffffffffffffffffffffffffffffff16815260200190815260200160002060000160000160016101000a81548173ffffffffffffffffffffffffffffffffffffffff021916908373ffffffffffffffffffffffffffffffffffffffff16021790555080600260008573ffffffffffffffffffffffffffffffffffffffff1673ffffffffffffffffffffffffffffffffffffffff16815260200190815260200160002060008473ffffffffffffffffffffffffffffffffffffffff1673ffffffffffffffffffffffffffffffffffffffff16815260200190815260200160002060090160000190816121b7919061413b565b50600260008473ffffffffffffffffffffffffffffffffffffffff1673ffffffffffffffffffffffffffffffffffffffff16815260200190815260200160002060008373ffffffffffffffffffffffffffffffffffffffff1673ffffffffffffffffffffffffffffffffffffffff168152602001908152602001600020600a0181908060018154018082558091505060019003906000526020600020016000909190919091509081612269919061413b565b50600160008373ffffffffffffffffffffffffffffffffffffffff1673ffffffffffffffffffffffffffffffffffffffff168152602001908152602001600020600501819080600181540180825580915050600190039060005260206000200160009091909190915090816122de919061413b565b50612878600260008573ffffffffffffffffffffffffffffffffffffffff1673ffffffffffffffffffffffffffffffffffffffff16815260200190815260200160002060008473ffffffffffffffffffffffffffffffffffffffff1673ffffffffffffffffffffffffffffffffffffffff16815260200190815260200160002060030160000160009054906101000a900460ff16600260008673ffffffffffffffffffffffffffffffffffffffff1673ffffffffffffffffffffffffffffffffffffffff16815260200190815260200160002060008573ffffffffffffffffffffffffffffffffffffffff1673ffffffffffffffffffffffffffffffffffffffff16815260200190815260200160002060030160000160019054906101000a900473ffffffffffffffffffffffffffffffffffffffff16600260008773ffffffffffffffffffffffffffffffffffffffff1673ffffffffffffffffffffffffffffffffffffffff16815260200190815260200160002060008673ffffffffffffffffffffffffffffffffffffffff1673ffffffffffffffffffffffffffffffffffffffff16815260200190815260200160002060030160010180546124a290613cf3565b80601f01602080910402602001604051908101604052809291908181526020018280546124ce90613cf3565b801561251b5780601f106124f05761010080835404028352916020019161251b565b820191906000526020600020905b8154815290600101906020018083116124fe57829003601f168201915b5050505050600260008873ffffffffffffffffffffffffffffffffffffffff1673ffffffffffffffffffffffffffffffffffffffff16815260200190815260200160002060008773ffffffffffffffffffffffffffffffffffffffff1673ffffffffffffffffffffffffffffffffffffffff16815260200190815260200160002060030160020160009054906101000a900463ffffffff16600260008973ffffffffffffffffffffffffffffffffffffffff1673ffffffffffffffffffffffffffffffffffffffff16815260200190815260200160002060008873ffffffffffffffffffffffffffffffffffffffff1673ffffffffffffffffffffffffffffffffffffffff168152602001908152602001600020600301600301805461264090613cf3565b80601f016020809104026020016040519081016040528092919081815260200182805461266c90613cf3565b80156126b95780601f1061268e576101008083540402835291602001916126b9565b820191906000526020600020905b81548152906001019060200180831161269c57829003601f168201915b5050505050600260008a73ffffffffffffffffffffffffffffffffffffffff1673ffffffffffffffffffffffffffffffffffffffff16815260200190815260200160002060008973ffffffffffffffffffffffffffffffffffffffff1673ffffffffffffffffffffffffffffffffffffffff16815260200190815260200160002060030160040160009054906101000a900473ffffffffffffffffffffffffffffffffffffffff16600160008a73ffffffffffffffffffffffffffffffffffffffff1673ffffffffffffffffffffffffffffffffffffffff168152602001908152602001600020600501805480602002602001604051908101604052809291908181526020016000905b8282101561286f5783829060005260206000200180546127e290613cf3565b80601f016020809104026020016040519081016040528092919081815260200182805461280e90613cf3565b801561285b5780601f106128305761010080835404028352916020019161285b565b820191906000526020600020905b81548152906001019060200180831161283e57829003601f168201915b5050505050815260200190600101906127c3565b50505050610d6d565b7ffd09d3da0077a9ed9d4af05531b2f844c840c94c1e6535e3d2a09a6ae1aa9a5283836040516128a9929190613e22565b60405180910390a1505050565b6060600060606000606080600115156000803373ffffffffffffffffffffffffffffffffffffffff1673ffffffffffffffffffffffffffffffffffffffff16815260200190815260200160002060000160009054906101000a900460ff16151514612956576040517f08c379a000000000000000000000000000000000000000000000000000000000815260040161294d90613e97565b60405180910390fd5b6001600360008973ffffffffffffffffffffffffffffffffffffffff1673ffffffffffffffffffffffffffffffffffffffff16815260200190815260200160002060003373ffffffffffffffffffffffffffffffffffffffff1673ffffffffffffffffffffffffffffffffffffffff1681526020019081526020016000205414612a15576040517f08c379a0000000000000000000000000000000000000000000000000000000008152600401612a0c90614513565b60405180910390fd5b600260003373ffffffffffffffffffffffffffffffffffffffff1673ffffffffffffffffffffffffffffffffffffffff16815260200190815260200160002060008873ffffffffffffffffffffffffffffffffffffffff1673ffffffffffffffffffffffffffffffffffffffff1681526020019081526020016000206000016001018054612aa290613cf3565b80601f0160208091040260200160405190810160405280929190818152602001828054612ace90613cf3565b8015612b1b5780601f10612af057610100808354040283529160200191612b1b565b820191906000526020600020905b815481529060010190602001808311612afe57829003601f168201915b50505050509550600260003373ffffffffffffffffffffffffffffffffffffffff1673ffffffffffffffffffffffffffffffffffffffff16815260200190815260200160002060008873ffffffffffffffffffffffffffffffffffffffff1673ffffffffffffffffffffffffffffffffffffffff16815260200190815260200160002060000160000160019054906101000a900473ffffffffffffffffffffffffffffffffffffffff169450600260003373ffffffffffffffffffffffffffffffffffffffff1673ffffffffffffffffffffffffffffffffffffffff16815260200190815260200160002060008873ffffffffffffffffffffffffffffffffffffffff1673ffffffffffffffffffffffffffffffffffffffff1681526020019081526020016000206003016001018054612c5490613cf3565b80601f0160208091040260200160405190810160405280929190818152602001828054612c8090613cf3565b8015612ccd5780601f10612ca257610100808354040283529160200191612ccd565b820191906000526020600020905b815481529060010190602001808311612cb057829003601f168201915b50505050509350600260003373ffffffffffffffffffffffffffffffffffffffff1673ffffffffffffffffffffffffffffffffffffffff16815260200190815260200160002060008873ffffffffffffffffffffffffffffffffffffffff1673ffffffffffffffffffffffffffffffffffffffff16815260200190815260200160002060030160000160019054906101000a900473ffffffffffffffffffffffffffffffffffffffff169250600260003373ffffffffffffffffffffffffffffffffffffffff1673ffffffffffffffffffffffffffffffffffffffff16815260200190815260200160002060008873ffffffffffffffffffffffffffffffffffffffff1673ffffffffffffffffffffffffffffffffffffffff1681526020019081526020016000206009016000018054612e0690613cf3565b80601f0160208091040260200160405190810160405280929190818152602001828054612e3290613cf3565b8015612e7f5780601f10612e5457610100808354040283529160200191612e7f565b820191906000526020600020905b815481529060010190602001808311612e6257829003601f168201915b50505050509150600260003373ffffffffffffffffffffffffffffffffffffffff1673ffffffffffffffffffffffffffffffffffffffff16815260200190815260200160002060008873ffffffffffffffffffffffffffffffffffffffff1673ffffffffffffffffffffffffffffffffffffffff168152602001908152602001600020600a01805480602002602001604051908101604052809291908181526020016000905b82821015612fd1578382906000526020600020018054612f4490613cf3565b80601f0160208091040260200160405190810160405280929190818152602001828054612f7090613cf3565b8015612fbd5780601f10612f9257610100808354040283529160200191612fbd565b820191906000526020600020905b815481529060010190602001808311612fa057829003601f168201915b505050505081526020019060010190612f25565b50505050905091939550919395565b828054828255906000526020600020908101928215613028579160200282015b82811115613027578251829081613017919061413b565b5091602001919060010190613000565b5b5090506130359190613039565b5090565b5b808211156130595760008181613050919061305d565b5060010161303a565b5090565b50805461306990613cf3565b6000825580601f1061307b575061309a565b601f016020900490600052602060002090810190613099919061309d565b5b50565b5b808211156130b657600081600090555060010161309e565b5090565b6000604051905090565b600080fd5b600080fd5b600080fd5b600080fd5b6000601f19601f8301169050919050565b7f4e487b7100000000000000000000000000000000000000000000000000000000600052604160045260246000fd5b613121826130d8565b810181811067ffffffffffffffff821117156131405761313f6130e9565b5b80604052505050565b60006131536130ba565b905061315f8282613118565b919050565b600067ffffffffffffffff82111561317f5761317e6130e9565b5b613188826130d8565b9050602081019050919050565b82818337600083830152505050565b60006131b76131b284613164565b613149565b9050828152602081018484840111156131d3576131d26130d3565b5b6131de848285613195565b509392505050565b600082601f8301126131fb576131fa6130ce565b5b813561320b8482602086016131a4565b91505092915050565b60006020828403121561322a576132296130c4565b5b600082013567ffffffffffffffff811115613248576132476130c9565b5b613254848285016131e6565b91505092915050565b600081519050919050565b600082825260208201905092915050565b60005b8381101561329757808201518184015260208101905061327c565b838111156132a6576000848401525b50505050565b60006132b78261325d565b6132c18185613268565b93506132d1818560208601613279565b6132da816130d8565b840191505092915050565b600060208201905081810360008301526132ff81846132ac565b905092915050565b600073ffffffffffffffffffffffffffffffffffffffff82169050919050565b600061333282613307565b9050919050565b61334281613327565b811461334d57600080fd5b50565b60008135905061335f81613339565b92915050565b6000806040838503121561337c5761337b6130c4565b5b600061338a85828601613350565b925050602061339b85828601613350565b9150509250929050565b60008115159050919050565b6133ba816133a5565b82525050565b6133c981613327565b82525050565b600063ffffffff82169050919050565b6133e8816133cf565b82525050565b600081519050919050565b600082825260208201905092915050565b6000819050602082019050919050565b600082825260208201905092915050565b60006134368261325d565b613440818561341a565b9350613450818560208601613279565b613459816130d8565b840191505092915050565b6000613470838361342b565b905092915050565b6000602082019050919050565b6000613490826133ee565b61349a81856133f9565b9350836020820285016134ac8561340a565b8060005b858110156134e857848403895281516134c98582613464565b94506134d483613478565b925060208a019950506001810190506134b0565b50829750879550505050505092915050565b600060e08201905061350f600083018a6133b1565b61351c60208301896133c0565b818103604083015261352e81886132ac565b905061353d60608301876133df565b818103608083015261354f81866132ac565b905061355e60a08301856133c0565b81810360c08301526135708184613485565b905098975050505050505050565b613587816133a5565b811461359257600080fd5b50565b6000813590506135a48161357e565b92915050565b600067ffffffffffffffff8211156135c5576135c46130e9565b5b6135ce826130d8565b9050602081019050919050565b60006135ee6135e9846135aa565b613149565b90508281526020810184848401111561360a576136096130d3565b5b613615848285613195565b509392505050565b600082601f830112613632576136316130ce565b5b81356136428482602086016135db565b91505092915050565b613654816133cf565b811461365f57600080fd5b50565b6000813590506136718161364b565b92915050565b600067ffffffffffffffff821115613692576136916130e9565b5b602082029050602081019050919050565b600080fd5b60006136bb6136b684613677565b613149565b905080838252602082019050602084028301858111156136de576136dd6136a3565b5b835b8181101561372557803567ffffffffffffffff811115613703576137026130ce565b5b808601613710898261361d565b855260208501945050506020810190506136e0565b5050509392505050565b600082601f830112613744576137436130ce565b5b81356137548482602086016136a8565b91505092915050565b600080600080600080600060e0888a03121561377c5761377b6130c4565b5b600061378a8a828b01613595565b975050602061379b8a828b01613350565b965050604088013567ffffffffffffffff8111156137bc576137bb6130c9565b5b6137c88a828b0161361d565b95505060606137d98a828b01613662565b945050608088013567ffffffffffffffff8111156137fa576137f96130c9565b5b6138068a828b0161361d565b93505060a06138178a828b01613350565b92505060c088013567ffffffffffffffff811115613838576138376130c9565b5b6138448a828b0161372f565b91505092959891949750929550565b600060c082019050818103600083015261386d81896132ac565b905061387c60208301886133c0565b818103604083015261388e81876132ac565b905061389d60608301866133c0565b81810360808301526138af81856132ac565b905081810360a08301526138c38184613485565b9050979650505050505050565b6000602082840312156138e6576138e56130c4565b5b60006138f484828501613350565b91505092915050565b6000819050919050565b613910816138fd565b811461391b57600080fd5b50565b60008135905061392d81613907565b92915050565b60008060006060848603121561394c5761394b6130c4565b5b600061395a86828701613350565b935050602061396b86828701613350565b925050604061397c8682870161391e565b9150509250925092565b600080600080608085870312156139a05761399f6130c4565b5b60006139ae87828801613595565b94505060206139bf87828801613350565b935050604085013567ffffffffffffffff8111156139e0576139df6130c9565b5b6139ec8782880161361d565b925050606085013567ffffffffffffffff811115613a0d57613a0c6130c9565b5b613a198782880161361d565b91505092959194509250565b6000602082019050613a3a60008301846133c0565b92915050565b6000608082019050613a5560008301876133b1565b613a6260208301866133c0565b8181036040830152613a7481856132ac565b90508181036060830152613a8881846132ac565b905095945050505050565b600080600060608486031215613aac57613aab6130c4565b5b6000613aba86828701613350565b9350506020613acb86828701613350565b925050604084013567ffffffffffffffff811115613aec57613aeb6130c9565b5b613af88682870161361d565b9150509250925092565b7f4e487b7100000000000000000000000000000000000000000000000000000000600052601160045260246000fd5b6000613b3c826138fd565b9150613b47836138fd565b9250817fffffffffffffffffffffffffffffffffffffffffffffffffffffffffffffffff0483118215151615613b8057613b7f613b02565b5b828202905092915050565b6000613b96826138fd565b9150613ba1836138fd565b9250827fffffffffffffffffffffffffffffffffffffffffffffffffffffffffffffffff03821115613bd657613bd5613b02565b5b828201905092915050565b7f4e487b7100000000000000000000000000000000000000000000000000000000600052603260045260246000fd5b6000613c1b826138fd565b91507fffffffffffffffffffffffffffffffffffffffffffffffffffffffffffffffff8203613c4d57613c4c613b02565b5b600182019050919050565b7f55736572206e6f74207265676973746572656400000000000000000000000000600082015250565b6000613c8e601383613268565b9150613c9982613c58565b602082019050919050565b60006020820190508181036000830152613cbd81613c81565b9050919050565b7f4e487b7100000000000000000000000000000000000000000000000000000000600052602260045260246000fd5b60006002820490506001821680613d0b57607f821691505b602082108103613d1e57613d1d613cc4565b5b50919050565b7f50617469656e74206e6f74205265676973746572656400000000000000000000600082015250565b6000613d5a601683613268565b9150613d6582613d24565b602082019050919050565b60006020820190508181036000830152613d8981613d4d565b9050919050565b7f446f63746f7220616c726561647920646f6573206e6f7420686176652061636360008201527f6573730000000000000000000000000000000000000000000000000000000000602082015250565b6000613dec602383613268565b9150613df782613d90565b604082019050919050565b60006020820190508181036000830152613e1b81613ddf565b9050919050565b6000604082019050613e3760008301856133c0565b613e4460208301846133c0565b9392505050565b7f5245474953544552454420444f43544f5253204f4e4c59000000000000000000600082015250565b6000613e81601783613268565b9150613e8c82613e4b565b602082019050919050565b60006020820190508181036000830152613eb081613e74565b9050919050565b7f5061796d656e7420496e636f6d706c6574650000000000000000000000000000600082015250565b6000613eed601283613268565b9150613ef882613eb7565b602082019050919050565b60006020820190508181036000830152613f1c81613ee0565b9050919050565b7f50617469656e7420616c72656164792072656769737465726564000000000000600082015250565b6000613f59601a83613268565b9150613f6482613f23565b602082019050919050565b60006020820190508181036000830152613f8881613f4c565b9050919050565b60008190508160005260206000209050919050565b60006020601f8301049050919050565b600082821b905092915050565b600060088302613ff17fffffffffffffffffffffffffffffffffffffffffffffffffffffffffffffffff82613fb4565b613ffb8683613fb4565b95508019841693508086168417925050509392505050565b6000819050919050565b600061403861403361402e846138fd565b614013565b6138fd565b9050919050565b6000819050919050565b6140528361401d565b61406661405e8261403f565b848454613fc1565b825550505050565b600090565b61407b61406e565b614086818484614049565b505050565b5b818110156140aa5761409f600082614073565b60018101905061408c565b5050565b601f8211156140ef576140c081613f8f565b6140c984613fa4565b810160208510156140d8578190505b6140ec6140e485613fa4565b83018261408b565b50505b505050565b600082821c905092915050565b6000614112600019846008026140f4565b1980831691505092915050565b600061412b8383614101565b9150826002028217905092915050565b6141448261325d565b67ffffffffffffffff81111561415d5761415c6130e9565b5b6141678254613cf3565b6141728282856140ae565b600060209050601f8311600181146141a55760008415614193578287015190505b61419d858261411f565b865550614205565b601f1984166141b386613f8f565b60005b828110156141db578489015182556001820191506020850194506020810190506141b6565b868310156141f857848901516141f4601f891682614101565b8355505b6001600288020188555050505b505050505050565b7f524547495354455245442050415449454e5453204f4e4c590000000000000000600082015250565b6000614243601883613268565b915061424e8261420d565b602082019050919050565b6000602082019050818103600083015261427281614236565b9050919050565b60008160601b9050919050565b600061429182614279565b9050919050565b60006142a382614286565b9050919050565b6142bb6142b682613327565b614298565b82525050565b60006142cd82846142aa565b60148201915081905092915050565b7f4f4e4c592041444d494e20495320414c4c4f5745440000000000000000000000600082015250565b6000614312601583613268565b915061431d826142dc565b602082019050919050565b6000602082019050818103600083015261434181614305565b9050919050565b7f446f63746f7220616c7265616479207265676973746572656400000000000000600082015250565b600061437e601983613268565b915061438982614348565b602082019050919050565b600060208201905081810360008301526143ad81614371565b9050919050565b6000815490506143c381613cf3565b9050919050565b60008190508160005260206000209050919050565b8181036143ed5750506144c5565b6143f6826143b4565b67ffffffffffffffff81111561440f5761440e6130e9565b5b6144198254613cf3565b6144248282856140ae565b6000601f8311600181146144535760008415614441578287015490505b61444b858261411f565b8655506144be565b601f198416614461876143ca565b965061446c86613f8f565b60005b828110156144945784890154825560018201915060018501945060208101905061446f565b868310156144b157848901546144ad601f891682614101565b8355505b6001600288020188555050505b5050505050505b565b7f445220414343455353204e4f54204752414e5445440000000000000000000000600082015250565b60006144fd601583613268565b9150614508826144c7565b602082019050919050565b6000602082019050818103600083015261452c816144f0565b905091905056fea264697066735822122059d0c954921b3acc86c1118327562cde4dc78ab2325fc4811468b318f7518ee564736f6c634300080f0033",
  "immutableReferences": {},
  "source": "// SPDX-License-Identifier: GPL-3.0\r\npragma solidity >=0.7.0 <0.9.0;\r\npragma experimental ABIEncoderV2;\r\n\r\ncontract MedicalChain {\r\n    mapping(address => Doctor) DoctorInfo;\r\n    mapping(address => Patient) PatientInfo;\r\n    mapping(address => mapping(address => HealthRecords)) HealthInfo;\r\n    mapping(address => mapping(address => uint256)) private patientToDoctor;\r\n\r\n    event DrDetailsAdded(address admin, address doctor);\r\n    event PatDetailsAdded(address doctor, address patient);\r\n    event HealthRecordsAdded(address dr, address patient);\r\n    event GrantAccessToDr(address dr, address patient);\r\n    event RevokeAccessToDr(address dr, address patient);\r\n\r\n    modifier OnlyOwner() {\r\n        require(msg.sender == owner, \"ONLY ADMIN IS ALLOWED\");\r\n        _;\r\n    }\r\n\r\n    modifier Only_Doctors() {\r\n        require(\r\n            DoctorInfo[msg.sender].state == true,\r\n            \"REGISTERED DOCTORS ONLY\"\r\n        );\r\n        _;\r\n    }\r\n\r\n    modifier Only_Patients(address sender) {\r\n        require(PatientInfo[sender].state == true, \"REGISTERED PATIENTS ONLY\");\r\n        _;\r\n    }\r\n\r\n    address public owner;\r\n    uint256 amt = 1e15;\r\n\r\n    constructor() {\r\n        owner = msg.sender;\r\n    }\r\n\r\n    struct Doctor {\r\n        bool state; // To check whether the doctor is registered or not\r\n        address dr_Id; // Address of doctor\r\n        string d_Name; // Name of doctor\r\n        string d_speciality;\r\n    }\r\n\r\n    struct Patient {\r\n        bool state; // To check whether patient is genuine\r\n        address pa_Id; // Address of registered patient\r\n        string pa_Name; // Name of Patient\r\n        uint32 pa_Age; // Age of Patient\r\n        string pa_BloodGroup; // Blood group of the patient\r\n        address hospital; // Hospital maintaining health records of the patient\r\n        string[] pa_Records; // Used to store the prescription records of corresponding patients\r\n    }\r\n\r\n    struct PrescriptionDetails {\r\n        string prescription; // prescription details of patient given by doctor\r\n    }\r\n\r\n    struct HealthRecords {\r\n        Doctor d;\r\n        Patient p;\r\n        PrescriptionDetails pre;\r\n        string[] records; // Used to store prescription records of patient w.r.t doctor\r\n    }\r\n\r\n    // Function to add Doctor details, done by admin only\r\n    function setDoctorDetails(\r\n        bool _state,\r\n        address _drId,\r\n        string memory _name,\r\n        string memory _speciality\r\n    ) external payable OnlyOwner {\r\n        require(msg.value >= amt, \"Payment Incomplete\");\r\n        require(DoctorInfo[_drId].state == false, \"Doctor already registered\");\r\n        DoctorInfo[_drId] = Doctor(_state, _drId, _name, _speciality);\r\n        emit DrDetailsAdded(msg.sender, _drId);\r\n    }\r\n\r\n    // Function to get Doctor details for admin\r\n    function getDoctorDetails(address _Id)\r\n        public\r\n        view\r\n        OnlyOwner\r\n        returns (\r\n            bool _state,\r\n            address _drId,\r\n            string memory _name,\r\n            string memory _speciality\r\n        )\r\n    {\r\n        _state = DoctorInfo[_Id].state;\r\n        _drId = DoctorInfo[_Id].dr_Id;\r\n        _name = DoctorInfo[_Id].d_Name;\r\n        _speciality = DoctorInfo[_Id].d_speciality;\r\n    }\r\n\r\n    // Function to add HealthRecords of patients, done by registered doctors only\r\n    function setHealthRecordsDetails(\r\n        address sender,\r\n        address _paId,\r\n        string memory _prescription\r\n    ) public Only_Doctors {\r\n        HealthInfo[sender][_paId].d.d_Name = DoctorInfo[sender].d_Name;\r\n        HealthInfo[sender][_paId].d.dr_Id = DoctorInfo[sender].dr_Id;\r\n        // HealthInfo[sender][_paId].p.state = true;\r\n        // HealthInfo[sender][_paId].p.pa_Id = _paId;\r\n        HealthInfo[sender][_paId].pre.prescription = _prescription;\r\n        HealthInfo[sender][_paId].records.push(_prescription);\r\n        PatientInfo[_paId].pa_Records.push(_prescription);\r\n        setPatientDetails(\r\n            HealthInfo[sender][_paId].p.state,\r\n            HealthInfo[sender][_paId].p.pa_Id,\r\n            HealthInfo[sender][_paId].p.pa_Name,\r\n            HealthInfo[sender][_paId].p.pa_Age,\r\n            HealthInfo[sender][_paId].p.pa_BloodGroup,\r\n            HealthInfo[sender][_paId].p.hospital,\r\n            PatientInfo[_paId].pa_Records\r\n        );\r\n        emit HealthRecordsAdded(sender, _paId);\r\n    }\r\n\r\n    // Function to add Patient details, done by registered doctors only\r\n    function setPatientDetails(\r\n        bool _state,\r\n        address _paId,\r\n        string memory _paName,\r\n        uint32 _paAge,\r\n        string memory _paBloodGroup,\r\n        address _hospital,\r\n        string[] memory _paRecords\r\n    ) public payable Only_Doctors {\r\n        require(msg.value >= amt, \"Payment Incomplete\");\r\n        require(\r\n            PatientInfo[_paId].state == false,\r\n            \"Patient already registered\"\r\n        );\r\n        PatientInfo[_paId] = Patient(\r\n            _state,\r\n            _paId,\r\n            _paName,\r\n            _paAge,\r\n            _paBloodGroup,\r\n            _hospital,\r\n            _paRecords\r\n        );\r\n        emit PatDetailsAdded(msg.sender, _paId);\r\n    }\r\n\r\n    function toString(address account) public pure returns (string memory) {\r\n        return toString1(abi.encodePacked(account));\r\n    }\r\n\r\n    function toString1(bytes memory data) public pure returns (string memory) {\r\n        bytes memory alphabet = \"0123456789abcdef\";\r\n\r\n        bytes memory str = new bytes(2 + data.length * 2);\r\n        str[0] = \"0\";\r\n        str[1] = \"x\";\r\n        for (uint256 i = 0; i < data.length; i++) {\r\n            str[2 + i * 2] = alphabet[uint256(uint8(data[i] >> 4))];\r\n            str[3 + i * 2] = alphabet[uint256(uint8(data[i] & 0x0f))];\r\n        }\r\n        return string(str);\r\n    }\r\n\r\n    // Function to get Patient details\r\n    function getPatientDetails(address sender, address _Id)\r\n        public\r\n        view\r\n        returns (\r\n            bool _state,\r\n            address _paId,\r\n            string memory _paName,\r\n            uint32 _paAge,\r\n            string memory _paBloodGroup,\r\n            address _hospital,\r\n            string[] memory _paRecords\r\n        )\r\n    {\r\n        require(\r\n            PatientInfo[sender].state == true ||\r\n                patientToDoctor[_Id][sender] == 1,\r\n            \"User not registered\"\r\n            // string.concat(\"Sender - \",toString(sender),\"IDPatient - \",toString(_Id))\r\n        );\r\n        _state = PatientInfo[_Id].state;\r\n        _paId = PatientInfo[_Id].pa_Id;\r\n        _paName = PatientInfo[_Id].pa_Name;\r\n        _paAge = PatientInfo[_Id].pa_Age;\r\n        _paBloodGroup = PatientInfo[_Id].pa_BloodGroup;\r\n        _hospital = PatientInfo[_Id].hospital;\r\n        _paRecords = PatientInfo[_Id].pa_Records;\r\n    }\r\n\r\n    // Function to get HealthRecords only for registered patients\r\n    function getHealthRecords(address sender, address _dr)\r\n        public\r\n        view\r\n        Only_Patients(sender)\r\n        returns (\r\n            string memory _drName,\r\n            address _drId,\r\n            string memory _paName,\r\n            address _paId,\r\n            string memory _prescription,\r\n            string[] memory _rec\r\n        )\r\n    {\r\n        _drName = HealthInfo[_dr][sender].d.d_Name;\r\n        _drId = HealthInfo[_dr][sender].d.dr_Id;\r\n        _paName = HealthInfo[_dr][sender].p.pa_Name;\r\n        _paId = HealthInfo[_dr][sender].p.pa_Id;\r\n        _prescription = HealthInfo[_dr][sender].pre.prescription;\r\n        _rec = HealthInfo[_dr][sender].records;\r\n    }\r\n\r\n    // Function to grant access to doctor ,so that the doctors with access can view the corresponding patients HealthRecords\r\n    function grantAccessToDoctor(\r\n        address sender,\r\n        address doctor_id,\r\n        uint256 access\r\n    ) public {\r\n        require(PatientInfo[sender].state == true, \"Patient not Registered\");\r\n        patientToDoctor[sender][doctor_id] = access;\r\n        emit GrantAccessToDr(doctor_id, sender);\r\n    }\r\n\r\n    function revokeAccessFromDoctor(address sender, address doctor_id) public {\r\n        require(PatientInfo[sender].state == true, \"Patient not Registered\");\r\n        require(\r\n            patientToDoctor[sender][doctor_id] > 0,\r\n            \"Doctor already does not have access\"\r\n        );\r\n        patientToDoctor[sender][doctor_id] = 0;\r\n        emit RevokeAccessToDr(doctor_id, sender);\r\n    }\r\n\r\n    // Function to get HealthRecords only for registered Doctors\r\n    function getHealthRecordsForDoctor(address _paId)\r\n        public\r\n        view\r\n        Only_Doctors\r\n        returns (\r\n            string memory _drName,\r\n            address _drId,\r\n            string memory _paName,\r\n            address _pId,\r\n            string memory _prescription,\r\n            string[] memory _rec\r\n        )\r\n    {\r\n        require(\r\n            patientToDoctor[_paId][msg.sender] == 1,\r\n            \"DR ACCESS NOT GRANTED\"\r\n        );\r\n        _drName = HealthInfo[msg.sender][_paId].d.d_Name;\r\n        _drId = HealthInfo[msg.sender][_paId].d.dr_Id;\r\n        _paName = HealthInfo[msg.sender][_paId].p.pa_Name;\r\n        _pId = HealthInfo[msg.sender][_paId].p.pa_Id;\r\n        _prescription = HealthInfo[msg.sender][_paId].pre.prescription;\r\n        _rec = HealthInfo[msg.sender][_paId].records;\r\n    }\r\n}\r\n",
  "sourcePath": "D:\\BTP\\Demo\\Demo3\\contracts\\MedicalChain.sol",
  "compiler": {
    "name": "solc",
    "version": "0.8.15+commit.e14f2714.Emscripten.clang"
  },
  "schemaVersion": "3.4.8",
  "updatedAt": "2022-09-16T14:19:50.793Z",
  "networkType": "ethereum",
  "devdoc": {
    "kind": "dev",
    "methods": {},
    "version": 1
  },
  "userdoc": {
    "kind": "user",
    "methods": {},
    "version": 1
  }
}