{
  "contractName": "MedicalChain",
  "abi": [
    {
      "inputs": [],
      "stateMutability": "nonpayable",
      "type": "constructor"
    },
    {
      "anonymous": false,
      "inputs": [
        {
          "indexed": false,
          "internalType": "address",
          "name": "admin",
          "type": "address"
        },
        {
          "indexed": false,
          "internalType": "address",
          "name": "doctor",
          "type": "address"
        }
      ],
      "name": "DrDetailsAdded",
      "type": "event"
    },
    {
      "anonymous": false,
      "inputs": [
        {
          "indexed": false,
          "internalType": "address",
          "name": "dr",
          "type": "address"
        },
        {
          "indexed": false,
          "internalType": "address",
          "name": "patient",
          "type": "address"
        }
      ],
      "name": "GrantAccessToDr",
      "type": "event"
    },
    {
      "anonymous": false,
      "inputs": [
        {
          "indexed": false,
          "internalType": "address",
          "name": "dr",
          "type": "address"
        },
        {
          "indexed": false,
          "internalType": "address",
          "name": "patient",
          "type": "address"
        }
      ],
      "name": "HealthRecordsAdded",
      "type": "event"
    },
    {
      "anonymous": false,
      "inputs": [
        {
          "indexed": false,
          "internalType": "address",
          "name": "doctor",
          "type": "address"
        },
        {
          "indexed": false,
          "internalType": "address",
          "name": "patient",
          "type": "address"
        }
      ],
      "name": "PatDetailsAdded",
      "type": "event"
    },
    {
      "inputs": [],
      "name": "owner",
      "outputs": [
        {
          "internalType": "address",
          "name": "",
          "type": "address"
        }
      ],
      "stateMutability": "view",
      "type": "function",
      "constant": true
    },
    {
      "inputs": [
        {
          "internalType": "bool",
          "name": "_state",
          "type": "bool"
        },
        {
          "internalType": "address",
          "name": "_drId",
          "type": "address"
        },
        {
          "internalType": "string",
          "name": "_name",
          "type": "string"
        },
        {
          "internalType": "string",
          "name": "_speciality",
          "type": "string"
        }
      ],
      "name": "setDoctorDetails",
      "outputs": [],
      "stateMutability": "payable",
      "type": "function",
      "payable": true
    },
    {
      "inputs": [
        {
          "internalType": "address",
          "name": "_Id",
          "type": "address"
        }
      ],
      "name": "getDoctorDetails",
      "outputs": [
        {
          "internalType": "bool",
          "name": "_state",
          "type": "bool"
        },
        {
          "internalType": "address",
          "name": "_drId",
          "type": "address"
        },
        {
          "internalType": "string",
          "name": "_name",
          "type": "string"
        },
        {
          "internalType": "string",
          "name": "_speciality",
          "type": "string"
        }
      ],
      "stateMutability": "view",
      "type": "function",
      "constant": true
    },
    {
      "inputs": [
        {
          "internalType": "address",
          "name": "sender",
          "type": "address"
        },
        {
          "internalType": "address",
          "name": "_paId",
          "type": "address"
        },
        {
          "internalType": "string",
          "name": "_prescription",
          "type": "string"
        }
      ],
      "name": "setHealthRecordsDetails",
      "outputs": [],
      "stateMutability": "nonpayable",
      "type": "function"
    },
    {
      "inputs": [
        {
          "internalType": "bool",
          "name": "_state",
          "type": "bool"
        },
        {
          "internalType": "address",
          "name": "_paId",
          "type": "address"
        },
        {
          "internalType": "string",
          "name": "_paName",
          "type": "string"
        },
        {
          "internalType": "uint32",
          "name": "_paAge",
          "type": "uint32"
        },
        {
          "internalType": "string",
          "name": "_paBloodGroup",
          "type": "string"
        },
        {
          "internalType": "address",
          "name": "_hospital",
          "type": "address"
        },
        {
          "internalType": "string[]",
          "name": "_paRecords",
          "type": "string[]"
        }
      ],
      "name": "setPatientDetails",
      "outputs": [],
      "stateMutability": "payable",
      "type": "function",
      "payable": true
    },
    {
      "inputs": [
        {
          "internalType": "address",
          "name": "account",
          "type": "address"
        }
      ],
      "name": "toString",
      "outputs": [
        {
          "internalType": "string",
          "name": "",
          "type": "string"
        }
      ],
      "stateMutability": "pure",
      "type": "function",
      "constant": true
    },
    {
      "inputs": [
        {
          "internalType": "bytes",
          "name": "data",
          "type": "bytes"
        }
      ],
      "name": "toString1",
      "outputs": [
        {
          "internalType": "string",
          "name": "",
          "type": "string"
        }
      ],
      "stateMutability": "pure",
      "type": "function",
      "constant": true
    },
    {
      "inputs": [
        {
          "internalType": "address",
          "name": "sender",
          "type": "address"
        },
        {
          "internalType": "address",
          "name": "_Id",
          "type": "address"
        }
      ],
      "name": "getPatientDetails",
      "outputs": [
        {
          "internalType": "bool",
          "name": "_state",
          "type": "bool"
        },
        {
          "internalType": "address",
          "name": "_paId",
          "type": "address"
        },
        {
          "internalType": "string",
          "name": "_paName",
          "type": "string"
        },
        {
          "internalType": "uint32",
          "name": "_paAge",
          "type": "uint32"
        },
        {
          "internalType": "string",
          "name": "_paBloodGroup",
          "type": "string"
        },
        {
          "internalType": "address",
          "name": "_hospital",
          "type": "address"
        },
        {
          "internalType": "string[]",
          "name": "_paRecords",
          "type": "string[]"
        }
      ],
      "stateMutability": "view",
      "type": "function",
      "constant": true
    },
    {
      "inputs": [
        {
          "internalType": "address",
          "name": "sender",
          "type": "address"
        },
        {
          "internalType": "address",
          "name": "_dr",
          "type": "address"
        }
      ],
      "name": "getHealthRecords",
      "outputs": [
        {
          "internalType": "string",
          "name": "_drName",
          "type": "string"
        },
        {
          "internalType": "address",
          "name": "_drId",
          "type": "address"
        },
        {
          "internalType": "string",
          "name": "_paName",
          "type": "string"
        },
        {
          "internalType": "address",
          "name": "_paId",
          "type": "address"
        },
        {
          "internalType": "string",
          "name": "_prescription",
          "type": "string"
        },
        {
          "internalType": "string[]",
          "name": "_rec",
          "type": "string[]"
        }
      ],
      "stateMutability": "view",
      "type": "function",
      "constant": true
    },
    {
      "inputs": [
        {
          "internalType": "address",
          "name": "sender",
          "type": "address"
        },
        {
          "internalType": "address",
          "name": "doctor_id",
          "type": "address"
        },
        {
          "internalType": "uint256",
          "name": "access",
          "type": "uint256"
        }
      ],
      "name": "grantAccessToDoctor",
      "outputs": [],
      "stateMutability": "nonpayable",
      "type": "function"
    },
    {
      "inputs": [
        {
          "internalType": "address",
          "name": "_paId",
          "type": "address"
        }
      ],
      "name": "getHealthRecordsForDoctor",
      "outputs": [
        {
          "internalType": "string",
          "name": "_drName",
          "type": "string"
        },
        {
          "internalType": "address",
          "name": "_drId",
          "type": "address"
        },
        {
          "internalType": "string",
          "name": "_paName",
          "type": "string"
        },
        {
          "internalType": "address",
          "name": "_pId",
          "type": "address"
        },
        {
          "internalType": "string",
          "name": "_prescription",
          "type": "string"
        },
        {
          "internalType": "string[]",
          "name": "_rec",
          "type": "string[]"
        }
      ],
      "stateMutability": "view",
      "type": "function",
      "constant": true
    }
  ],
  "bytecode": "0x608060405266038d7ea4c6800060055534801561001b57600080fd5b5033600460006101000a81548173ffffffffffffffffffffffffffffffffffffffff021916908373ffffffffffffffffffffffffffffffffffffffff16021790555061422f8061006c6000396000f3fe60806040526004361061009b5760003560e01c8063579e74ca11610064578063579e74ca146101bb5780637284cd0b146101e45780638da5cb5b14610200578063bab90dbd1461022b578063c668473f1461026b578063f83009ba146102945761009b565b806211802a146100a05780630e9a705a146100dd57806316c168be1461012057806356009c6b1461013c57806356ca623e1461017e575b600080fd5b3480156100ac57600080fd5b506100c760048036038101906100c29190612fd8565b6102d6565b6040516100d491906130a9565b60405180910390f35b3480156100e957600080fd5b5061010460048036038101906100ff9190613129565b6105d0565b60405161011797969594939291906132be565b60405180910390f35b61013a60048036038101906101359190613521565b610b25565b005b34801561014857600080fd5b50610163600480360381019061015e9190613129565b610e9e565b60405161017596959493929190613617565b60405180910390f35b34801561018a57600080fd5b506101a560048036038101906101a09190613694565b61150d565b6040516101b291906130a9565b60405180910390f35b3480156101c757600080fd5b506101e260048036038101906101dd91906136f7565b61153e565b005b6101fe60048036038101906101f9919061374a565b61169f565b005b34801561020c57600080fd5b50610215611955565b60405161022291906137e9565b60405180910390f35b34801561023757600080fd5b50610252600480360381019061024d9190613694565b61197b565b6040516102629493929190613804565b60405180910390f35b34801561027757600080fd5b50610292600480360381019061028d9190613857565b611c65565b005b3480156102a057600080fd5b506102bb60048036038101906102b69190613694565b61267a565b6040516102cd96959493929190613617565b60405180910390f35b606060006040518060400160405280601081526020017f3031323334353637383961626364656600000000000000000000000000000000815250905060006002845161032291906138f5565b600261032e919061394f565b67ffffffffffffffff81111561034757610346612ead565b5b6040519080825280601f01601f1916602001820160405280156103795781602001600182028036833780820191505090505b5090507f3000000000000000000000000000000000000000000000000000000000000000816000815181106103b1576103b06139a5565b5b60200101907effffffffffffffffffffffffffffffffffffffffffffffffffffffffffffff1916908160001a9053507f780000000000000000000000000000000000000000000000000000000000000081600181518110610415576104146139a5565b5b60200101907effffffffffffffffffffffffffffffffffffffffffffffffffffffffffffff1916908160001a90535060005b84518110156105c557826004868381518110610466576104656139a5565b5b602001015160f81c60f81b7effffffffffffffffffffffffffffffffffffffffffffffffffffffffffffff1916901c60f81c60ff16815181106104ac576104ab6139a5565b5b602001015160f81c60f81b826002836104c591906138f5565b60026104d1919061394f565b815181106104e2576104e16139a5565b5b60200101907effffffffffffffffffffffffffffffffffffffffffffffffffffffffffffff1916908160001a90535082600f60f81b86838151811061052a576105296139a5565b5b602001015160f81c60f81b1660f81c60ff168151811061054d5761054c6139a5565b5b602001015160f81c60f81b8260028361056691906138f5565b6003610572919061394f565b81518110610583576105826139a5565b5b60200101907effffffffffffffffffffffffffffffffffffffffffffffffffffffffffffff1916908160001a90535080806105bd906139d4565b915050610447565b508092505050919050565b6000806060600060606000606060011515600160008b73ffffffffffffffffffffffffffffffffffffffff1673ffffffffffffffffffffffffffffffffffffffff16815260200190815260200160002060000160009054906101000a900460ff16151514806106bb57506001600360008a73ffffffffffffffffffffffffffffffffffffffff1673ffffffffffffffffffffffffffffffffffffffff16815260200190815260200160002060008b73ffffffffffffffffffffffffffffffffffffffff1673ffffffffffffffffffffffffffffffffffffffff16815260200190815260200160002054145b6106fa576040517f08c379a00000000000000000000000000000000000000000000000000000000081526004016106f190613a68565b60405180910390fd5b600160008973ffffffffffffffffffffffffffffffffffffffff1673ffffffffffffffffffffffffffffffffffffffff16815260200190815260200160002060000160009054906101000a900460ff169650600160008973ffffffffffffffffffffffffffffffffffffffff1673ffffffffffffffffffffffffffffffffffffffff16815260200190815260200160002060000160019054906101000a900473ffffffffffffffffffffffffffffffffffffffff169550600160008973ffffffffffffffffffffffffffffffffffffffff1673ffffffffffffffffffffffffffffffffffffffff16815260200190815260200160002060010180546107fe90613ab7565b80601f016020809104026020016040519081016040528092919081815260200182805461082a90613ab7565b80156108775780601f1061084c57610100808354040283529160200191610877565b820191906000526020600020905b81548152906001019060200180831161085a57829003601f168201915b50505050509450600160008973ffffffffffffffffffffffffffffffffffffffff1673ffffffffffffffffffffffffffffffffffffffff16815260200190815260200160002060020160009054906101000a900463ffffffff169350600160008973ffffffffffffffffffffffffffffffffffffffff1673ffffffffffffffffffffffffffffffffffffffff168152602001908152602001600020600301805461092090613ab7565b80601f016020809104026020016040519081016040528092919081815260200182805461094c90613ab7565b80156109995780601f1061096e57610100808354040283529160200191610999565b820191906000526020600020905b81548152906001019060200180831161097c57829003601f168201915b50505050509250600160008973ffffffffffffffffffffffffffffffffffffffff1673ffffffffffffffffffffffffffffffffffffffff16815260200190815260200160002060040160009054906101000a900473ffffffffffffffffffffffffffffffffffffffff169150600160008973ffffffffffffffffffffffffffffffffffffffff1673ffffffffffffffffffffffffffffffffffffffff168152602001908152602001600020600501805480602002602001604051908101604052809291908181526020016000905b82821015610b13578382906000526020600020018054610a8690613ab7565b80601f0160208091040260200160405190810160405280929190818152602001828054610ab290613ab7565b8015610aff5780601f10610ad457610100808354040283529160200191610aff565b820191906000526020600020905b815481529060010190602001808311610ae257829003601f168201915b505050505081526020019060010190610a67565b50505050905092959891949750929550565b600115156000803373ffffffffffffffffffffffffffffffffffffffff1673ffffffffffffffffffffffffffffffffffffffff16815260200190815260200160002060000160009054906101000a900460ff16151514610bba576040517f08c379a0000000000000000000000000000000000000000000000000000000008152600401610bb190613b34565b60405180910390fd5b600554341015610bff576040517f08c379a0000000000000000000000000000000000000000000000000000000008152600401610bf690613ba0565b60405180910390fd5b60001515600160008873ffffffffffffffffffffffffffffffffffffffff1673ffffffffffffffffffffffffffffffffffffffff16815260200190815260200160002060000160009054906101000a900460ff16151514610c95576040517f08c379a0000000000000000000000000000000000000000000000000000000008152600401610c8c90613c0c565b60405180910390fd5b6040518060e0016040528088151581526020018773ffffffffffffffffffffffffffffffffffffffff1681526020018681526020018563ffffffff1681526020018481526020018373ffffffffffffffffffffffffffffffffffffffff16815260200182815250600160008873ffffffffffffffffffffffffffffffffffffffff1673ffffffffffffffffffffffffffffffffffffffff16815260200190815260200160002060008201518160000160006101000a81548160ff02191690831515021790555060208201518160000160016101000a81548173ffffffffffffffffffffffffffffffffffffffff021916908373ffffffffffffffffffffffffffffffffffffffff1602179055506040820151816001019081610db79190613dd8565b5060608201518160020160006101000a81548163ffffffff021916908363ffffffff1602179055506080820151816003019081610df49190613dd8565b5060a08201518160040160006101000a81548173ffffffffffffffffffffffffffffffffffffffff021916908373ffffffffffffffffffffffffffffffffffffffff16021790555060c0820151816005019080519060200190610e58929190612da4565b509050507ff426af7bbaad7fa53d53cc9eed882319a2e3c04913923e0a7283d6747cc2949b3387604051610e8d929190613eaa565b60405180910390a150505050505050565b60606000606060006060808760011515600160008373ffffffffffffffffffffffffffffffffffffffff1673ffffffffffffffffffffffffffffffffffffffff16815260200190815260200160002060000160009054906101000a900460ff16151514610f40576040517f08c379a0000000000000000000000000000000000000000000000000000000008152600401610f3790613f1f565b60405180910390fd5b600260008973ffffffffffffffffffffffffffffffffffffffff1673ffffffffffffffffffffffffffffffffffffffff16815260200190815260200160002060008a73ffffffffffffffffffffffffffffffffffffffff1673ffffffffffffffffffffffffffffffffffffffff1681526020019081526020016000206000016001018054610fcd90613ab7565b80601f0160208091040260200160405190810160405280929190818152602001828054610ff990613ab7565b80156110465780601f1061101b57610100808354040283529160200191611046565b820191906000526020600020905b81548152906001019060200180831161102957829003601f168201915b50505050509650600260008973ffffffffffffffffffffffffffffffffffffffff1673ffffffffffffffffffffffffffffffffffffffff16815260200190815260200160002060008a73ffffffffffffffffffffffffffffffffffffffff1673ffffffffffffffffffffffffffffffffffffffff16815260200190815260200160002060000160000160019054906101000a900473ffffffffffffffffffffffffffffffffffffffff169550600260008973ffffffffffffffffffffffffffffffffffffffff1673ffffffffffffffffffffffffffffffffffffffff16815260200190815260200160002060008a73ffffffffffffffffffffffffffffffffffffffff1673ffffffffffffffffffffffffffffffffffffffff168152602001908152602001600020600301600101805461117f90613ab7565b80601f01602080910402602001604051908101604052809291908181526020018280546111ab90613ab7565b80156111f85780601f106111cd576101008083540402835291602001916111f8565b820191906000526020600020905b8154815290600101906020018083116111db57829003601f168201915b50505050509450600260008973ffffffffffffffffffffffffffffffffffffffff1673ffffffffffffffffffffffffffffffffffffffff16815260200190815260200160002060008a73ffffffffffffffffffffffffffffffffffffffff1673ffffffffffffffffffffffffffffffffffffffff16815260200190815260200160002060030160000160019054906101000a900473ffffffffffffffffffffffffffffffffffffffff169350600260008973ffffffffffffffffffffffffffffffffffffffff1673ffffffffffffffffffffffffffffffffffffffff16815260200190815260200160002060008a73ffffffffffffffffffffffffffffffffffffffff1673ffffffffffffffffffffffffffffffffffffffff168152602001908152602001600020600901600001805461133190613ab7565b80601f016020809104026020016040519081016040528092919081815260200182805461135d90613ab7565b80156113aa5780601f1061137f576101008083540402835291602001916113aa565b820191906000526020600020905b81548152906001019060200180831161138d57829003601f168201915b50505050509250600260008973ffffffffffffffffffffffffffffffffffffffff1673ffffffffffffffffffffffffffffffffffffffff16815260200190815260200160002060008a73ffffffffffffffffffffffffffffffffffffffff1673ffffffffffffffffffffffffffffffffffffffff168152602001908152602001600020600a01805480602002602001604051908101604052809291908181526020016000905b828210156114fc57838290600052602060002001805461146f90613ab7565b80601f016020809104026020016040519081016040528092919081815260200182805461149b90613ab7565b80156114e85780601f106114bd576101008083540402835291602001916114e8565b820191906000526020600020905b8154815290600101906020018083116114cb57829003601f168201915b505050505081526020019060010190611450565b505050509150509295509295509295565b6060611537826040516020016115239190613f87565b6040516020818303038152906040526102d6565b9050919050565b60011515600160008573ffffffffffffffffffffffffffffffffffffffff1673ffffffffffffffffffffffffffffffffffffffff16815260200190815260200160002060000160009054906101000a900460ff1615151461159e8461150d565b906115df576040517f08c379a00000000000000000000000000000000000000000000000000000000081526004016115d691906130a9565b60405180910390fd5b5080600360008573ffffffffffffffffffffffffffffffffffffffff1673ffffffffffffffffffffffffffffffffffffffff16815260200190815260200160002060008473ffffffffffffffffffffffffffffffffffffffff1673ffffffffffffffffffffffffffffffffffffffff168152602001908152602001600020819055507f19dd02d0615ff9058c55159271b51d3d8ead87b40cc392e6dbeca6483cff33338284604051611692929190613eaa565b60405180910390a1505050565b600460009054906101000a900473ffffffffffffffffffffffffffffffffffffffff1673ffffffffffffffffffffffffffffffffffffffff163373ffffffffffffffffffffffffffffffffffffffff161461172f576040517f08c379a000000000000000000000000000000000000000000000000000000000815260040161172690613fee565b60405180910390fd5b600554341015611774576040517f08c379a000000000000000000000000000000000000000000000000000000000815260040161176b90613ba0565b60405180910390fd5b600015156000808573ffffffffffffffffffffffffffffffffffffffff1673ffffffffffffffffffffffffffffffffffffffff16815260200190815260200160002060000160009054906101000a900460ff16151514611809576040517f08c379a00000000000000000000000000000000000000000000000000000000081526004016118009061405a565b60405180910390fd5b604051806080016040528085151581526020018473ffffffffffffffffffffffffffffffffffffffff168152602001838152602001828152506000808573ffffffffffffffffffffffffffffffffffffffff1673ffffffffffffffffffffffffffffffffffffffff16815260200190815260200160002060008201518160000160006101000a81548160ff02191690831515021790555060208201518160000160016101000a81548173ffffffffffffffffffffffffffffffffffffffff021916908373ffffffffffffffffffffffffffffffffffffffff16021790555060408201518160010190816118fc9190613dd8565b5060608201518160020190816119129190613dd8565b509050507f83c041d3aeb1dcb1f28cb15e20bdfee5ed1ca3740e487f9cab72e13eeb8595053384604051611947929190613eaa565b60405180910390a150505050565b600460009054906101000a900473ffffffffffffffffffffffffffffffffffffffff1681565b600080606080600460009054906101000a900473ffffffffffffffffffffffffffffffffffffffff1673ffffffffffffffffffffffffffffffffffffffff163373ffffffffffffffffffffffffffffffffffffffff1614611a11576040517f08c379a0000000000000000000000000000000000000000000000000000000008152600401611a0890613fee565b60405180910390fd5b6000808673ffffffffffffffffffffffffffffffffffffffff1673ffffffffffffffffffffffffffffffffffffffff16815260200190815260200160002060000160009054906101000a900460ff1693506000808673ffffffffffffffffffffffffffffffffffffffff1673ffffffffffffffffffffffffffffffffffffffff16815260200190815260200160002060000160019054906101000a900473ffffffffffffffffffffffffffffffffffffffff1692506000808673ffffffffffffffffffffffffffffffffffffffff1673ffffffffffffffffffffffffffffffffffffffff1681526020019081526020016000206001018054611b1290613ab7565b80601f0160208091040260200160405190810160405280929190818152602001828054611b3e90613ab7565b8015611b8b5780601f10611b6057610100808354040283529160200191611b8b565b820191906000526020600020905b815481529060010190602001808311611b6e57829003601f168201915b505050505091506000808673ffffffffffffffffffffffffffffffffffffffff1673ffffffffffffffffffffffffffffffffffffffff1681526020019081526020016000206002018054611bde90613ab7565b80601f0160208091040260200160405190810160405280929190818152602001828054611c0a90613ab7565b8015611c575780601f10611c2c57610100808354040283529160200191611c57565b820191906000526020600020905b815481529060010190602001808311611c3a57829003601f168201915b505050505090509193509193565b600115156000803373ffffffffffffffffffffffffffffffffffffffff1673ffffffffffffffffffffffffffffffffffffffff16815260200190815260200160002060000160009054906101000a900460ff16151514611cfa576040517f08c379a0000000000000000000000000000000000000000000000000000000008152600401611cf190613b34565b60405180910390fd5b6000808473ffffffffffffffffffffffffffffffffffffffff1673ffffffffffffffffffffffffffffffffffffffff168152602001908152602001600020600101600260008573ffffffffffffffffffffffffffffffffffffffff1673ffffffffffffffffffffffffffffffffffffffff16815260200190815260200160002060008473ffffffffffffffffffffffffffffffffffffffff1673ffffffffffffffffffffffffffffffffffffffff1681526020019081526020016000206000016001019081611dc991906140a5565b506000808473ffffffffffffffffffffffffffffffffffffffff1673ffffffffffffffffffffffffffffffffffffffff16815260200190815260200160002060000160019054906101000a900473ffffffffffffffffffffffffffffffffffffffff16600260008573ffffffffffffffffffffffffffffffffffffffff1673ffffffffffffffffffffffffffffffffffffffff16815260200190815260200160002060008473ffffffffffffffffffffffffffffffffffffffff1673ffffffffffffffffffffffffffffffffffffffff16815260200190815260200160002060000160000160016101000a81548173ffffffffffffffffffffffffffffffffffffffff021916908373ffffffffffffffffffffffffffffffffffffffff16021790555080600260008573ffffffffffffffffffffffffffffffffffffffff1673ffffffffffffffffffffffffffffffffffffffff16815260200190815260200160002060008473ffffffffffffffffffffffffffffffffffffffff1673ffffffffffffffffffffffffffffffffffffffff1681526020019081526020016000206009016000019081611f7b9190613dd8565b50600260008473ffffffffffffffffffffffffffffffffffffffff1673ffffffffffffffffffffffffffffffffffffffff16815260200190815260200160002060008373ffffffffffffffffffffffffffffffffffffffff1673ffffffffffffffffffffffffffffffffffffffff168152602001908152602001600020600a018190806001815401808255809150506001900390600052602060002001600090919091909150908161202d9190613dd8565b50600160008373ffffffffffffffffffffffffffffffffffffffff1673ffffffffffffffffffffffffffffffffffffffff168152602001908152602001600020600501819080600181540180825580915050600190039060005260206000200160009091909190915090816120a29190613dd8565b5061263c600260008573ffffffffffffffffffffffffffffffffffffffff1673ffffffffffffffffffffffffffffffffffffffff16815260200190815260200160002060008473ffffffffffffffffffffffffffffffffffffffff1673ffffffffffffffffffffffffffffffffffffffff16815260200190815260200160002060030160000160009054906101000a900460ff16600260008673ffffffffffffffffffffffffffffffffffffffff1673ffffffffffffffffffffffffffffffffffffffff16815260200190815260200160002060008573ffffffffffffffffffffffffffffffffffffffff1673ffffffffffffffffffffffffffffffffffffffff16815260200190815260200160002060030160000160019054906101000a900473ffffffffffffffffffffffffffffffffffffffff16600260008773ffffffffffffffffffffffffffffffffffffffff1673ffffffffffffffffffffffffffffffffffffffff16815260200190815260200160002060008673ffffffffffffffffffffffffffffffffffffffff1673ffffffffffffffffffffffffffffffffffffffff168152602001908152602001600020600301600101805461226690613ab7565b80601f016020809104026020016040519081016040528092919081815260200182805461229290613ab7565b80156122df5780601f106122b4576101008083540402835291602001916122df565b820191906000526020600020905b8154815290600101906020018083116122c257829003601f168201915b5050505050600260008873ffffffffffffffffffffffffffffffffffffffff1673ffffffffffffffffffffffffffffffffffffffff16815260200190815260200160002060008773ffffffffffffffffffffffffffffffffffffffff1673ffffffffffffffffffffffffffffffffffffffff16815260200190815260200160002060030160020160009054906101000a900463ffffffff16600260008973ffffffffffffffffffffffffffffffffffffffff1673ffffffffffffffffffffffffffffffffffffffff16815260200190815260200160002060008873ffffffffffffffffffffffffffffffffffffffff1673ffffffffffffffffffffffffffffffffffffffff168152602001908152602001600020600301600301805461240490613ab7565b80601f016020809104026020016040519081016040528092919081815260200182805461243090613ab7565b801561247d5780601f106124525761010080835404028352916020019161247d565b820191906000526020600020905b81548152906001019060200180831161246057829003601f168201915b5050505050600260008a73ffffffffffffffffffffffffffffffffffffffff1673ffffffffffffffffffffffffffffffffffffffff16815260200190815260200160002060008973ffffffffffffffffffffffffffffffffffffffff1673ffffffffffffffffffffffffffffffffffffffff16815260200190815260200160002060030160040160009054906101000a900473ffffffffffffffffffffffffffffffffffffffff16600160008a73ffffffffffffffffffffffffffffffffffffffff1673ffffffffffffffffffffffffffffffffffffffff168152602001908152602001600020600501805480602002602001604051908101604052809291908181526020016000905b828210156126335783829060005260206000200180546125a690613ab7565b80601f01602080910402602001604051908101604052809291908181526020018280546125d290613ab7565b801561261f5780601f106125f45761010080835404028352916020019161261f565b820191906000526020600020905b81548152906001019060200180831161260257829003601f168201915b505050505081526020019060010190612587565b50505050610b25565b7ffd09d3da0077a9ed9d4af05531b2f844c840c94c1e6535e3d2a09a6ae1aa9a52838360405161266d929190613eaa565b60405180910390a1505050565b6060600060606000606080600115156000803373ffffffffffffffffffffffffffffffffffffffff1673ffffffffffffffffffffffffffffffffffffffff16815260200190815260200160002060000160009054906101000a900460ff1615151461271a576040517f08c379a000000000000000000000000000000000000000000000000000000000815260040161271190613b34565b60405180910390fd5b6001600360008973ffffffffffffffffffffffffffffffffffffffff1673ffffffffffffffffffffffffffffffffffffffff16815260200190815260200160002060003373ffffffffffffffffffffffffffffffffffffffff1673ffffffffffffffffffffffffffffffffffffffff16815260200190815260200160002054146127d9576040517f08c379a00000000000000000000000000000000000000000000000000000000081526004016127d0906141d9565b60405180910390fd5b600260003373ffffffffffffffffffffffffffffffffffffffff1673ffffffffffffffffffffffffffffffffffffffff16815260200190815260200160002060008873ffffffffffffffffffffffffffffffffffffffff1673ffffffffffffffffffffffffffffffffffffffff168152602001908152602001600020600001600101805461286690613ab7565b80601f016020809104026020016040519081016040528092919081815260200182805461289290613ab7565b80156128df5780601f106128b4576101008083540402835291602001916128df565b820191906000526020600020905b8154815290600101906020018083116128c257829003601f168201915b50505050509550600260003373ffffffffffffffffffffffffffffffffffffffff1673ffffffffffffffffffffffffffffffffffffffff16815260200190815260200160002060008873ffffffffffffffffffffffffffffffffffffffff1673ffffffffffffffffffffffffffffffffffffffff16815260200190815260200160002060000160000160019054906101000a900473ffffffffffffffffffffffffffffffffffffffff169450600260003373ffffffffffffffffffffffffffffffffffffffff1673ffffffffffffffffffffffffffffffffffffffff16815260200190815260200160002060008873ffffffffffffffffffffffffffffffffffffffff1673ffffffffffffffffffffffffffffffffffffffff1681526020019081526020016000206003016001018054612a1890613ab7565b80601f0160208091040260200160405190810160405280929190818152602001828054612a4490613ab7565b8015612a915780601f10612a6657610100808354040283529160200191612a91565b820191906000526020600020905b815481529060010190602001808311612a7457829003601f168201915b50505050509350600260003373ffffffffffffffffffffffffffffffffffffffff1673ffffffffffffffffffffffffffffffffffffffff16815260200190815260200160002060008873ffffffffffffffffffffffffffffffffffffffff1673ffffffffffffffffffffffffffffffffffffffff16815260200190815260200160002060030160000160019054906101000a900473ffffffffffffffffffffffffffffffffffffffff169250600260003373ffffffffffffffffffffffffffffffffffffffff1673ffffffffffffffffffffffffffffffffffffffff16815260200190815260200160002060008873ffffffffffffffffffffffffffffffffffffffff1673ffffffffffffffffffffffffffffffffffffffff1681526020019081526020016000206009016000018054612bca90613ab7565b80601f0160208091040260200160405190810160405280929190818152602001828054612bf690613ab7565b8015612c435780601f10612c1857610100808354040283529160200191612c43565b820191906000526020600020905b815481529060010190602001808311612c2657829003601f168201915b50505050509150600260003373ffffffffffffffffffffffffffffffffffffffff1673ffffffffffffffffffffffffffffffffffffffff16815260200190815260200160002060008873ffffffffffffffffffffffffffffffffffffffff1673ffffffffffffffffffffffffffffffffffffffff168152602001908152602001600020600a01805480602002602001604051908101604052809291908181526020016000905b82821015612d95578382906000526020600020018054612d0890613ab7565b80601f0160208091040260200160405190810160405280929190818152602001828054612d3490613ab7565b8015612d815780601f10612d5657610100808354040283529160200191612d81565b820191906000526020600020905b815481529060010190602001808311612d6457829003601f168201915b505050505081526020019060010190612ce9565b50505050905091939550919395565b828054828255906000526020600020908101928215612dec579160200282015b82811115612deb578251829081612ddb9190613dd8565b5091602001919060010190612dc4565b5b509050612df99190612dfd565b5090565b5b80821115612e1d5760008181612e149190612e21565b50600101612dfe565b5090565b508054612e2d90613ab7565b6000825580601f10612e3f5750612e5e565b601f016020900490600052602060002090810190612e5d9190612e61565b5b50565b5b80821115612e7a576000816000905550600101612e62565b5090565b6000604051905090565b600080fd5b600080fd5b600080fd5b600080fd5b6000601f19601f8301169050919050565b7f4e487b7100000000000000000000000000000000000000000000000000000000600052604160045260246000fd5b612ee582612e9c565b810181811067ffffffffffffffff82111715612f0457612f03612ead565b5b80604052505050565b6000612f17612e7e565b9050612f238282612edc565b919050565b600067ffffffffffffffff821115612f4357612f42612ead565b5b612f4c82612e9c565b9050602081019050919050565b82818337600083830152505050565b6000612f7b612f7684612f28565b612f0d565b905082815260208101848484011115612f9757612f96612e97565b5b612fa2848285612f59565b509392505050565b600082601f830112612fbf57612fbe612e92565b5b8135612fcf848260208601612f68565b91505092915050565b600060208284031215612fee57612fed612e88565b5b600082013567ffffffffffffffff81111561300c5761300b612e8d565b5b61301884828501612faa565b91505092915050565b600081519050919050565b600082825260208201905092915050565b60005b8381101561305b578082015181840152602081019050613040565b8381111561306a576000848401525b50505050565b600061307b82613021565b613085818561302c565b935061309581856020860161303d565b61309e81612e9c565b840191505092915050565b600060208201905081810360008301526130c38184613070565b905092915050565b600073ffffffffffffffffffffffffffffffffffffffff82169050919050565b60006130f6826130cb565b9050919050565b613106816130eb565b811461311157600080fd5b50565b600081359050613123816130fd565b92915050565b600080604083850312156131405761313f612e88565b5b600061314e85828601613114565b925050602061315f85828601613114565b9150509250929050565b60008115159050919050565b61317e81613169565b82525050565b61318d816130eb565b82525050565b600063ffffffff82169050919050565b6131ac81613193565b82525050565b600081519050919050565b600082825260208201905092915050565b6000819050602082019050919050565b600082825260208201905092915050565b60006131fa82613021565b61320481856131de565b935061321481856020860161303d565b61321d81612e9c565b840191505092915050565b600061323483836131ef565b905092915050565b6000602082019050919050565b6000613254826131b2565b61325e81856131bd565b935083602082028501613270856131ce565b8060005b858110156132ac578484038952815161328d8582613228565b94506132988361323c565b925060208a01995050600181019050613274565b50829750879550505050505092915050565b600060e0820190506132d3600083018a613175565b6132e06020830189613184565b81810360408301526132f28188613070565b905061330160608301876131a3565b81810360808301526133138186613070565b905061332260a0830185613184565b81810360c08301526133348184613249565b905098975050505050505050565b61334b81613169565b811461335657600080fd5b50565b60008135905061336881613342565b92915050565b600067ffffffffffffffff82111561338957613388612ead565b5b61339282612e9c565b9050602081019050919050565b60006133b26133ad8461336e565b612f0d565b9050828152602081018484840111156133ce576133cd612e97565b5b6133d9848285612f59565b509392505050565b600082601f8301126133f6576133f5612e92565b5b813561340684826020860161339f565b91505092915050565b61341881613193565b811461342357600080fd5b50565b6000813590506134358161340f565b92915050565b600067ffffffffffffffff82111561345657613455612ead565b5b602082029050602081019050919050565b600080fd5b600061347f61347a8461343b565b612f0d565b905080838252602082019050602084028301858111156134a2576134a1613467565b5b835b818110156134e957803567ffffffffffffffff8111156134c7576134c6612e92565b5b8086016134d489826133e1565b855260208501945050506020810190506134a4565b5050509392505050565b600082601f83011261350857613507612e92565b5b813561351884826020860161346c565b91505092915050565b600080600080600080600060e0888a0312156135405761353f612e88565b5b600061354e8a828b01613359565b975050602061355f8a828b01613114565b965050604088013567ffffffffffffffff8111156135805761357f612e8d565b5b61358c8a828b016133e1565b955050606061359d8a828b01613426565b945050608088013567ffffffffffffffff8111156135be576135bd612e8d565b5b6135ca8a828b016133e1565b93505060a06135db8a828b01613114565b92505060c088013567ffffffffffffffff8111156135fc576135fb612e8d565b5b6136088a828b016134f3565b91505092959891949750929550565b600060c08201905081810360008301526136318189613070565b90506136406020830188613184565b81810360408301526136528187613070565b90506136616060830186613184565b81810360808301526136738185613070565b905081810360a08301526136878184613249565b9050979650505050505050565b6000602082840312156136aa576136a9612e88565b5b60006136b884828501613114565b91505092915050565b6000819050919050565b6136d4816136c1565b81146136df57600080fd5b50565b6000813590506136f1816136cb565b92915050565b6000806000606084860312156137105761370f612e88565b5b600061371e86828701613114565b935050602061372f86828701613114565b9250506040613740868287016136e2565b9150509250925092565b6000806000806080858703121561376457613763612e88565b5b600061377287828801613359565b945050602061378387828801613114565b935050604085013567ffffffffffffffff8111156137a4576137a3612e8d565b5b6137b0878288016133e1565b925050606085013567ffffffffffffffff8111156137d1576137d0612e8d565b5b6137dd878288016133e1565b91505092959194509250565b60006020820190506137fe6000830184613184565b92915050565b60006080820190506138196000830187613175565b6138266020830186613184565b81810360408301526138388185613070565b9050818103606083015261384c8184613070565b905095945050505050565b6000806000606084860312156138705761386f612e88565b5b600061387e86828701613114565b935050602061388f86828701613114565b925050604084013567ffffffffffffffff8111156138b0576138af612e8d565b5b6138bc868287016133e1565b9150509250925092565b7f4e487b7100000000000000000000000000000000000000000000000000000000600052601160045260246000fd5b6000613900826136c1565b915061390b836136c1565b9250817fffffffffffffffffffffffffffffffffffffffffffffffffffffffffffffffff0483118215151615613944576139436138c6565b5b828202905092915050565b600061395a826136c1565b9150613965836136c1565b9250827fffffffffffffffffffffffffffffffffffffffffffffffffffffffffffffffff0382111561399a576139996138c6565b5b828201905092915050565b7f4e487b7100000000000000000000000000000000000000000000000000000000600052603260045260246000fd5b60006139df826136c1565b91507fffffffffffffffffffffffffffffffffffffffffffffffffffffffffffffffff8203613a1157613a106138c6565b5b600182019050919050565b7f55736572206e6f74207265676973746572656400000000000000000000000000600082015250565b6000613a5260138361302c565b9150613a5d82613a1c565b602082019050919050565b60006020820190508181036000830152613a8181613a45565b9050919050565b7f4e487b7100000000000000000000000000000000000000000000000000000000600052602260045260246000fd5b60006002820490506001821680613acf57607f821691505b602082108103613ae257613ae1613a88565b5b50919050565b7f5245474953544552454420444f43544f5253204f4e4c59000000000000000000600082015250565b6000613b1e60178361302c565b9150613b2982613ae8565b602082019050919050565b60006020820190508181036000830152613b4d81613b11565b9050919050565b7f5061796d656e7420496e636f6d706c6574650000000000000000000000000000600082015250565b6000613b8a60128361302c565b9150613b9582613b54565b602082019050919050565b60006020820190508181036000830152613bb981613b7d565b9050919050565b7f50617469656e7420616c72656164792072656769737465726564000000000000600082015250565b6000613bf6601a8361302c565b9150613c0182613bc0565b602082019050919050565b60006020820190508181036000830152613c2581613be9565b9050919050565b60008190508160005260206000209050919050565b60006020601f8301049050919050565b600082821b905092915050565b600060088302613c8e7fffffffffffffffffffffffffffffffffffffffffffffffffffffffffffffffff82613c51565b613c988683613c51565b95508019841693508086168417925050509392505050565b6000819050919050565b6000613cd5613cd0613ccb846136c1565b613cb0565b6136c1565b9050919050565b6000819050919050565b613cef83613cba565b613d03613cfb82613cdc565b848454613c5e565b825550505050565b600090565b613d18613d0b565b613d23818484613ce6565b505050565b5b81811015613d4757613d3c600082613d10565b600181019050613d29565b5050565b601f821115613d8c57613d5d81613c2c565b613d6684613c41565b81016020851015613d75578190505b613d89613d8185613c41565b830182613d28565b50505b505050565b600082821c905092915050565b6000613daf60001984600802613d91565b1980831691505092915050565b6000613dc88383613d9e565b9150826002028217905092915050565b613de182613021565b67ffffffffffffffff811115613dfa57613df9612ead565b5b613e048254613ab7565b613e0f828285613d4b565b600060209050601f831160018114613e425760008415613e30578287015190505b613e3a8582613dbc565b865550613ea2565b601f198416613e5086613c2c565b60005b82811015613e7857848901518255600182019150602085019450602081019050613e53565b86831015613e955784890151613e91601f891682613d9e565b8355505b6001600288020188555050505b505050505050565b6000604082019050613ebf6000830185613184565b613ecc6020830184613184565b9392505050565b7f524547495354455245442050415449454e5453204f4e4c590000000000000000600082015250565b6000613f0960188361302c565b9150613f1482613ed3565b602082019050919050565b60006020820190508181036000830152613f3881613efc565b9050919050565b60008160601b9050919050565b6000613f5782613f3f565b9050919050565b6000613f6982613f4c565b9050919050565b613f81613f7c826130eb565b613f5e565b82525050565b6000613f938284613f70565b60148201915081905092915050565b7f4f4e4c592041444d494e20495320414c4c4f5745440000000000000000000000600082015250565b6000613fd860158361302c565b9150613fe382613fa2565b602082019050919050565b6000602082019050818103600083015261400781613fcb565b9050919050565b7f446f63746f7220616c7265616479207265676973746572656400000000000000600082015250565b600061404460198361302c565b915061404f8261400e565b602082019050919050565b6000602082019050818103600083015261407381614037565b9050919050565b60008154905061408981613ab7565b9050919050565b60008190508160005260206000209050919050565b8181036140b357505061418b565b6140bc8261407a565b67ffffffffffffffff8111156140d5576140d4612ead565b5b6140df8254613ab7565b6140ea828285613d4b565b6000601f8311600181146141195760008415614107578287015490505b6141118582613dbc565b865550614184565b601f19841661412787614090565b965061413286613c2c565b60005b8281101561415a57848901548255600182019150600185019450602081019050614135565b868310156141775784890154614173601f891682613d9e565b8355505b6001600288020188555050505b5050505050505b565b7f445220414343455353204e4f54204752414e5445440000000000000000000000600082015250565b60006141c360158361302c565b91506141ce8261418d565b602082019050919050565b600060208201905081810360008301526141f2816141b6565b905091905056fea2646970667358221220bf1030e515c7c52b5ae23719689d9e72af5af7074afd8da109600a5150bb2eb564736f6c634300080f0033",
  "immutableReferences": {},
  "source": "// SPDX-License-Identifier: GPL-3.0\r\npragma solidity >=0.7.0 <0.9.0;\r\npragma experimental ABIEncoderV2;\r\n\r\ncontract MedicalChain {\r\n    mapping(address => Doctor) DoctorInfo;\r\n    mapping(address => Patient) PatientInfo;\r\n    mapping(address => mapping(address => HealthRecords)) HealthInfo;\r\n    mapping(address => mapping(address => uint256)) private patientToDoctor;\r\n\r\n    event DrDetailsAdded(address admin, address doctor);\r\n    event PatDetailsAdded(address doctor, address patient);\r\n    event HealthRecordsAdded(address dr, address patient);\r\n    event GrantAccessToDr(address dr, address patient);\r\n\r\n    modifier OnlyOwner() {\r\n        require(msg.sender == owner, \"ONLY ADMIN IS ALLOWED\");\r\n        _;\r\n    }\r\n\r\n    modifier Only_Doctors() {\r\n        require(\r\n            DoctorInfo[msg.sender].state == true,\r\n            \"REGISTERED DOCTORS ONLY\"\r\n        );\r\n        _;\r\n    }\r\n\r\n    modifier Only_Patients(address sender) {\r\n        require(PatientInfo[sender].state == true, \"REGISTERED PATIENTS ONLY\");\r\n        _;\r\n    }\r\n\r\n    address public owner;\r\n    uint256 amt = 1e15;\r\n\r\n    constructor() {\r\n        owner = msg.sender;\r\n    }\r\n\r\n    struct Doctor {\r\n        bool state; // To check whether the doctor is registered or not\r\n        address dr_Id; // Address of doctor\r\n        string d_Name; // Name of doctor\r\n        string d_speciality;\r\n    }\r\n\r\n    struct Patient {\r\n        bool state; // To check whether patient is genuine\r\n        address pa_Id; // Address of registered patient\r\n        string pa_Name; // Name of Patient\r\n        uint32 pa_Age; // Age of Patient\r\n        string pa_BloodGroup; // Blood group of the patient\r\n        address hospital; // Hospital maintaining health records of the patient\r\n        string[] pa_Records; // Used to store the prescription records of corresponding patients\r\n    }\r\n\r\n    struct PrescriptionDetails {\r\n        string prescription; // prescription details of patient given by doctor\r\n    }\r\n\r\n    struct HealthRecords {\r\n        Doctor d;\r\n        Patient p;\r\n        PrescriptionDetails pre;\r\n        string[] records; // Used to store prescription records of patient w.r.t doctor\r\n    }\r\n\r\n    // Function to add Doctor details, done by admin only\r\n    function setDoctorDetails(\r\n        bool _state,\r\n        address _drId,\r\n        string memory _name,\r\n        string memory _speciality\r\n    ) external payable OnlyOwner {\r\n        require(msg.value >= amt, \"Payment Incomplete\");\r\n        require(DoctorInfo[_drId].state == false, \"Doctor already registered\");\r\n        DoctorInfo[_drId] = Doctor(_state, _drId, _name, _speciality);\r\n        emit DrDetailsAdded(msg.sender, _drId);\r\n    }\r\n\r\n    // Function to get Doctor details for admin\r\n    function getDoctorDetails(address _Id)\r\n        public\r\n        view\r\n        OnlyOwner\r\n        returns (\r\n            bool _state,\r\n            address _drId,\r\n            string memory _name,\r\n            string memory _speciality\r\n        )\r\n    {\r\n        _state = DoctorInfo[_Id].state;\r\n        _drId = DoctorInfo[_Id].dr_Id;\r\n        _name = DoctorInfo[_Id].d_Name;\r\n        _speciality = DoctorInfo[_Id].d_speciality;\r\n    }\r\n\r\n    // Function to add HealthRecords of patients, done by registered doctors only\r\n    function setHealthRecordsDetails(\r\n        address sender,\r\n        address _paId,\r\n        string memory _prescription\r\n    ) public Only_Doctors {\r\n        HealthInfo[sender][_paId].d.d_Name = DoctorInfo[sender].d_Name;\r\n        HealthInfo[sender][_paId].d.dr_Id = DoctorInfo[sender].dr_Id;\r\n        // HealthInfo[sender][_paId].p.state = true;\r\n        // HealthInfo[sender][_paId].p.pa_Id = _paId;\r\n        HealthInfo[sender][_paId].pre.prescription = _prescription;\r\n        HealthInfo[sender][_paId].records.push(_prescription);\r\n        PatientInfo[_paId].pa_Records.push(_prescription);\r\n        setPatientDetails(\r\n            HealthInfo[sender][_paId].p.state,\r\n            HealthInfo[sender][_paId].p.pa_Id,\r\n            HealthInfo[sender][_paId].p.pa_Name,\r\n            HealthInfo[sender][_paId].p.pa_Age,\r\n            HealthInfo[sender][_paId].p.pa_BloodGroup,\r\n            HealthInfo[sender][_paId].p.hospital,\r\n            PatientInfo[_paId].pa_Records\r\n        );\r\n        emit HealthRecordsAdded(sender, _paId);\r\n    }\r\n\r\n    // Function to add Patient details, done by registered doctors only\r\n    function setPatientDetails(\r\n        bool _state,\r\n        address _paId,\r\n        string memory _paName,\r\n        uint32 _paAge,\r\n        string memory _paBloodGroup,\r\n        address _hospital,\r\n        string[] memory _paRecords\r\n    ) public payable Only_Doctors {\r\n        require(msg.value >= amt, \"Payment Incomplete\");\r\n        require(\r\n            PatientInfo[_paId].state == false,\r\n            \"Patient already registered\"\r\n        );\r\n        PatientInfo[_paId] = Patient(\r\n            _state,\r\n            _paId,\r\n            _paName,\r\n            _paAge,\r\n            _paBloodGroup,\r\n            _hospital,\r\n            _paRecords\r\n        );\r\n        emit PatDetailsAdded(msg.sender, _paId);\r\n    }\r\n\r\n    function toString(address account) public pure returns (string memory) {\r\n        return toString1(abi.encodePacked(account));\r\n    }\r\n\r\n    function toString1(bytes memory data) public pure returns (string memory) {\r\n        bytes memory alphabet = \"0123456789abcdef\";\r\n\r\n        bytes memory str = new bytes(2 + data.length * 2);\r\n        str[0] = \"0\";\r\n        str[1] = \"x\";\r\n        for (uint256 i = 0; i < data.length; i++) {\r\n            str[2 + i * 2] = alphabet[uint256(uint8(data[i] >> 4))];\r\n            str[3 + i * 2] = alphabet[uint256(uint8(data[i] & 0x0f))];\r\n        }\r\n        return string(str);\r\n    }\r\n\r\n    // Function to get Patient details\r\n    function getPatientDetails(address sender, address _Id)\r\n        public\r\n        view\r\n        returns (\r\n            bool _state,\r\n            address _paId,\r\n            string memory _paName,\r\n            uint32 _paAge,\r\n            string memory _paBloodGroup,\r\n            address _hospital,\r\n            string[] memory _paRecords\r\n        )\r\n    {\r\n        require(\r\n            PatientInfo[sender].state == true ||\r\n                patientToDoctor[_Id][sender] == 1,\r\n            \"User not registered\"\r\n            // string.concat(\"Sender - \",toString(sender),\"IDPatient - \",toString(_Id))\r\n        );\r\n        _state = PatientInfo[_Id].state;\r\n        _paId = PatientInfo[_Id].pa_Id;\r\n        _paName = PatientInfo[_Id].pa_Name;\r\n        _paAge = PatientInfo[_Id].pa_Age;\r\n        _paBloodGroup = PatientInfo[_Id].pa_BloodGroup;\r\n        _hospital = PatientInfo[_Id].hospital;\r\n        _paRecords = PatientInfo[_Id].pa_Records;\r\n    }\r\n\r\n    // Function to get HealthRecords only for registered patients\r\n    function getHealthRecords(address sender, address _dr)\r\n        public\r\n        view\r\n        Only_Patients(sender)\r\n        returns (\r\n            string memory _drName,\r\n            address _drId,\r\n            string memory _paName,\r\n            address _paId,\r\n            string memory _prescription,\r\n            string[] memory _rec\r\n        )\r\n    {\r\n        _drName = HealthInfo[_dr][sender].d.d_Name;\r\n        _drId = HealthInfo[_dr][sender].d.dr_Id;\r\n        _paName = HealthInfo[_dr][sender].p.pa_Name;\r\n        _paId = HealthInfo[_dr][sender].p.pa_Id;\r\n        _prescription = HealthInfo[_dr][sender].pre.prescription;\r\n        _rec = HealthInfo[_dr][sender].records;\r\n    }\r\n\r\n    // Function to grant access to doctor ,so that the doctors with access can view the corresponding patients HealthRecords\r\n    function grantAccessToDoctor(\r\n        address sender,\r\n        address doctor_id,\r\n        uint256 access\r\n    ) public {\r\n        require(PatientInfo[sender].state == true, toString(sender));\r\n        patientToDoctor[sender][doctor_id] = access;\r\n        emit GrantAccessToDr(doctor_id, sender);\r\n    }\r\n\r\n    // Function to get HealthRecords only for registered Doctors\r\n    function getHealthRecordsForDoctor(address _paId)\r\n        public\r\n        view\r\n        Only_Doctors\r\n        returns (\r\n            string memory _drName,\r\n            address _drId,\r\n            string memory _paName,\r\n            address _pId,\r\n            string memory _prescription,\r\n            string[] memory _rec\r\n        )\r\n    {\r\n        require(\r\n            patientToDoctor[_paId][msg.sender] == 1,\r\n            \"DR ACCESS NOT GRANTED\"\r\n        );\r\n        _drName = HealthInfo[msg.sender][_paId].d.d_Name;\r\n        _drId = HealthInfo[msg.sender][_paId].d.dr_Id;\r\n        _paName = HealthInfo[msg.sender][_paId].p.pa_Name;\r\n        _pId = HealthInfo[msg.sender][_paId].p.pa_Id;\r\n        _prescription = HealthInfo[msg.sender][_paId].pre.prescription;\r\n        _rec = HealthInfo[msg.sender][_paId].records;\r\n    }\r\n}\r\n",
  "sourcePath": "D:\\BTP\\Demo\\Demo3\\contracts\\MedicalChain.sol",
  "compiler": {
    "name": "solc",
    "version": "0.8.15+commit.e14f2714.Emscripten.clang"
  },
  "schemaVersion": "3.4.8",
  "updatedAt": "2022-09-06T18:19:01.438Z",
  "networkType": "ethereum",
  "devdoc": {
    "kind": "dev",
    "methods": {},
    "version": 1
  },
  "userdoc": {
    "kind": "user",
    "methods": {},
    "version": 1
  }
}