{
  "contractName": "MedicalChain",
  "abi": [
    {
      "inputs": [],
      "stateMutability": "nonpayable",
      "type": "constructor"
    },
    {
      "anonymous": false,
      "inputs": [
        {
          "indexed": false,
          "internalType": "address",
          "name": "admin",
          "type": "address"
        },
        {
          "indexed": false,
          "internalType": "address",
          "name": "doctor",
          "type": "address"
        }
      ],
      "name": "DrDetailsAdded",
      "type": "event"
    },
    {
      "anonymous": false,
      "inputs": [
        {
          "indexed": false,
          "internalType": "address",
          "name": "dr",
          "type": "address"
        },
        {
          "indexed": false,
          "internalType": "address",
          "name": "patient",
          "type": "address"
        }
      ],
      "name": "GrantAccessToDr",
      "type": "event"
    },
    {
      "anonymous": false,
      "inputs": [
        {
          "indexed": false,
          "internalType": "address",
          "name": "dr",
          "type": "address"
        },
        {
          "indexed": false,
          "internalType": "address",
          "name": "patient",
          "type": "address"
        }
      ],
      "name": "HealthRecordsAdded",
      "type": "event"
    },
    {
      "anonymous": false,
      "inputs": [
        {
          "indexed": false,
          "internalType": "address",
          "name": "doctor",
          "type": "address"
        },
        {
          "indexed": false,
          "internalType": "address",
          "name": "patient",
          "type": "address"
        }
      ],
      "name": "PatDetailsAdded",
      "type": "event"
    },
    {
      "inputs": [],
      "name": "owner",
      "outputs": [
        {
          "internalType": "address",
          "name": "",
          "type": "address"
        }
      ],
      "stateMutability": "view",
      "type": "function"
    },
    {
      "inputs": [
        {
          "internalType": "bool",
          "name": "_state",
          "type": "bool"
        },
        {
          "internalType": "address",
          "name": "_drId",
          "type": "address"
        },
        {
          "internalType": "string",
          "name": "_name",
          "type": "string"
        }
      ],
      "name": "setDoctorDetails",
      "outputs": [],
      "stateMutability": "payable",
      "type": "function"
    },
    {
      "inputs": [
        {
          "internalType": "address",
          "name": "_Id",
          "type": "address"
        }
      ],
      "name": "getDoctorDetails",
      "outputs": [
        {
          "internalType": "bool",
          "name": "_state",
          "type": "bool"
        },
        {
          "internalType": "address",
          "name": "_drId",
          "type": "address"
        },
        {
          "internalType": "string",
          "name": "_name",
          "type": "string"
        }
      ],
      "stateMutability": "view",
      "type": "function"
    },
    {
      "inputs": [
        {
          "internalType": "string",
          "name": "_paName",
          "type": "string"
        },
        {
          "internalType": "address",
          "name": "_paId",
          "type": "address"
        },
        {
          "internalType": "string",
          "name": "_prescription",
          "type": "string"
        }
      ],
      "name": "setHealthRecordsDetails",
      "outputs": [],
      "stateMutability": "nonpayable",
      "type": "function"
    },
    {
      "inputs": [
        {
          "internalType": "bool",
          "name": "_state",
          "type": "bool"
        },
        {
          "internalType": "address",
          "name": "_paId",
          "type": "address"
        },
        {
          "internalType": "string",
          "name": "_paName",
          "type": "string"
        },
        {
          "internalType": "string[]",
          "name": "_paRecords",
          "type": "string[]"
        }
      ],
      "name": "setPatientDetails",
      "outputs": [],
      "stateMutability": "payable",
      "type": "function"
    },
    {
      "inputs": [
        {
          "internalType": "address",
          "name": "account",
          "type": "address"
        }
      ],
      "name": "toString",
      "outputs": [
        {
          "internalType": "string",
          "name": "",
          "type": "string"
        }
      ],
      "stateMutability": "pure",
      "type": "function"
    },
    {
      "inputs": [
        {
          "internalType": "bytes",
          "name": "data",
          "type": "bytes"
        }
      ],
      "name": "toString1",
      "outputs": [
        {
          "internalType": "string",
          "name": "",
          "type": "string"
        }
      ],
      "stateMutability": "pure",
      "type": "function"
    },
    {
      "inputs": [
        {
          "internalType": "address",
          "name": "sender",
          "type": "address"
        },
        {
          "internalType": "address",
          "name": "_Id",
          "type": "address"
        }
      ],
      "name": "getPatientDetails",
      "outputs": [
        {
          "internalType": "bool",
          "name": "_state",
          "type": "bool"
        },
        {
          "internalType": "address",
          "name": "_paId",
          "type": "address"
        },
        {
          "internalType": "string",
          "name": "_paName",
          "type": "string"
        },
        {
          "internalType": "string[]",
          "name": "_paRecords",
          "type": "string[]"
        }
      ],
      "stateMutability": "view",
      "type": "function"
    },
    {
      "inputs": [
        {
          "internalType": "address",
          "name": "sender",
          "type": "address"
        },
        {
          "internalType": "address",
          "name": "_dr",
          "type": "address"
        }
      ],
      "name": "getHealthRecords",
      "outputs": [
        {
          "internalType": "string",
          "name": "_drName",
          "type": "string"
        },
        {
          "internalType": "address",
          "name": "_drId",
          "type": "address"
        },
        {
          "internalType": "string",
          "name": "_paName",
          "type": "string"
        },
        {
          "internalType": "address",
          "name": "_paId",
          "type": "address"
        },
        {
          "internalType": "string",
          "name": "_prescription",
          "type": "string"
        },
        {
          "internalType": "string[]",
          "name": "_rec",
          "type": "string[]"
        }
      ],
      "stateMutability": "view",
      "type": "function"
    },
    {
      "inputs": [
        {
          "internalType": "address",
          "name": "sender",
          "type": "address"
        },
        {
          "internalType": "address",
          "name": "doctor_id",
          "type": "address"
        },
        {
          "internalType": "uint256",
          "name": "access",
          "type": "uint256"
        }
      ],
      "name": "grantAccessToDoctor",
      "outputs": [],
      "stateMutability": "nonpayable",
      "type": "function"
    },
    {
      "inputs": [
        {
          "internalType": "address",
          "name": "_paId",
          "type": "address"
        }
      ],
      "name": "getHealthRecordsForDoctor",
      "outputs": [
        {
          "internalType": "string",
          "name": "_drName",
          "type": "string"
        },
        {
          "internalType": "address",
          "name": "_drId",
          "type": "address"
        },
        {
          "internalType": "string",
          "name": "_paName",
          "type": "string"
        },
        {
          "internalType": "address",
          "name": "_pId",
          "type": "address"
        },
        {
          "internalType": "string",
          "name": "_prescription",
          "type": "string"
        },
        {
          "internalType": "string[]",
          "name": "_rec",
          "type": "string[]"
        }
      ],
      "stateMutability": "view",
      "type": "function"
    }
  ],
  "bytecode": "0x6080604052662386f26fc1000060055534801561001b57600080fd5b5033600460006101000a81548173ffffffffffffffffffffffffffffffffffffffff021916908373ffffffffffffffffffffffffffffffffffffffff160217905550613b478061006c6000396000f3fe60806040526004361061009b5760003560e01c806371f61bfa1161006457806371f61bfa146101c557806380cfed0e146101e15780638da5cb5b146101fd578063bab90dbd14610228578063c88f22a914610267578063f83009ba146102905761009b565b806211802a146100a05780630e9a705a146100dd57806356009c6b1461011d57806356ca623e1461015f578063579e74ca1461019c575b600080fd5b3480156100ac57600080fd5b506100c760048036038101906100c29190612b30565b6102d2565b6040516100d49190612c01565b60405180910390f35b3480156100e957600080fd5b5061010460048036038101906100ff9190612c81565b6105cc565b6040516101149493929190612df7565b60405180910390f35b34801561012957600080fd5b50610144600480360381019061013f9190612c81565b61099c565b60405161015696959493929190612e4a565b60405180910390f35b34801561016b57600080fd5b5061018660048036038101906101819190612ec7565b61100b565b6040516101939190612c01565b60405180910390f35b3480156101a857600080fd5b506101c360048036038101906101be9190612f2a565b61103c565b005b6101df60048036038101906101da9190613130565b61119d565b005b6101fb60048036038101906101f691906131cf565b6113cb565b005b34801561020957600080fd5b506102126115cf565b60405161021f919061323e565b60405180910390f35b34801561023457600080fd5b5061024f600480360381019061024a9190612ec7565b6115f5565b60405161025e93929190613259565b60405180910390f35b34801561027357600080fd5b5061028e60048036038101906102899190613297565b611812565b005b34801561029c57600080fd5b506102b760048036038101906102b29190612ec7565b6121d2565b6040516102c996959493929190612e4a565b60405180910390f35b606060006040518060400160405280601081526020017f3031323334353637383961626364656600000000000000000000000000000000815250905060006002845161031e9190613351565b600261032a91906133ab565b67ffffffffffffffff81111561034357610342612a05565b5b6040519080825280601f01601f1916602001820160405280156103755781602001600182028036833780820191505090505b5090507f3000000000000000000000000000000000000000000000000000000000000000816000815181106103ad576103ac613401565b5b60200101907effffffffffffffffffffffffffffffffffffffffffffffffffffffffffffff1916908160001a9053507f78000000000000000000000000000000000000000000000000000000000000008160018151811061041157610410613401565b5b60200101907effffffffffffffffffffffffffffffffffffffffffffffffffffffffffffff1916908160001a90535060005b84518110156105c15782600486838151811061046257610461613401565b5b602001015160f81c60f81b7effffffffffffffffffffffffffffffffffffffffffffffffffffffffffffff1916901c60f81c60ff16815181106104a8576104a7613401565b5b602001015160f81c60f81b826002836104c19190613351565b60026104cd91906133ab565b815181106104de576104dd613401565b5b60200101907effffffffffffffffffffffffffffffffffffffffffffffffffffffffffffff1916908160001a90535082600f60f81b86838151811061052657610525613401565b5b602001015160f81c60f81b1660f81c60ff168151811061054957610548613401565b5b602001015160f81c60f81b826002836105629190613351565b600361056e91906133ab565b8151811061057f5761057e613401565b5b60200101907effffffffffffffffffffffffffffffffffffffffffffffffffffffffffffff1916908160001a90535080806105b990613430565b915050610443565b508092505050919050565b60008060608060011515600160008873ffffffffffffffffffffffffffffffffffffffff1673ffffffffffffffffffffffffffffffffffffffff16815260200190815260200160002060000160009054906101000a900460ff16151514806106b057506001600360008773ffffffffffffffffffffffffffffffffffffffff1673ffffffffffffffffffffffffffffffffffffffff16815260200190815260200160002060008873ffffffffffffffffffffffffffffffffffffffff1673ffffffffffffffffffffffffffffffffffffffff16815260200190815260200160002054145b6106b98761100b565b906106fa576040517f08c379a00000000000000000000000000000000000000000000000000000000081526004016106f19190612c01565b60405180910390fd5b50600160008673ffffffffffffffffffffffffffffffffffffffff1673ffffffffffffffffffffffffffffffffffffffff16815260200190815260200160002060000160009054906101000a900460ff169350600160008673ffffffffffffffffffffffffffffffffffffffff1673ffffffffffffffffffffffffffffffffffffffff16815260200190815260200160002060000160019054906101000a900473ffffffffffffffffffffffffffffffffffffffff169250600160008673ffffffffffffffffffffffffffffffffffffffff1673ffffffffffffffffffffffffffffffffffffffff16815260200190815260200160002060010180546107ff906134a7565b80601f016020809104026020016040519081016040528092919081815260200182805461082b906134a7565b80156108785780601f1061084d57610100808354040283529160200191610878565b820191906000526020600020905b81548152906001019060200180831161085b57829003601f168201915b50505050509150600160008673ffffffffffffffffffffffffffffffffffffffff1673ffffffffffffffffffffffffffffffffffffffff168152602001908152602001600020600201805480602002602001604051908101604052809291908181526020016000905b8282101561098d578382906000526020600020018054610900906134a7565b80601f016020809104026020016040519081016040528092919081815260200182805461092c906134a7565b80156109795780601f1061094e57610100808354040283529160200191610979565b820191906000526020600020905b81548152906001019060200180831161095c57829003601f168201915b5050505050815260200190600101906108e1565b50505050905092959194509250565b60606000606060006060808760011515600160008373ffffffffffffffffffffffffffffffffffffffff1673ffffffffffffffffffffffffffffffffffffffff16815260200190815260200160002060000160009054906101000a900460ff16151514610a3e576040517f08c379a0000000000000000000000000000000000000000000000000000000008152600401610a3590613524565b60405180910390fd5b600260008973ffffffffffffffffffffffffffffffffffffffff1673ffffffffffffffffffffffffffffffffffffffff16815260200190815260200160002060008a73ffffffffffffffffffffffffffffffffffffffff1673ffffffffffffffffffffffffffffffffffffffff1681526020019081526020016000206000016001018054610acb906134a7565b80601f0160208091040260200160405190810160405280929190818152602001828054610af7906134a7565b8015610b445780601f10610b1957610100808354040283529160200191610b44565b820191906000526020600020905b815481529060010190602001808311610b2757829003601f168201915b50505050509650600260008973ffffffffffffffffffffffffffffffffffffffff1673ffffffffffffffffffffffffffffffffffffffff16815260200190815260200160002060008a73ffffffffffffffffffffffffffffffffffffffff1673ffffffffffffffffffffffffffffffffffffffff16815260200190815260200160002060000160000160019054906101000a900473ffffffffffffffffffffffffffffffffffffffff169550600260008973ffffffffffffffffffffffffffffffffffffffff1673ffffffffffffffffffffffffffffffffffffffff16815260200190815260200160002060008a73ffffffffffffffffffffffffffffffffffffffff1673ffffffffffffffffffffffffffffffffffffffff1681526020019081526020016000206002016001018054610c7d906134a7565b80601f0160208091040260200160405190810160405280929190818152602001828054610ca9906134a7565b8015610cf65780601f10610ccb57610100808354040283529160200191610cf6565b820191906000526020600020905b815481529060010190602001808311610cd957829003601f168201915b50505050509450600260008973ffffffffffffffffffffffffffffffffffffffff1673ffffffffffffffffffffffffffffffffffffffff16815260200190815260200160002060008a73ffffffffffffffffffffffffffffffffffffffff1673ffffffffffffffffffffffffffffffffffffffff16815260200190815260200160002060020160000160019054906101000a900473ffffffffffffffffffffffffffffffffffffffff169350600260008973ffffffffffffffffffffffffffffffffffffffff1673ffffffffffffffffffffffffffffffffffffffff16815260200190815260200160002060008a73ffffffffffffffffffffffffffffffffffffffff1673ffffffffffffffffffffffffffffffffffffffff1681526020019081526020016000206005016000018054610e2f906134a7565b80601f0160208091040260200160405190810160405280929190818152602001828054610e5b906134a7565b8015610ea85780601f10610e7d57610100808354040283529160200191610ea8565b820191906000526020600020905b815481529060010190602001808311610e8b57829003601f168201915b50505050509250600260008973ffffffffffffffffffffffffffffffffffffffff1673ffffffffffffffffffffffffffffffffffffffff16815260200190815260200160002060008a73ffffffffffffffffffffffffffffffffffffffff1673ffffffffffffffffffffffffffffffffffffffff168152602001908152602001600020600601805480602002602001604051908101604052809291908181526020016000905b82821015610ffa578382906000526020600020018054610f6d906134a7565b80601f0160208091040260200160405190810160405280929190818152602001828054610f99906134a7565b8015610fe65780601f10610fbb57610100808354040283529160200191610fe6565b820191906000526020600020905b815481529060010190602001808311610fc957829003601f168201915b505050505081526020019060010190610f4e565b505050509150509295509295509295565b606061103582604051602001611021919061358c565b6040516020818303038152906040526102d2565b9050919050565b60011515600160008573ffffffffffffffffffffffffffffffffffffffff1673ffffffffffffffffffffffffffffffffffffffff16815260200190815260200160002060000160009054906101000a900460ff1615151461109c8461100b565b906110dd576040517f08c379a00000000000000000000000000000000000000000000000000000000081526004016110d49190612c01565b60405180910390fd5b5080600360008573ffffffffffffffffffffffffffffffffffffffff1673ffffffffffffffffffffffffffffffffffffffff16815260200190815260200160002060008473ffffffffffffffffffffffffffffffffffffffff1673ffffffffffffffffffffffffffffffffffffffff168152602001908152602001600020819055507f19dd02d0615ff9058c55159271b51d3d8ead87b40cc392e6dbeca6483cff333382846040516111909291906135a7565b60405180910390a1505050565b600115156000803373ffffffffffffffffffffffffffffffffffffffff1673ffffffffffffffffffffffffffffffffffffffff16815260200190815260200160002060000160009054906101000a900460ff16151514611232576040517f08c379a00000000000000000000000000000000000000000000000000000000081526004016112299061361c565b60405180910390fd5b600554341015611277576040517f08c379a000000000000000000000000000000000000000000000000000000000815260040161126e90613688565b60405180910390fd5b604051806080016040528085151581526020018473ffffffffffffffffffffffffffffffffffffffff16815260200183815260200182815250600160008573ffffffffffffffffffffffffffffffffffffffff1673ffffffffffffffffffffffffffffffffffffffff16815260200190815260200160002060008201518160000160006101000a81548160ff02191690831515021790555060208201518160000160016101000a81548173ffffffffffffffffffffffffffffffffffffffff021916908373ffffffffffffffffffffffffffffffffffffffff160217905550604082015181600101908161136b9190613854565b5060608201518160020190805190602001906113889291906128fc565b509050507ff426af7bbaad7fa53d53cc9eed882319a2e3c04913923e0a7283d6747cc2949b33846040516113bd9291906135a7565b60405180910390a150505050565b600460009054906101000a900473ffffffffffffffffffffffffffffffffffffffff1673ffffffffffffffffffffffffffffffffffffffff163373ffffffffffffffffffffffffffffffffffffffff161461145b576040517f08c379a000000000000000000000000000000000000000000000000000000000815260040161145290613972565b60405180910390fd5b6005543410156114a0576040517f08c379a000000000000000000000000000000000000000000000000000000000815260040161149790613688565b60405180910390fd5b604051806060016040528084151581526020018373ffffffffffffffffffffffffffffffffffffffff168152602001828152506000808473ffffffffffffffffffffffffffffffffffffffff1673ffffffffffffffffffffffffffffffffffffffff16815260200190815260200160002060008201518160000160006101000a81548160ff02191690831515021790555060208201518160000160016101000a81548173ffffffffffffffffffffffffffffffffffffffff021916908373ffffffffffffffffffffffffffffffffffffffff160217905550604082015181600101908161158d9190613854565b509050507f83c041d3aeb1dcb1f28cb15e20bdfee5ed1ca3740e487f9cab72e13eeb85950533836040516115c29291906135a7565b60405180910390a1505050565b600460009054906101000a900473ffffffffffffffffffffffffffffffffffffffff1681565b6000806060600460009054906101000a900473ffffffffffffffffffffffffffffffffffffffff1673ffffffffffffffffffffffffffffffffffffffff163373ffffffffffffffffffffffffffffffffffffffff161461168a576040517f08c379a000000000000000000000000000000000000000000000000000000000815260040161168190613972565b60405180910390fd5b6000808573ffffffffffffffffffffffffffffffffffffffff1673ffffffffffffffffffffffffffffffffffffffff16815260200190815260200160002060000160009054906101000a900460ff1692506000808573ffffffffffffffffffffffffffffffffffffffff1673ffffffffffffffffffffffffffffffffffffffff16815260200190815260200160002060000160019054906101000a900473ffffffffffffffffffffffffffffffffffffffff1691506000808573ffffffffffffffffffffffffffffffffffffffff1673ffffffffffffffffffffffffffffffffffffffff168152602001908152602001600020600101805461178b906134a7565b80601f01602080910402602001604051908101604052809291908181526020018280546117b7906134a7565b80156118045780601f106117d957610100808354040283529160200191611804565b820191906000526020600020905b8154815290600101906020018083116117e757829003601f168201915b505050505090509193909250565b600115156000803373ffffffffffffffffffffffffffffffffffffffff1673ffffffffffffffffffffffffffffffffffffffff16815260200190815260200160002060000160009054906101000a900460ff161515146118a7576040517f08c379a000000000000000000000000000000000000000000000000000000000815260040161189e9061361c565b60405180910390fd5b6000803373ffffffffffffffffffffffffffffffffffffffff1673ffffffffffffffffffffffffffffffffffffffff168152602001908152602001600020600101600260003373ffffffffffffffffffffffffffffffffffffffff1673ffffffffffffffffffffffffffffffffffffffff16815260200190815260200160002060008473ffffffffffffffffffffffffffffffffffffffff1673ffffffffffffffffffffffffffffffffffffffff168152602001908152602001600020600001600101908161197691906139bd565b506000803373ffffffffffffffffffffffffffffffffffffffff1673ffffffffffffffffffffffffffffffffffffffff16815260200190815260200160002060000160019054906101000a900473ffffffffffffffffffffffffffffffffffffffff16600260003373ffffffffffffffffffffffffffffffffffffffff1673ffffffffffffffffffffffffffffffffffffffff16815260200190815260200160002060008473ffffffffffffffffffffffffffffffffffffffff1673ffffffffffffffffffffffffffffffffffffffff16815260200190815260200160002060000160000160016101000a81548173ffffffffffffffffffffffffffffffffffffffff021916908373ffffffffffffffffffffffffffffffffffffffff1602179055506001600260003373ffffffffffffffffffffffffffffffffffffffff1673ffffffffffffffffffffffffffffffffffffffff16815260200190815260200160002060008473ffffffffffffffffffffffffffffffffffffffff1673ffffffffffffffffffffffffffffffffffffffff16815260200190815260200160002060020160000160006101000a81548160ff02191690831515021790555081600260003373ffffffffffffffffffffffffffffffffffffffff1673ffffffffffffffffffffffffffffffffffffffff16815260200190815260200160002060008473ffffffffffffffffffffffffffffffffffffffff1673ffffffffffffffffffffffffffffffffffffffff16815260200190815260200160002060020160000160016101000a81548173ffffffffffffffffffffffffffffffffffffffff021916908373ffffffffffffffffffffffffffffffffffffffff16021790555082600260003373ffffffffffffffffffffffffffffffffffffffff1673ffffffffffffffffffffffffffffffffffffffff16815260200190815260200160002060008473ffffffffffffffffffffffffffffffffffffffff1673ffffffffffffffffffffffffffffffffffffffff1681526020019081526020016000206002016001019081611c849190613854565b5080600260003373ffffffffffffffffffffffffffffffffffffffff1673ffffffffffffffffffffffffffffffffffffffff16815260200190815260200160002060008473ffffffffffffffffffffffffffffffffffffffff1673ffffffffffffffffffffffffffffffffffffffff1681526020019081526020016000206005016000019081611d149190613854565b50600260003373ffffffffffffffffffffffffffffffffffffffff1673ffffffffffffffffffffffffffffffffffffffff16815260200190815260200160002060008373ffffffffffffffffffffffffffffffffffffffff1673ffffffffffffffffffffffffffffffffffffffff16815260200190815260200160002060060181908060018154018082558091505060019003906000526020600020016000909190919091509081611dc69190613854565b50600160008373ffffffffffffffffffffffffffffffffffffffff1673ffffffffffffffffffffffffffffffffffffffff16815260200190815260200160002060020181908060018154018082558091505060019003906000526020600020016000909190919091509081611e3b9190613854565b50612194600260003373ffffffffffffffffffffffffffffffffffffffff1673ffffffffffffffffffffffffffffffffffffffff16815260200190815260200160002060008473ffffffffffffffffffffffffffffffffffffffff1673ffffffffffffffffffffffffffffffffffffffff16815260200190815260200160002060020160000160009054906101000a900460ff16600260003373ffffffffffffffffffffffffffffffffffffffff1673ffffffffffffffffffffffffffffffffffffffff16815260200190815260200160002060008573ffffffffffffffffffffffffffffffffffffffff1673ffffffffffffffffffffffffffffffffffffffff16815260200190815260200160002060020160000160019054906101000a900473ffffffffffffffffffffffffffffffffffffffff16600260003373ffffffffffffffffffffffffffffffffffffffff1673ffffffffffffffffffffffffffffffffffffffff16815260200190815260200160002060008673ffffffffffffffffffffffffffffffffffffffff1673ffffffffffffffffffffffffffffffffffffffff1681526020019081526020016000206002016001018054611fff906134a7565b80601f016020809104026020016040519081016040528092919081815260200182805461202b906134a7565b80156120785780601f1061204d57610100808354040283529160200191612078565b820191906000526020600020905b81548152906001019060200180831161205b57829003601f168201915b5050505050600160008773ffffffffffffffffffffffffffffffffffffffff1673ffffffffffffffffffffffffffffffffffffffff168152602001908152602001600020600201805480602002602001604051908101604052809291908181526020016000905b8282101561218b5783829060005260206000200180546120fe906134a7565b80601f016020809104026020016040519081016040528092919081815260200182805461212a906134a7565b80156121775780601f1061214c57610100808354040283529160200191612177565b820191906000526020600020905b81548152906001019060200180831161215a57829003601f168201915b5050505050815260200190600101906120df565b5050505061119d565b7ffd09d3da0077a9ed9d4af05531b2f844c840c94c1e6535e3d2a09a6ae1aa9a5233836040516121c59291906135a7565b60405180910390a1505050565b6060600060606000606080600115156000803373ffffffffffffffffffffffffffffffffffffffff1673ffffffffffffffffffffffffffffffffffffffff16815260200190815260200160002060000160009054906101000a900460ff16151514612272576040517f08c379a00000000000000000000000000000000000000000000000000000000081526004016122699061361c565b60405180910390fd5b6001600360008973ffffffffffffffffffffffffffffffffffffffff1673ffffffffffffffffffffffffffffffffffffffff16815260200190815260200160002060003373ffffffffffffffffffffffffffffffffffffffff1673ffffffffffffffffffffffffffffffffffffffff1681526020019081526020016000205414612331576040517f08c379a000000000000000000000000000000000000000000000000000000000815260040161232890613af1565b60405180910390fd5b600260003373ffffffffffffffffffffffffffffffffffffffff1673ffffffffffffffffffffffffffffffffffffffff16815260200190815260200160002060008873ffffffffffffffffffffffffffffffffffffffff1673ffffffffffffffffffffffffffffffffffffffff16815260200190815260200160002060000160010180546123be906134a7565b80601f01602080910402602001604051908101604052809291908181526020018280546123ea906134a7565b80156124375780601f1061240c57610100808354040283529160200191612437565b820191906000526020600020905b81548152906001019060200180831161241a57829003601f168201915b50505050509550600260003373ffffffffffffffffffffffffffffffffffffffff1673ffffffffffffffffffffffffffffffffffffffff16815260200190815260200160002060008873ffffffffffffffffffffffffffffffffffffffff1673ffffffffffffffffffffffffffffffffffffffff16815260200190815260200160002060000160000160019054906101000a900473ffffffffffffffffffffffffffffffffffffffff169450600260003373ffffffffffffffffffffffffffffffffffffffff1673ffffffffffffffffffffffffffffffffffffffff16815260200190815260200160002060008873ffffffffffffffffffffffffffffffffffffffff1673ffffffffffffffffffffffffffffffffffffffff1681526020019081526020016000206002016001018054612570906134a7565b80601f016020809104026020016040519081016040528092919081815260200182805461259c906134a7565b80156125e95780601f106125be576101008083540402835291602001916125e9565b820191906000526020600020905b8154815290600101906020018083116125cc57829003601f168201915b50505050509350600260003373ffffffffffffffffffffffffffffffffffffffff1673ffffffffffffffffffffffffffffffffffffffff16815260200190815260200160002060008873ffffffffffffffffffffffffffffffffffffffff1673ffffffffffffffffffffffffffffffffffffffff16815260200190815260200160002060020160000160019054906101000a900473ffffffffffffffffffffffffffffffffffffffff169250600260003373ffffffffffffffffffffffffffffffffffffffff1673ffffffffffffffffffffffffffffffffffffffff16815260200190815260200160002060008873ffffffffffffffffffffffffffffffffffffffff1673ffffffffffffffffffffffffffffffffffffffff1681526020019081526020016000206005016000018054612722906134a7565b80601f016020809104026020016040519081016040528092919081815260200182805461274e906134a7565b801561279b5780601f106127705761010080835404028352916020019161279b565b820191906000526020600020905b81548152906001019060200180831161277e57829003601f168201915b50505050509150600260003373ffffffffffffffffffffffffffffffffffffffff1673ffffffffffffffffffffffffffffffffffffffff16815260200190815260200160002060008873ffffffffffffffffffffffffffffffffffffffff1673ffffffffffffffffffffffffffffffffffffffff168152602001908152602001600020600601805480602002602001604051908101604052809291908181526020016000905b828210156128ed578382906000526020600020018054612860906134a7565b80601f016020809104026020016040519081016040528092919081815260200182805461288c906134a7565b80156128d95780601f106128ae576101008083540402835291602001916128d9565b820191906000526020600020905b8154815290600101906020018083116128bc57829003601f168201915b505050505081526020019060010190612841565b50505050905091939550919395565b828054828255906000526020600020908101928215612944579160200282015b828111156129435782518290816129339190613854565b509160200191906001019061291c565b5b5090506129519190612955565b5090565b5b80821115612975576000818161296c9190612979565b50600101612956565b5090565b508054612985906134a7565b6000825580601f1061299757506129b6565b601f0160209004906000526020600020908101906129b591906129b9565b5b50565b5b808211156129d25760008160009055506001016129ba565b5090565b6000604051905090565b600080fd5b600080fd5b600080fd5b600080fd5b6000601f19601f8301169050919050565b7f4e487b7100000000000000000000000000000000000000000000000000000000600052604160045260246000fd5b612a3d826129f4565b810181811067ffffffffffffffff82111715612a5c57612a5b612a05565b5b80604052505050565b6000612a6f6129d6565b9050612a7b8282612a34565b919050565b600067ffffffffffffffff821115612a9b57612a9a612a05565b5b612aa4826129f4565b9050602081019050919050565b82818337600083830152505050565b6000612ad3612ace84612a80565b612a65565b905082815260208101848484011115612aef57612aee6129ef565b5b612afa848285612ab1565b509392505050565b600082601f830112612b1757612b166129ea565b5b8135612b27848260208601612ac0565b91505092915050565b600060208284031215612b4657612b456129e0565b5b600082013567ffffffffffffffff811115612b6457612b636129e5565b5b612b7084828501612b02565b91505092915050565b600081519050919050565b600082825260208201905092915050565b60005b83811015612bb3578082015181840152602081019050612b98565b83811115612bc2576000848401525b50505050565b6000612bd382612b79565b612bdd8185612b84565b9350612bed818560208601612b95565b612bf6816129f4565b840191505092915050565b60006020820190508181036000830152612c1b8184612bc8565b905092915050565b600073ffffffffffffffffffffffffffffffffffffffff82169050919050565b6000612c4e82612c23565b9050919050565b612c5e81612c43565b8114612c6957600080fd5b50565b600081359050612c7b81612c55565b92915050565b60008060408385031215612c9857612c976129e0565b5b6000612ca685828601612c6c565b9250506020612cb785828601612c6c565b9150509250929050565b60008115159050919050565b612cd681612cc1565b82525050565b612ce581612c43565b82525050565b600081519050919050565b600082825260208201905092915050565b6000819050602082019050919050565b600082825260208201905092915050565b6000612d3382612b79565b612d3d8185612d17565b9350612d4d818560208601612b95565b612d56816129f4565b840191505092915050565b6000612d6d8383612d28565b905092915050565b6000602082019050919050565b6000612d8d82612ceb565b612d978185612cf6565b935083602082028501612da985612d07565b8060005b85811015612de55784840389528151612dc68582612d61565b9450612dd183612d75565b925060208a01995050600181019050612dad565b50829750879550505050505092915050565b6000608082019050612e0c6000830187612ccd565b612e196020830186612cdc565b8181036040830152612e2b8185612bc8565b90508181036060830152612e3f8184612d82565b905095945050505050565b600060c0820190508181036000830152612e648189612bc8565b9050612e736020830188612cdc565b8181036040830152612e858187612bc8565b9050612e946060830186612cdc565b8181036080830152612ea68185612bc8565b905081810360a0830152612eba8184612d82565b9050979650505050505050565b600060208284031215612edd57612edc6129e0565b5b6000612eeb84828501612c6c565b91505092915050565b6000819050919050565b612f0781612ef4565b8114612f1257600080fd5b50565b600081359050612f2481612efe565b92915050565b600080600060608486031215612f4357612f426129e0565b5b6000612f5186828701612c6c565b9350506020612f6286828701612c6c565b9250506040612f7386828701612f15565b9150509250925092565b612f8681612cc1565b8114612f9157600080fd5b50565b600081359050612fa381612f7d565b92915050565b600067ffffffffffffffff821115612fc457612fc3612a05565b5b612fcd826129f4565b9050602081019050919050565b6000612fed612fe884612fa9565b612a65565b905082815260208101848484011115613009576130086129ef565b5b613014848285612ab1565b509392505050565b600082601f830112613031576130306129ea565b5b8135613041848260208601612fda565b91505092915050565b600067ffffffffffffffff82111561306557613064612a05565b5b602082029050602081019050919050565b600080fd5b600061308e6130898461304a565b612a65565b905080838252602082019050602084028301858111156130b1576130b0613076565b5b835b818110156130f857803567ffffffffffffffff8111156130d6576130d56129ea565b5b8086016130e3898261301c565b855260208501945050506020810190506130b3565b5050509392505050565b600082601f830112613117576131166129ea565b5b813561312784826020860161307b565b91505092915050565b6000806000806080858703121561314a576131496129e0565b5b600061315887828801612f94565b945050602061316987828801612c6c565b935050604085013567ffffffffffffffff81111561318a576131896129e5565b5b6131968782880161301c565b925050606085013567ffffffffffffffff8111156131b7576131b66129e5565b5b6131c387828801613102565b91505092959194509250565b6000806000606084860312156131e8576131e76129e0565b5b60006131f686828701612f94565b935050602061320786828701612c6c565b925050604084013567ffffffffffffffff811115613228576132276129e5565b5b6132348682870161301c565b9150509250925092565b60006020820190506132536000830184612cdc565b92915050565b600060608201905061326e6000830186612ccd565b61327b6020830185612cdc565b818103604083015261328d8184612bc8565b9050949350505050565b6000806000606084860312156132b0576132af6129e0565b5b600084013567ffffffffffffffff8111156132ce576132cd6129e5565b5b6132da8682870161301c565b93505060206132eb86828701612c6c565b925050604084013567ffffffffffffffff81111561330c5761330b6129e5565b5b6133188682870161301c565b9150509250925092565b7f4e487b7100000000000000000000000000000000000000000000000000000000600052601160045260246000fd5b600061335c82612ef4565b915061336783612ef4565b9250817fffffffffffffffffffffffffffffffffffffffffffffffffffffffffffffffff04831182151516156133a05761339f613322565b5b828202905092915050565b60006133b682612ef4565b91506133c183612ef4565b9250827fffffffffffffffffffffffffffffffffffffffffffffffffffffffffffffffff038211156133f6576133f5613322565b5b828201905092915050565b7f4e487b7100000000000000000000000000000000000000000000000000000000600052603260045260246000fd5b600061343b82612ef4565b91507fffffffffffffffffffffffffffffffffffffffffffffffffffffffffffffffff820361346d5761346c613322565b5b600182019050919050565b7f4e487b7100000000000000000000000000000000000000000000000000000000600052602260045260246000fd5b600060028204905060018216806134bf57607f821691505b6020821081036134d2576134d1613478565b5b50919050565b7f524547495354455245442050415449454e5453204f4e4c590000000000000000600082015250565b600061350e601883612b84565b9150613519826134d8565b602082019050919050565b6000602082019050818103600083015261353d81613501565b9050919050565b60008160601b9050919050565b600061355c82613544565b9050919050565b600061356e82613551565b9050919050565b61358661358182612c43565b613563565b82525050565b60006135988284613575565b60148201915081905092915050565b60006040820190506135bc6000830185612cdc565b6135c96020830184612cdc565b9392505050565b7f5245474953544552454420444f43544f5253204f4e4c59000000000000000000600082015250565b6000613606601783612b84565b9150613611826135d0565b602082019050919050565b60006020820190508181036000830152613635816135f9565b9050919050565b7f5061796d656e7420496e636f6d706c6574650000000000000000000000000000600082015250565b6000613672601283612b84565b915061367d8261363c565b602082019050919050565b600060208201905081810360008301526136a181613665565b9050919050565b60008190508160005260206000209050919050565b60006020601f8301049050919050565b600082821b905092915050565b60006008830261370a7fffffffffffffffffffffffffffffffffffffffffffffffffffffffffffffffff826136cd565b61371486836136cd565b95508019841693508086168417925050509392505050565b6000819050919050565b600061375161374c61374784612ef4565b61372c565b612ef4565b9050919050565b6000819050919050565b61376b83613736565b61377f61377782613758565b8484546136da565b825550505050565b600090565b613794613787565b61379f818484613762565b505050565b5b818110156137c3576137b860008261378c565b6001810190506137a5565b5050565b601f821115613808576137d9816136a8565b6137e2846136bd565b810160208510156137f1578190505b6138056137fd856136bd565b8301826137a4565b50505b505050565b600082821c905092915050565b600061382b6000198460080261380d565b1980831691505092915050565b6000613844838361381a565b9150826002028217905092915050565b61385d82612b79565b67ffffffffffffffff81111561387657613875612a05565b5b61388082546134a7565b61388b8282856137c7565b600060209050601f8311600181146138be57600084156138ac578287015190505b6138b68582613838565b86555061391e565b601f1984166138cc866136a8565b60005b828110156138f4578489015182556001820191506020850194506020810190506138cf565b86831015613911578489015161390d601f89168261381a565b8355505b6001600288020188555050505b505050505050565b7f4f4e4c592041444d494e20495320414c4c4f5745440000000000000000000000600082015250565b600061395c601583612b84565b915061396782613926565b602082019050919050565b6000602082019050818103600083015261398b8161394f565b9050919050565b6000815490506139a1816134a7565b9050919050565b60008190508160005260206000209050919050565b8181036139cb575050613aa3565b6139d482613992565b67ffffffffffffffff8111156139ed576139ec612a05565b5b6139f782546134a7565b613a028282856137c7565b6000601f831160018114613a315760008415613a1f578287015490505b613a298582613838565b865550613a9c565b601f198416613a3f876139a8565b9650613a4a866136a8565b60005b82811015613a7257848901548255600182019150600185019450602081019050613a4d565b86831015613a8f5784890154613a8b601f89168261381a565b8355505b6001600288020188555050505b5050505050505b565b7f445220414343455353204e4f54204752414e5445440000000000000000000000600082015250565b6000613adb601583612b84565b9150613ae682613aa5565b602082019050919050565b60006020820190508181036000830152613b0a81613ace565b905091905056fea2646970667358221220f6c529a64006a8cc82354c51deb3505b3ce2156e1ab7573b14418c8fa4095cd564736f6c634300080f0033",
  "immutableReferences": {},
  "source": "// SPDX-License-Identifier: GPL-3.0\r\npragma solidity >=0.7.0 <0.9.0;\r\npragma experimental ABIEncoderV2;\r\n\r\ncontract MedicalChain {\r\n    mapping(address => Doctor) DoctorInfo;\r\n    mapping(address => Patient) PatientInfo;\r\n    mapping(address => mapping(address => HealthRecords)) HealthInfo;\r\n    mapping(address => mapping(address => uint256)) private patientToDoctor;\r\n\r\n    event DrDetailsAdded(address admin, address doctor);\r\n    event PatDetailsAdded(address doctor, address patient);\r\n    event HealthRecordsAdded(address dr, address patient);\r\n    event GrantAccessToDr(address dr, address patient);\r\n\r\n    modifier OnlyOwner() {\r\n        require(msg.sender == owner, \"ONLY ADMIN IS ALLOWED\");\r\n        _;\r\n    }\r\n\r\n    modifier Only_Doctors() {\r\n        require(\r\n            DoctorInfo[msg.sender].state == true,\r\n            \"REGISTERED DOCTORS ONLY\"\r\n        );\r\n        _;\r\n    }\r\n\r\n    modifier Only_Patients(address sender) {\r\n        require(PatientInfo[sender].state == true, \"REGISTERED PATIENTS ONLY\");\r\n        _;\r\n    }\r\n\r\n    address public owner;\r\n    uint256 amt = 1e16;\r\n\r\n    constructor() {\r\n        owner = msg.sender;\r\n    }\r\n\r\n    struct Doctor {\r\n        bool state; // To check whether the doctor is registered or not\r\n        address dr_Id; // Address of doctor\r\n        string d_Name; // Name of doctor\r\n    }\r\n\r\n    struct Patient {\r\n        bool state; // To check whether patient is genuine\r\n        address pa_Id; // Address of registered patient\r\n        string pa_Name; // Name of Patient Name\r\n        string[] pa_Records; // Used to store the prescription records of corresponding patients\r\n    }\r\n\r\n    struct PrescriptionDetails {\r\n        string prescription; // prescription details of patient given by doctor\r\n    }\r\n\r\n    struct HealthRecords {\r\n        Doctor d;\r\n        Patient p;\r\n        PrescriptionDetails pre;\r\n        string[] records; // Used to store prescription records of patient w.r.t doctor\r\n    }\r\n\r\n    // Function to add Doctor details, done by admin only\r\n    function setDoctorDetails(\r\n        bool _state,\r\n        address _drId,\r\n        string memory _name\r\n    ) external payable OnlyOwner {\r\n        require(msg.value >= amt, \"Payment Incomplete\");\r\n        DoctorInfo[_drId] = Doctor(_state, _drId, _name);\r\n        emit DrDetailsAdded(msg.sender, _drId);\r\n    }\r\n\r\n    // Function to get Doctor details for admin\r\n    function getDoctorDetails(address _Id)\r\n        public\r\n        view\r\n        OnlyOwner\r\n        returns (\r\n            bool _state,\r\n            address _drId,\r\n            string memory _name\r\n        )\r\n    {\r\n        _state = DoctorInfo[_Id].state;\r\n        _drId = DoctorInfo[_Id].dr_Id;\r\n        _name = DoctorInfo[_Id].d_Name;\r\n    }\r\n\r\n    // Function to add HealthRecords of patients, done by registered doctors only\r\n    function setHealthRecordsDetails(\r\n        string memory _paName,\r\n        address _paId,\r\n        string memory _prescription\r\n    ) public Only_Doctors {\r\n        HealthInfo[msg.sender][_paId].d.d_Name = DoctorInfo[msg.sender].d_Name;\r\n        HealthInfo[msg.sender][_paId].d.dr_Id = DoctorInfo[msg.sender].dr_Id;\r\n        HealthInfo[msg.sender][_paId].p.state = true;\r\n        HealthInfo[msg.sender][_paId].p.pa_Id = _paId;\r\n        HealthInfo[msg.sender][_paId].p.pa_Name = _paName;\r\n        HealthInfo[msg.sender][_paId].pre.prescription = _prescription;\r\n        HealthInfo[msg.sender][_paId].records.push(_prescription);\r\n        PatientInfo[_paId].pa_Records.push(_prescription);\r\n        setPatientDetails(\r\n            HealthInfo[msg.sender][_paId].p.state,\r\n            HealthInfo[msg.sender][_paId].p.pa_Id,\r\n            HealthInfo[msg.sender][_paId].p.pa_Name,\r\n            PatientInfo[_paId].pa_Records\r\n        );\r\n        emit HealthRecordsAdded(msg.sender, _paId);\r\n    }\r\n\r\n    // Function to add Patient details, done by registered doctors only\r\n    function setPatientDetails(\r\n        bool _state,\r\n        address _paId,\r\n        string memory _paName,\r\n        string[] memory _paRecords\r\n    ) public payable Only_Doctors {\r\n        require(msg.value >= amt, \"Payment Incomplete\");\r\n        PatientInfo[_paId] = Patient(_state, _paId, _paName, _paRecords);\r\n        emit PatDetailsAdded(msg.sender, _paId);\r\n    }\r\n\r\n    function toString(address account) public pure returns (string memory) {\r\n        return toString1(abi.encodePacked(account));\r\n    }\r\n\r\n    function toString1(bytes memory data) public pure returns (string memory) {\r\n        bytes memory alphabet = \"0123456789abcdef\";\r\n\r\n        bytes memory str = new bytes(2 + data.length * 2);\r\n        str[0] = \"0\";\r\n        str[1] = \"x\";\r\n        for (uint256 i = 0; i < data.length; i++) {\r\n            str[2 + i * 2] = alphabet[uint256(uint8(data[i] >> 4))];\r\n            str[3 + i * 2] = alphabet[uint256(uint8(data[i] & 0x0f))];\r\n        }\r\n        return string(str);\r\n    }\r\n\r\n    // Function to get Patient details\r\n    function getPatientDetails(address sender, address _Id)\r\n        public\r\n        view\r\n        returns (\r\n            bool _state,\r\n            address _paId,\r\n            string memory _paName,\r\n            string[] memory _paRecords\r\n        )\r\n    {\r\n        require(\r\n            PatientInfo[sender].state == true ||\r\n                patientToDoctor[_Id][sender] == 1,\r\n            toString(sender)\r\n        );\r\n        _state = PatientInfo[_Id].state;\r\n        _paId = PatientInfo[_Id].pa_Id;\r\n        _paName = PatientInfo[_Id].pa_Name;\r\n        _paRecords = PatientInfo[_Id].pa_Records;\r\n    }\r\n\r\n    // Function to get HealthRecords only for registered patients\r\n    function getHealthRecords(address sender, address _dr)\r\n        public\r\n        view\r\n        Only_Patients(sender)\r\n        returns (\r\n            string memory _drName,\r\n            address _drId,\r\n            string memory _paName,\r\n            address _paId,\r\n            string memory _prescription,\r\n            string[] memory _rec\r\n        )\r\n    {\r\n        _drName = HealthInfo[_dr][sender].d.d_Name;\r\n        _drId = HealthInfo[_dr][sender].d.dr_Id;\r\n        _paName = HealthInfo[_dr][sender].p.pa_Name;\r\n        _paId = HealthInfo[_dr][sender].p.pa_Id;\r\n        _prescription = HealthInfo[_dr][sender].pre.prescription;\r\n        _rec = HealthInfo[_dr][sender].records;\r\n    }\r\n\r\n    // Function to grant access to doctor ,so that the doctors with access can view the corresponding patients HealthRecords\r\n    function grantAccessToDoctor(\r\n        address sender,\r\n        address doctor_id,\r\n        uint256 access\r\n    ) public {\r\n        require(PatientInfo[sender].state == true, toString(sender));\r\n        patientToDoctor[sender][doctor_id] = access;\r\n        emit GrantAccessToDr(doctor_id, sender);\r\n    }\r\n\r\n    // Function to get HealthRecords only for registered Doctors\r\n    function getHealthRecordsForDoctor(address _paId)\r\n        public\r\n        view\r\n        Only_Doctors\r\n        returns (\r\n            string memory _drName,\r\n            address _drId,\r\n            string memory _paName,\r\n            address _pId,\r\n            string memory _prescription,\r\n            string[] memory _rec\r\n        )\r\n    {\r\n        require(\r\n            patientToDoctor[_paId][msg.sender] == 1,\r\n            \"DR ACCESS NOT GRANTED\"\r\n        );\r\n        _drName = HealthInfo[msg.sender][_paId].d.d_Name;\r\n        _drId = HealthInfo[msg.sender][_paId].d.dr_Id;\r\n        _paName = HealthInfo[msg.sender][_paId].p.pa_Name;\r\n        _pId = HealthInfo[msg.sender][_paId].p.pa_Id;\r\n        _prescription = HealthInfo[msg.sender][_paId].pre.prescription;\r\n        _rec = HealthInfo[msg.sender][_paId].records;\r\n    }\r\n}\r\n",
  "sourcePath": "D:\\BTP\\Demo\\Demo3\\contracts\\MedicalChain.sol",
  "compiler": {
    "name": "solc",
    "version": "0.8.15+commit.e14f2714.Emscripten.clang"
  },
  "schemaVersion": "3.4.8",
  "updatedAt": "2022-08-31T05:50:59.407Z",
  "devdoc": {
    "kind": "dev",
    "methods": {},
    "version": 1
  },
  "userdoc": {
    "kind": "user",
    "methods": {},
    "version": 1
  }
}