{
  "contractName": "MedicalChain",
  "abi": [
    {
      "inputs": [],
      "stateMutability": "nonpayable",
      "type": "constructor"
    },
    {
      "anonymous": false,
      "inputs": [
        {
          "indexed": false,
          "internalType": "address",
          "name": "admin",
          "type": "address"
        },
        {
          "indexed": false,
          "internalType": "address",
          "name": "doctor",
          "type": "address"
        }
      ],
      "name": "DrDetailsAdded",
      "type": "event"
    },
    {
      "anonymous": false,
      "inputs": [
        {
          "indexed": false,
          "internalType": "address",
          "name": "dr",
          "type": "address"
        },
        {
          "indexed": false,
          "internalType": "address",
          "name": "patient",
          "type": "address"
        }
      ],
      "name": "GrantAccessToDr",
      "type": "event"
    },
    {
      "anonymous": false,
      "inputs": [
        {
          "indexed": false,
          "internalType": "address",
          "name": "dr",
          "type": "address"
        },
        {
          "indexed": false,
          "internalType": "address",
          "name": "patient",
          "type": "address"
        }
      ],
      "name": "HealthRecordsAdded",
      "type": "event"
    },
    {
      "anonymous": false,
      "inputs": [
        {
          "indexed": false,
          "internalType": "address",
          "name": "doctor",
          "type": "address"
        },
        {
          "indexed": false,
          "internalType": "address",
          "name": "patient",
          "type": "address"
        }
      ],
      "name": "PatDetailsAdded",
      "type": "event"
    },
    {
      "inputs": [],
      "name": "owner",
      "outputs": [
        {
          "internalType": "address",
          "name": "",
          "type": "address"
        }
      ],
      "stateMutability": "view",
      "type": "function",
      "constant": true
    },
    {
      "inputs": [
        {
          "internalType": "bool",
          "name": "_state",
          "type": "bool"
        },
        {
          "internalType": "address",
          "name": "_drId",
          "type": "address"
        },
        {
          "internalType": "string",
          "name": "_name",
          "type": "string"
        },
        {
          "internalType": "string",
          "name": "_speciality",
          "type": "string"
        }
      ],
      "name": "setDoctorDetails",
      "outputs": [],
      "stateMutability": "payable",
      "type": "function",
      "payable": true
    },
    {
      "inputs": [
        {
          "internalType": "address",
          "name": "_Id",
          "type": "address"
        }
      ],
      "name": "getDoctorDetails",
      "outputs": [
        {
          "internalType": "bool",
          "name": "_state",
          "type": "bool"
        },
        {
          "internalType": "address",
          "name": "_drId",
          "type": "address"
        },
        {
          "internalType": "string",
          "name": "_name",
          "type": "string"
        },
        {
          "internalType": "string",
          "name": "_speciality",
          "type": "string"
        }
      ],
      "stateMutability": "view",
      "type": "function",
      "constant": true
    },
    {
      "inputs": [
        {
          "internalType": "address",
          "name": "sender",
          "type": "address"
        },
        {
          "internalType": "address",
          "name": "_paId",
          "type": "address"
        },
        {
          "internalType": "string",
          "name": "_prescription",
          "type": "string"
        }
      ],
      "name": "setHealthRecordsDetails",
      "outputs": [],
      "stateMutability": "nonpayable",
      "type": "function"
    },
    {
      "inputs": [
        {
          "internalType": "bool",
          "name": "_state",
          "type": "bool"
        },
        {
          "internalType": "address",
          "name": "_paId",
          "type": "address"
        },
        {
          "internalType": "string",
          "name": "_paName",
          "type": "string"
        },
        {
          "internalType": "uint32",
          "name": "_paAge",
          "type": "uint32"
        },
        {
          "internalType": "string",
          "name": "_paBloodGroup",
          "type": "string"
        },
        {
          "internalType": "address",
          "name": "_hospital",
          "type": "address"
        },
        {
          "internalType": "string[]",
          "name": "_paRecords",
          "type": "string[]"
        }
      ],
      "name": "setPatientDetails",
      "outputs": [],
      "stateMutability": "payable",
      "type": "function",
      "payable": true
    },
    {
      "inputs": [
        {
          "internalType": "address",
          "name": "account",
          "type": "address"
        }
      ],
      "name": "toString",
      "outputs": [
        {
          "internalType": "string",
          "name": "",
          "type": "string"
        }
      ],
      "stateMutability": "pure",
      "type": "function",
      "constant": true
    },
    {
      "inputs": [
        {
          "internalType": "bytes",
          "name": "data",
          "type": "bytes"
        }
      ],
      "name": "toString1",
      "outputs": [
        {
          "internalType": "string",
          "name": "",
          "type": "string"
        }
      ],
      "stateMutability": "pure",
      "type": "function",
      "constant": true
    },
    {
      "inputs": [
        {
          "internalType": "address",
          "name": "sender",
          "type": "address"
        },
        {
          "internalType": "address",
          "name": "_Id",
          "type": "address"
        }
      ],
      "name": "getPatientDetails",
      "outputs": [
        {
          "internalType": "bool",
          "name": "_state",
          "type": "bool"
        },
        {
          "internalType": "address",
          "name": "_paId",
          "type": "address"
        },
        {
          "internalType": "string",
          "name": "_paName",
          "type": "string"
        },
        {
          "internalType": "uint32",
          "name": "_paAge",
          "type": "uint32"
        },
        {
          "internalType": "string",
          "name": "_paBloodGroup",
          "type": "string"
        },
        {
          "internalType": "address",
          "name": "_hospital",
          "type": "address"
        },
        {
          "internalType": "string[]",
          "name": "_paRecords",
          "type": "string[]"
        }
      ],
      "stateMutability": "view",
      "type": "function",
      "constant": true
    },
    {
      "inputs": [
        {
          "internalType": "address",
          "name": "sender",
          "type": "address"
        },
        {
          "internalType": "address",
          "name": "_dr",
          "type": "address"
        }
      ],
      "name": "getHealthRecords",
      "outputs": [
        {
          "internalType": "string",
          "name": "_drName",
          "type": "string"
        },
        {
          "internalType": "address",
          "name": "_drId",
          "type": "address"
        },
        {
          "internalType": "string",
          "name": "_paName",
          "type": "string"
        },
        {
          "internalType": "address",
          "name": "_paId",
          "type": "address"
        },
        {
          "internalType": "string",
          "name": "_prescription",
          "type": "string"
        },
        {
          "internalType": "string[]",
          "name": "_rec",
          "type": "string[]"
        }
      ],
      "stateMutability": "view",
      "type": "function",
      "constant": true
    },
    {
      "inputs": [
        {
          "internalType": "address",
          "name": "sender",
          "type": "address"
        },
        {
          "internalType": "address",
          "name": "doctor_id",
          "type": "address"
        },
        {
          "internalType": "uint256",
          "name": "access",
          "type": "uint256"
        }
      ],
      "name": "grantAccessToDoctor",
      "outputs": [],
      "stateMutability": "nonpayable",
      "type": "function"
    },
    {
      "inputs": [
        {
          "internalType": "address",
          "name": "_paId",
          "type": "address"
        }
      ],
      "name": "getHealthRecordsForDoctor",
      "outputs": [
        {
          "internalType": "string",
          "name": "_drName",
          "type": "string"
        },
        {
          "internalType": "address",
          "name": "_drId",
          "type": "address"
        },
        {
          "internalType": "string",
          "name": "_paName",
          "type": "string"
        },
        {
          "internalType": "address",
          "name": "_pId",
          "type": "address"
        },
        {
          "internalType": "string",
          "name": "_prescription",
          "type": "string"
        },
        {
          "internalType": "string[]",
          "name": "_rec",
          "type": "string[]"
        }
      ],
      "stateMutability": "view",
      "type": "function",
      "constant": true
    }
  ],
  "bytecode": "0x608060405266038d7ea4c6800060055534801561001b57600080fd5b5033600460006101000a81548173ffffffffffffffffffffffffffffffffffffffff021916908373ffffffffffffffffffffffffffffffffffffffff160217905550613fcc8061006c6000396000f3fe60806040526004361061009b5760003560e01c8063579e74ca11610064578063579e74ca146101bb5780637284cd0b146101e45780638da5cb5b14610200578063bab90dbd1461022b578063c668473f1461026b578063f83009ba146102945761009b565b806211802a146100a05780630e9a705a146100dd57806316c168be1461012057806356009c6b1461013c57806356ca623e1461017e575b600080fd5b3480156100ac57600080fd5b506100c760048036038101906100c29190612eb9565b6102d6565b6040516100d49190612f8a565b60405180910390f35b3480156100e957600080fd5b5061010460048036038101906100ff919061300a565b6105d0565b604051610117979695949392919061319f565b60405180910390f35b61013a60048036038101906101359190613402565b610b31565b005b34801561014857600080fd5b50610163600480360381019061015e919061300a565b610e14565b604051610175969594939291906134f8565b60405180910390f35b34801561018a57600080fd5b506101a560048036038101906101a09190613575565b611483565b6040516101b29190612f8a565b60405180910390f35b3480156101c757600080fd5b506101e260048036038101906101dd91906135d8565b6114b4565b005b6101fe60048036038101906101f9919061362b565b611615565b005b34801561020c57600080fd5b50610215611836565b60405161022291906136ca565b60405180910390f35b34801561023757600080fd5b50610252600480360381019061024d9190613575565b61185c565b60405161026294939291906136e5565b60405180910390f35b34801561027757600080fd5b50610292600480360381019061028d9190613738565b611b46565b005b3480156102a057600080fd5b506102bb60048036038101906102b69190613575565b61255b565b6040516102cd969594939291906134f8565b60405180910390f35b606060006040518060400160405280601081526020017f3031323334353637383961626364656600000000000000000000000000000000815250905060006002845161032291906137d6565b600261032e9190613830565b67ffffffffffffffff81111561034757610346612d8e565b5b6040519080825280601f01601f1916602001820160405280156103795781602001600182028036833780820191505090505b5090507f3000000000000000000000000000000000000000000000000000000000000000816000815181106103b1576103b0613886565b5b60200101907effffffffffffffffffffffffffffffffffffffffffffffffffffffffffffff1916908160001a9053507f78000000000000000000000000000000000000000000000000000000000000008160018151811061041557610414613886565b5b60200101907effffffffffffffffffffffffffffffffffffffffffffffffffffffffffffff1916908160001a90535060005b84518110156105c55782600486838151811061046657610465613886565b5b602001015160f81c60f81b7effffffffffffffffffffffffffffffffffffffffffffffffffffffffffffff1916901c60f81c60ff16815181106104ac576104ab613886565b5b602001015160f81c60f81b826002836104c591906137d6565b60026104d19190613830565b815181106104e2576104e1613886565b5b60200101907effffffffffffffffffffffffffffffffffffffffffffffffffffffffffffff1916908160001a90535082600f60f81b86838151811061052a57610529613886565b5b602001015160f81c60f81b1660f81c60ff168151811061054d5761054c613886565b5b602001015160f81c60f81b8260028361056691906137d6565b60036105729190613830565b8151811061058357610582613886565b5b60200101907effffffffffffffffffffffffffffffffffffffffffffffffffffffffffffff1916908160001a90535080806105bd906138b5565b915050610447565b508092505050919050565b6000806060600060606000606060011515600160008b73ffffffffffffffffffffffffffffffffffffffff1673ffffffffffffffffffffffffffffffffffffffff16815260200190815260200160002060000160009054906101000a900460ff16151514806106bb57506001600360008a73ffffffffffffffffffffffffffffffffffffffff1673ffffffffffffffffffffffffffffffffffffffff16815260200190815260200160002060008b73ffffffffffffffffffffffffffffffffffffffff1673ffffffffffffffffffffffffffffffffffffffff16815260200190815260200160002054145b6106c48a611483565b90610705576040517f08c379a00000000000000000000000000000000000000000000000000000000081526004016106fc9190612f8a565b60405180910390fd5b50600160008973ffffffffffffffffffffffffffffffffffffffff1673ffffffffffffffffffffffffffffffffffffffff16815260200190815260200160002060000160009054906101000a900460ff169650600160008973ffffffffffffffffffffffffffffffffffffffff1673ffffffffffffffffffffffffffffffffffffffff16815260200190815260200160002060000160019054906101000a900473ffffffffffffffffffffffffffffffffffffffff169550600160008973ffffffffffffffffffffffffffffffffffffffff1673ffffffffffffffffffffffffffffffffffffffff168152602001908152602001600020600101805461080a9061392c565b80601f01602080910402602001604051908101604052809291908181526020018280546108369061392c565b80156108835780601f1061085857610100808354040283529160200191610883565b820191906000526020600020905b81548152906001019060200180831161086657829003601f168201915b50505050509450600160008973ffffffffffffffffffffffffffffffffffffffff1673ffffffffffffffffffffffffffffffffffffffff16815260200190815260200160002060020160009054906101000a900463ffffffff169350600160008973ffffffffffffffffffffffffffffffffffffffff1673ffffffffffffffffffffffffffffffffffffffff168152602001908152602001600020600301805461092c9061392c565b80601f01602080910402602001604051908101604052809291908181526020018280546109589061392c565b80156109a55780601f1061097a576101008083540402835291602001916109a5565b820191906000526020600020905b81548152906001019060200180831161098857829003601f168201915b50505050509250600160008973ffffffffffffffffffffffffffffffffffffffff1673ffffffffffffffffffffffffffffffffffffffff16815260200190815260200160002060040160009054906101000a900473ffffffffffffffffffffffffffffffffffffffff169150600160008973ffffffffffffffffffffffffffffffffffffffff1673ffffffffffffffffffffffffffffffffffffffff168152602001908152602001600020600501805480602002602001604051908101604052809291908181526020016000905b82821015610b1f578382906000526020600020018054610a929061392c565b80601f0160208091040260200160405190810160405280929190818152602001828054610abe9061392c565b8015610b0b5780601f10610ae057610100808354040283529160200191610b0b565b820191906000526020600020905b815481529060010190602001808311610aee57829003601f168201915b505050505081526020019060010190610a73565b50505050905092959891949750929550565b600115156000803373ffffffffffffffffffffffffffffffffffffffff1673ffffffffffffffffffffffffffffffffffffffff16815260200190815260200160002060000160009054906101000a900460ff16151514610bc6576040517f08c379a0000000000000000000000000000000000000000000000000000000008152600401610bbd906139a9565b60405180910390fd5b600554341015610c0b576040517f08c379a0000000000000000000000000000000000000000000000000000000008152600401610c0290613a15565b60405180910390fd5b6040518060e0016040528088151581526020018773ffffffffffffffffffffffffffffffffffffffff1681526020018681526020018563ffffffff1681526020018481526020018373ffffffffffffffffffffffffffffffffffffffff16815260200182815250600160008873ffffffffffffffffffffffffffffffffffffffff1673ffffffffffffffffffffffffffffffffffffffff16815260200190815260200160002060008201518160000160006101000a81548160ff02191690831515021790555060208201518160000160016101000a81548173ffffffffffffffffffffffffffffffffffffffff021916908373ffffffffffffffffffffffffffffffffffffffff1602179055506040820151816001019081610d2d9190613be1565b5060608201518160020160006101000a81548163ffffffff021916908363ffffffff1602179055506080820151816003019081610d6a9190613be1565b5060a08201518160040160006101000a81548173ffffffffffffffffffffffffffffffffffffffff021916908373ffffffffffffffffffffffffffffffffffffffff16021790555060c0820151816005019080519060200190610dce929190612c85565b509050507ff426af7bbaad7fa53d53cc9eed882319a2e3c04913923e0a7283d6747cc2949b3387604051610e03929190613cb3565b60405180910390a150505050505050565b60606000606060006060808760011515600160008373ffffffffffffffffffffffffffffffffffffffff1673ffffffffffffffffffffffffffffffffffffffff16815260200190815260200160002060000160009054906101000a900460ff16151514610eb6576040517f08c379a0000000000000000000000000000000000000000000000000000000008152600401610ead90613d28565b60405180910390fd5b600260008973ffffffffffffffffffffffffffffffffffffffff1673ffffffffffffffffffffffffffffffffffffffff16815260200190815260200160002060008a73ffffffffffffffffffffffffffffffffffffffff1673ffffffffffffffffffffffffffffffffffffffff1681526020019081526020016000206000016001018054610f439061392c565b80601f0160208091040260200160405190810160405280929190818152602001828054610f6f9061392c565b8015610fbc5780601f10610f9157610100808354040283529160200191610fbc565b820191906000526020600020905b815481529060010190602001808311610f9f57829003601f168201915b50505050509650600260008973ffffffffffffffffffffffffffffffffffffffff1673ffffffffffffffffffffffffffffffffffffffff16815260200190815260200160002060008a73ffffffffffffffffffffffffffffffffffffffff1673ffffffffffffffffffffffffffffffffffffffff16815260200190815260200160002060000160000160019054906101000a900473ffffffffffffffffffffffffffffffffffffffff169550600260008973ffffffffffffffffffffffffffffffffffffffff1673ffffffffffffffffffffffffffffffffffffffff16815260200190815260200160002060008a73ffffffffffffffffffffffffffffffffffffffff1673ffffffffffffffffffffffffffffffffffffffff16815260200190815260200160002060030160010180546110f59061392c565b80601f01602080910402602001604051908101604052809291908181526020018280546111219061392c565b801561116e5780601f106111435761010080835404028352916020019161116e565b820191906000526020600020905b81548152906001019060200180831161115157829003601f168201915b50505050509450600260008973ffffffffffffffffffffffffffffffffffffffff1673ffffffffffffffffffffffffffffffffffffffff16815260200190815260200160002060008a73ffffffffffffffffffffffffffffffffffffffff1673ffffffffffffffffffffffffffffffffffffffff16815260200190815260200160002060030160000160019054906101000a900473ffffffffffffffffffffffffffffffffffffffff169350600260008973ffffffffffffffffffffffffffffffffffffffff1673ffffffffffffffffffffffffffffffffffffffff16815260200190815260200160002060008a73ffffffffffffffffffffffffffffffffffffffff1673ffffffffffffffffffffffffffffffffffffffff16815260200190815260200160002060090160000180546112a79061392c565b80601f01602080910402602001604051908101604052809291908181526020018280546112d39061392c565b80156113205780601f106112f557610100808354040283529160200191611320565b820191906000526020600020905b81548152906001019060200180831161130357829003601f168201915b50505050509250600260008973ffffffffffffffffffffffffffffffffffffffff1673ffffffffffffffffffffffffffffffffffffffff16815260200190815260200160002060008a73ffffffffffffffffffffffffffffffffffffffff1673ffffffffffffffffffffffffffffffffffffffff168152602001908152602001600020600a01805480602002602001604051908101604052809291908181526020016000905b828210156114725783829060005260206000200180546113e59061392c565b80601f01602080910402602001604051908101604052809291908181526020018280546114119061392c565b801561145e5780601f106114335761010080835404028352916020019161145e565b820191906000526020600020905b81548152906001019060200180831161144157829003601f168201915b5050505050815260200190600101906113c6565b505050509150509295509295509295565b60606114ad826040516020016114999190613d90565b6040516020818303038152906040526102d6565b9050919050565b60011515600160008573ffffffffffffffffffffffffffffffffffffffff1673ffffffffffffffffffffffffffffffffffffffff16815260200190815260200160002060000160009054906101000a900460ff1615151461151484611483565b90611555576040517f08c379a000000000000000000000000000000000000000000000000000000000815260040161154c9190612f8a565b60405180910390fd5b5080600360008573ffffffffffffffffffffffffffffffffffffffff1673ffffffffffffffffffffffffffffffffffffffff16815260200190815260200160002060008473ffffffffffffffffffffffffffffffffffffffff1673ffffffffffffffffffffffffffffffffffffffff168152602001908152602001600020819055507f19dd02d0615ff9058c55159271b51d3d8ead87b40cc392e6dbeca6483cff33338284604051611608929190613cb3565b60405180910390a1505050565b600460009054906101000a900473ffffffffffffffffffffffffffffffffffffffff1673ffffffffffffffffffffffffffffffffffffffff163373ffffffffffffffffffffffffffffffffffffffff16146116a5576040517f08c379a000000000000000000000000000000000000000000000000000000000815260040161169c90613df7565b60405180910390fd5b6005543410156116ea576040517f08c379a00000000000000000000000000000000000000000000000000000000081526004016116e190613a15565b60405180910390fd5b604051806080016040528085151581526020018473ffffffffffffffffffffffffffffffffffffffff168152602001838152602001828152506000808573ffffffffffffffffffffffffffffffffffffffff1673ffffffffffffffffffffffffffffffffffffffff16815260200190815260200160002060008201518160000160006101000a81548160ff02191690831515021790555060208201518160000160016101000a81548173ffffffffffffffffffffffffffffffffffffffff021916908373ffffffffffffffffffffffffffffffffffffffff16021790555060408201518160010190816117dd9190613be1565b5060608201518160020190816117f39190613be1565b509050507f83c041d3aeb1dcb1f28cb15e20bdfee5ed1ca3740e487f9cab72e13eeb8595053384604051611828929190613cb3565b60405180910390a150505050565b600460009054906101000a900473ffffffffffffffffffffffffffffffffffffffff1681565b600080606080600460009054906101000a900473ffffffffffffffffffffffffffffffffffffffff1673ffffffffffffffffffffffffffffffffffffffff163373ffffffffffffffffffffffffffffffffffffffff16146118f2576040517f08c379a00000000000000000000000000000000000000000000000000000000081526004016118e990613df7565b60405180910390fd5b6000808673ffffffffffffffffffffffffffffffffffffffff1673ffffffffffffffffffffffffffffffffffffffff16815260200190815260200160002060000160009054906101000a900460ff1693506000808673ffffffffffffffffffffffffffffffffffffffff1673ffffffffffffffffffffffffffffffffffffffff16815260200190815260200160002060000160019054906101000a900473ffffffffffffffffffffffffffffffffffffffff1692506000808673ffffffffffffffffffffffffffffffffffffffff1673ffffffffffffffffffffffffffffffffffffffff16815260200190815260200160002060010180546119f39061392c565b80601f0160208091040260200160405190810160405280929190818152602001828054611a1f9061392c565b8015611a6c5780601f10611a4157610100808354040283529160200191611a6c565b820191906000526020600020905b815481529060010190602001808311611a4f57829003601f168201915b505050505091506000808673ffffffffffffffffffffffffffffffffffffffff1673ffffffffffffffffffffffffffffffffffffffff1681526020019081526020016000206002018054611abf9061392c565b80601f0160208091040260200160405190810160405280929190818152602001828054611aeb9061392c565b8015611b385780601f10611b0d57610100808354040283529160200191611b38565b820191906000526020600020905b815481529060010190602001808311611b1b57829003601f168201915b505050505090509193509193565b600115156000803373ffffffffffffffffffffffffffffffffffffffff1673ffffffffffffffffffffffffffffffffffffffff16815260200190815260200160002060000160009054906101000a900460ff16151514611bdb576040517f08c379a0000000000000000000000000000000000000000000000000000000008152600401611bd2906139a9565b60405180910390fd5b6000808473ffffffffffffffffffffffffffffffffffffffff1673ffffffffffffffffffffffffffffffffffffffff168152602001908152602001600020600101600260008573ffffffffffffffffffffffffffffffffffffffff1673ffffffffffffffffffffffffffffffffffffffff16815260200190815260200160002060008473ffffffffffffffffffffffffffffffffffffffff1673ffffffffffffffffffffffffffffffffffffffff1681526020019081526020016000206000016001019081611caa9190613e42565b506000808473ffffffffffffffffffffffffffffffffffffffff1673ffffffffffffffffffffffffffffffffffffffff16815260200190815260200160002060000160019054906101000a900473ffffffffffffffffffffffffffffffffffffffff16600260008573ffffffffffffffffffffffffffffffffffffffff1673ffffffffffffffffffffffffffffffffffffffff16815260200190815260200160002060008473ffffffffffffffffffffffffffffffffffffffff1673ffffffffffffffffffffffffffffffffffffffff16815260200190815260200160002060000160000160016101000a81548173ffffffffffffffffffffffffffffffffffffffff021916908373ffffffffffffffffffffffffffffffffffffffff16021790555080600260008573ffffffffffffffffffffffffffffffffffffffff1673ffffffffffffffffffffffffffffffffffffffff16815260200190815260200160002060008473ffffffffffffffffffffffffffffffffffffffff1673ffffffffffffffffffffffffffffffffffffffff1681526020019081526020016000206009016000019081611e5c9190613be1565b50600260008473ffffffffffffffffffffffffffffffffffffffff1673ffffffffffffffffffffffffffffffffffffffff16815260200190815260200160002060008373ffffffffffffffffffffffffffffffffffffffff1673ffffffffffffffffffffffffffffffffffffffff168152602001908152602001600020600a0181908060018154018082558091505060019003906000526020600020016000909190919091509081611f0e9190613be1565b50600160008373ffffffffffffffffffffffffffffffffffffffff1673ffffffffffffffffffffffffffffffffffffffff16815260200190815260200160002060050181908060018154018082558091505060019003906000526020600020016000909190919091509081611f839190613be1565b5061251d600260008573ffffffffffffffffffffffffffffffffffffffff1673ffffffffffffffffffffffffffffffffffffffff16815260200190815260200160002060008473ffffffffffffffffffffffffffffffffffffffff1673ffffffffffffffffffffffffffffffffffffffff16815260200190815260200160002060030160000160009054906101000a900460ff16600260008673ffffffffffffffffffffffffffffffffffffffff1673ffffffffffffffffffffffffffffffffffffffff16815260200190815260200160002060008573ffffffffffffffffffffffffffffffffffffffff1673ffffffffffffffffffffffffffffffffffffffff16815260200190815260200160002060030160000160019054906101000a900473ffffffffffffffffffffffffffffffffffffffff16600260008773ffffffffffffffffffffffffffffffffffffffff1673ffffffffffffffffffffffffffffffffffffffff16815260200190815260200160002060008673ffffffffffffffffffffffffffffffffffffffff1673ffffffffffffffffffffffffffffffffffffffff16815260200190815260200160002060030160010180546121479061392c565b80601f01602080910402602001604051908101604052809291908181526020018280546121739061392c565b80156121c05780601f10612195576101008083540402835291602001916121c0565b820191906000526020600020905b8154815290600101906020018083116121a357829003601f168201915b5050505050600260008873ffffffffffffffffffffffffffffffffffffffff1673ffffffffffffffffffffffffffffffffffffffff16815260200190815260200160002060008773ffffffffffffffffffffffffffffffffffffffff1673ffffffffffffffffffffffffffffffffffffffff16815260200190815260200160002060030160020160009054906101000a900463ffffffff16600260008973ffffffffffffffffffffffffffffffffffffffff1673ffffffffffffffffffffffffffffffffffffffff16815260200190815260200160002060008873ffffffffffffffffffffffffffffffffffffffff1673ffffffffffffffffffffffffffffffffffffffff16815260200190815260200160002060030160030180546122e59061392c565b80601f01602080910402602001604051908101604052809291908181526020018280546123119061392c565b801561235e5780601f106123335761010080835404028352916020019161235e565b820191906000526020600020905b81548152906001019060200180831161234157829003601f168201915b5050505050600260008a73ffffffffffffffffffffffffffffffffffffffff1673ffffffffffffffffffffffffffffffffffffffff16815260200190815260200160002060008973ffffffffffffffffffffffffffffffffffffffff1673ffffffffffffffffffffffffffffffffffffffff16815260200190815260200160002060030160040160009054906101000a900473ffffffffffffffffffffffffffffffffffffffff16600160008a73ffffffffffffffffffffffffffffffffffffffff1673ffffffffffffffffffffffffffffffffffffffff168152602001908152602001600020600501805480602002602001604051908101604052809291908181526020016000905b828210156125145783829060005260206000200180546124879061392c565b80601f01602080910402602001604051908101604052809291908181526020018280546124b39061392c565b80156125005780601f106124d557610100808354040283529160200191612500565b820191906000526020600020905b8154815290600101906020018083116124e357829003601f168201915b505050505081526020019060010190612468565b50505050610b31565b7ffd09d3da0077a9ed9d4af05531b2f844c840c94c1e6535e3d2a09a6ae1aa9a52838360405161254e929190613cb3565b60405180910390a1505050565b6060600060606000606080600115156000803373ffffffffffffffffffffffffffffffffffffffff1673ffffffffffffffffffffffffffffffffffffffff16815260200190815260200160002060000160009054906101000a900460ff161515146125fb576040517f08c379a00000000000000000000000000000000000000000000000000000000081526004016125f2906139a9565b60405180910390fd5b6001600360008973ffffffffffffffffffffffffffffffffffffffff1673ffffffffffffffffffffffffffffffffffffffff16815260200190815260200160002060003373ffffffffffffffffffffffffffffffffffffffff1673ffffffffffffffffffffffffffffffffffffffff16815260200190815260200160002054146126ba576040517f08c379a00000000000000000000000000000000000000000000000000000000081526004016126b190613f76565b60405180910390fd5b600260003373ffffffffffffffffffffffffffffffffffffffff1673ffffffffffffffffffffffffffffffffffffffff16815260200190815260200160002060008873ffffffffffffffffffffffffffffffffffffffff1673ffffffffffffffffffffffffffffffffffffffff16815260200190815260200160002060000160010180546127479061392c565b80601f01602080910402602001604051908101604052809291908181526020018280546127739061392c565b80156127c05780601f10612795576101008083540402835291602001916127c0565b820191906000526020600020905b8154815290600101906020018083116127a357829003601f168201915b50505050509550600260003373ffffffffffffffffffffffffffffffffffffffff1673ffffffffffffffffffffffffffffffffffffffff16815260200190815260200160002060008873ffffffffffffffffffffffffffffffffffffffff1673ffffffffffffffffffffffffffffffffffffffff16815260200190815260200160002060000160000160019054906101000a900473ffffffffffffffffffffffffffffffffffffffff169450600260003373ffffffffffffffffffffffffffffffffffffffff1673ffffffffffffffffffffffffffffffffffffffff16815260200190815260200160002060008873ffffffffffffffffffffffffffffffffffffffff1673ffffffffffffffffffffffffffffffffffffffff16815260200190815260200160002060030160010180546128f99061392c565b80601f01602080910402602001604051908101604052809291908181526020018280546129259061392c565b80156129725780601f1061294757610100808354040283529160200191612972565b820191906000526020600020905b81548152906001019060200180831161295557829003601f168201915b50505050509350600260003373ffffffffffffffffffffffffffffffffffffffff1673ffffffffffffffffffffffffffffffffffffffff16815260200190815260200160002060008873ffffffffffffffffffffffffffffffffffffffff1673ffffffffffffffffffffffffffffffffffffffff16815260200190815260200160002060030160000160019054906101000a900473ffffffffffffffffffffffffffffffffffffffff169250600260003373ffffffffffffffffffffffffffffffffffffffff1673ffffffffffffffffffffffffffffffffffffffff16815260200190815260200160002060008873ffffffffffffffffffffffffffffffffffffffff1673ffffffffffffffffffffffffffffffffffffffff1681526020019081526020016000206009016000018054612aab9061392c565b80601f0160208091040260200160405190810160405280929190818152602001828054612ad79061392c565b8015612b245780601f10612af957610100808354040283529160200191612b24565b820191906000526020600020905b815481529060010190602001808311612b0757829003601f168201915b50505050509150600260003373ffffffffffffffffffffffffffffffffffffffff1673ffffffffffffffffffffffffffffffffffffffff16815260200190815260200160002060008873ffffffffffffffffffffffffffffffffffffffff1673ffffffffffffffffffffffffffffffffffffffff168152602001908152602001600020600a01805480602002602001604051908101604052809291908181526020016000905b82821015612c76578382906000526020600020018054612be99061392c565b80601f0160208091040260200160405190810160405280929190818152602001828054612c159061392c565b8015612c625780601f10612c3757610100808354040283529160200191612c62565b820191906000526020600020905b815481529060010190602001808311612c4557829003601f168201915b505050505081526020019060010190612bca565b50505050905091939550919395565b828054828255906000526020600020908101928215612ccd579160200282015b82811115612ccc578251829081612cbc9190613be1565b5091602001919060010190612ca5565b5b509050612cda9190612cde565b5090565b5b80821115612cfe5760008181612cf59190612d02565b50600101612cdf565b5090565b508054612d0e9061392c565b6000825580601f10612d205750612d3f565b601f016020900490600052602060002090810190612d3e9190612d42565b5b50565b5b80821115612d5b576000816000905550600101612d43565b5090565b6000604051905090565b600080fd5b600080fd5b600080fd5b600080fd5b6000601f19601f8301169050919050565b7f4e487b7100000000000000000000000000000000000000000000000000000000600052604160045260246000fd5b612dc682612d7d565b810181811067ffffffffffffffff82111715612de557612de4612d8e565b5b80604052505050565b6000612df8612d5f565b9050612e048282612dbd565b919050565b600067ffffffffffffffff821115612e2457612e23612d8e565b5b612e2d82612d7d565b9050602081019050919050565b82818337600083830152505050565b6000612e5c612e5784612e09565b612dee565b905082815260208101848484011115612e7857612e77612d78565b5b612e83848285612e3a565b509392505050565b600082601f830112612ea057612e9f612d73565b5b8135612eb0848260208601612e49565b91505092915050565b600060208284031215612ecf57612ece612d69565b5b600082013567ffffffffffffffff811115612eed57612eec612d6e565b5b612ef984828501612e8b565b91505092915050565b600081519050919050565b600082825260208201905092915050565b60005b83811015612f3c578082015181840152602081019050612f21565b83811115612f4b576000848401525b50505050565b6000612f5c82612f02565b612f668185612f0d565b9350612f76818560208601612f1e565b612f7f81612d7d565b840191505092915050565b60006020820190508181036000830152612fa48184612f51565b905092915050565b600073ffffffffffffffffffffffffffffffffffffffff82169050919050565b6000612fd782612fac565b9050919050565b612fe781612fcc565b8114612ff257600080fd5b50565b60008135905061300481612fde565b92915050565b6000806040838503121561302157613020612d69565b5b600061302f85828601612ff5565b925050602061304085828601612ff5565b9150509250929050565b60008115159050919050565b61305f8161304a565b82525050565b61306e81612fcc565b82525050565b600063ffffffff82169050919050565b61308d81613074565b82525050565b600081519050919050565b600082825260208201905092915050565b6000819050602082019050919050565b600082825260208201905092915050565b60006130db82612f02565b6130e581856130bf565b93506130f5818560208601612f1e565b6130fe81612d7d565b840191505092915050565b600061311583836130d0565b905092915050565b6000602082019050919050565b600061313582613093565b61313f818561309e565b935083602082028501613151856130af565b8060005b8581101561318d578484038952815161316e8582613109565b94506131798361311d565b925060208a01995050600181019050613155565b50829750879550505050505092915050565b600060e0820190506131b4600083018a613056565b6131c16020830189613065565b81810360408301526131d38188612f51565b90506131e26060830187613084565b81810360808301526131f48186612f51565b905061320360a0830185613065565b81810360c0830152613215818461312a565b905098975050505050505050565b61322c8161304a565b811461323757600080fd5b50565b60008135905061324981613223565b92915050565b600067ffffffffffffffff82111561326a57613269612d8e565b5b61327382612d7d565b9050602081019050919050565b600061329361328e8461324f565b612dee565b9050828152602081018484840111156132af576132ae612d78565b5b6132ba848285612e3a565b509392505050565b600082601f8301126132d7576132d6612d73565b5b81356132e7848260208601613280565b91505092915050565b6132f981613074565b811461330457600080fd5b50565b600081359050613316816132f0565b92915050565b600067ffffffffffffffff82111561333757613336612d8e565b5b602082029050602081019050919050565b600080fd5b600061336061335b8461331c565b612dee565b9050808382526020820190506020840283018581111561338357613382613348565b5b835b818110156133ca57803567ffffffffffffffff8111156133a8576133a7612d73565b5b8086016133b589826132c2565b85526020850194505050602081019050613385565b5050509392505050565b600082601f8301126133e9576133e8612d73565b5b81356133f984826020860161334d565b91505092915050565b600080600080600080600060e0888a03121561342157613420612d69565b5b600061342f8a828b0161323a565b97505060206134408a828b01612ff5565b965050604088013567ffffffffffffffff81111561346157613460612d6e565b5b61346d8a828b016132c2565b955050606061347e8a828b01613307565b945050608088013567ffffffffffffffff81111561349f5761349e612d6e565b5b6134ab8a828b016132c2565b93505060a06134bc8a828b01612ff5565b92505060c088013567ffffffffffffffff8111156134dd576134dc612d6e565b5b6134e98a828b016133d4565b91505092959891949750929550565b600060c08201905081810360008301526135128189612f51565b90506135216020830188613065565b81810360408301526135338187612f51565b90506135426060830186613065565b81810360808301526135548185612f51565b905081810360a0830152613568818461312a565b9050979650505050505050565b60006020828403121561358b5761358a612d69565b5b600061359984828501612ff5565b91505092915050565b6000819050919050565b6135b5816135a2565b81146135c057600080fd5b50565b6000813590506135d2816135ac565b92915050565b6000806000606084860312156135f1576135f0612d69565b5b60006135ff86828701612ff5565b935050602061361086828701612ff5565b9250506040613621868287016135c3565b9150509250925092565b6000806000806080858703121561364557613644612d69565b5b60006136538782880161323a565b945050602061366487828801612ff5565b935050604085013567ffffffffffffffff81111561368557613684612d6e565b5b613691878288016132c2565b925050606085013567ffffffffffffffff8111156136b2576136b1612d6e565b5b6136be878288016132c2565b91505092959194509250565b60006020820190506136df6000830184613065565b92915050565b60006080820190506136fa6000830187613056565b6137076020830186613065565b81810360408301526137198185612f51565b9050818103606083015261372d8184612f51565b905095945050505050565b60008060006060848603121561375157613750612d69565b5b600061375f86828701612ff5565b935050602061377086828701612ff5565b925050604084013567ffffffffffffffff81111561379157613790612d6e565b5b61379d868287016132c2565b9150509250925092565b7f4e487b7100000000000000000000000000000000000000000000000000000000600052601160045260246000fd5b60006137e1826135a2565b91506137ec836135a2565b9250817fffffffffffffffffffffffffffffffffffffffffffffffffffffffffffffffff0483118215151615613825576138246137a7565b5b828202905092915050565b600061383b826135a2565b9150613846836135a2565b9250827fffffffffffffffffffffffffffffffffffffffffffffffffffffffffffffffff0382111561387b5761387a6137a7565b5b828201905092915050565b7f4e487b7100000000000000000000000000000000000000000000000000000000600052603260045260246000fd5b60006138c0826135a2565b91507fffffffffffffffffffffffffffffffffffffffffffffffffffffffffffffffff82036138f2576138f16137a7565b5b600182019050919050565b7f4e487b7100000000000000000000000000000000000000000000000000000000600052602260045260246000fd5b6000600282049050600182168061394457607f821691505b602082108103613957576139566138fd565b5b50919050565b7f5245474953544552454420444f43544f5253204f4e4c59000000000000000000600082015250565b6000613993601783612f0d565b915061399e8261395d565b602082019050919050565b600060208201905081810360008301526139c281613986565b9050919050565b7f5061796d656e7420496e636f6d706c6574650000000000000000000000000000600082015250565b60006139ff601283612f0d565b9150613a0a826139c9565b602082019050919050565b60006020820190508181036000830152613a2e816139f2565b9050919050565b60008190508160005260206000209050919050565b60006020601f8301049050919050565b600082821b905092915050565b600060088302613a977fffffffffffffffffffffffffffffffffffffffffffffffffffffffffffffffff82613a5a565b613aa18683613a5a565b95508019841693508086168417925050509392505050565b6000819050919050565b6000613ade613ad9613ad4846135a2565b613ab9565b6135a2565b9050919050565b6000819050919050565b613af883613ac3565b613b0c613b0482613ae5565b848454613a67565b825550505050565b600090565b613b21613b14565b613b2c818484613aef565b505050565b5b81811015613b5057613b45600082613b19565b600181019050613b32565b5050565b601f821115613b9557613b6681613a35565b613b6f84613a4a565b81016020851015613b7e578190505b613b92613b8a85613a4a565b830182613b31565b50505b505050565b600082821c905092915050565b6000613bb860001984600802613b9a565b1980831691505092915050565b6000613bd18383613ba7565b9150826002028217905092915050565b613bea82612f02565b67ffffffffffffffff811115613c0357613c02612d8e565b5b613c0d825461392c565b613c18828285613b54565b600060209050601f831160018114613c4b5760008415613c39578287015190505b613c438582613bc5565b865550613cab565b601f198416613c5986613a35565b60005b82811015613c8157848901518255600182019150602085019450602081019050613c5c565b86831015613c9e5784890151613c9a601f891682613ba7565b8355505b6001600288020188555050505b505050505050565b6000604082019050613cc86000830185613065565b613cd56020830184613065565b9392505050565b7f524547495354455245442050415449454e5453204f4e4c590000000000000000600082015250565b6000613d12601883612f0d565b9150613d1d82613cdc565b602082019050919050565b60006020820190508181036000830152613d4181613d05565b9050919050565b60008160601b9050919050565b6000613d6082613d48565b9050919050565b6000613d7282613d55565b9050919050565b613d8a613d8582612fcc565b613d67565b82525050565b6000613d9c8284613d79565b60148201915081905092915050565b7f4f4e4c592041444d494e20495320414c4c4f5745440000000000000000000000600082015250565b6000613de1601583612f0d565b9150613dec82613dab565b602082019050919050565b60006020820190508181036000830152613e1081613dd4565b9050919050565b600081549050613e268161392c565b9050919050565b60008190508160005260206000209050919050565b818103613e50575050613f28565b613e5982613e17565b67ffffffffffffffff811115613e7257613e71612d8e565b5b613e7c825461392c565b613e87828285613b54565b6000601f831160018114613eb65760008415613ea4578287015490505b613eae8582613bc5565b865550613f21565b601f198416613ec487613e2d565b9650613ecf86613a35565b60005b82811015613ef757848901548255600182019150600185019450602081019050613ed2565b86831015613f145784890154613f10601f891682613ba7565b8355505b6001600288020188555050505b5050505050505b565b7f445220414343455353204e4f54204752414e5445440000000000000000000000600082015250565b6000613f60601583612f0d565b9150613f6b82613f2a565b602082019050919050565b60006020820190508181036000830152613f8f81613f53565b905091905056fea2646970667358221220f3ce8f8f16e493d7a5897f6af0f7e10de76ae65faa581af754afa87e907a187d64736f6c634300080f0033",
  "immutableReferences": {},
  "source": "// SPDX-License-Identifier: GPL-3.0\r\npragma solidity >=0.7.0 <0.9.0;\r\npragma experimental ABIEncoderV2;\r\n\r\ncontract MedicalChain {\r\n    mapping(address => Doctor) DoctorInfo;\r\n    mapping(address => Patient) PatientInfo;\r\n    mapping(address => mapping(address => HealthRecords)) HealthInfo;\r\n    mapping(address => mapping(address => uint256)) private patientToDoctor;\r\n\r\n    event DrDetailsAdded(address admin, address doctor);\r\n    event PatDetailsAdded(address doctor, address patient);\r\n    event HealthRecordsAdded(address dr, address patient);\r\n    event GrantAccessToDr(address dr, address patient);\r\n\r\n    modifier OnlyOwner() {\r\n        require(msg.sender == owner, \"ONLY ADMIN IS ALLOWED\");\r\n        _;\r\n    }\r\n\r\n    modifier Only_Doctors() {\r\n        require(\r\n            DoctorInfo[msg.sender].state == true,\r\n            \"REGISTERED DOCTORS ONLY\"\r\n        );\r\n        _;\r\n    }\r\n\r\n    modifier Only_Patients(address sender) {\r\n        require(PatientInfo[sender].state == true, \"REGISTERED PATIENTS ONLY\");\r\n        _;\r\n    }\r\n\r\n    address public owner;\r\n    uint256 amt = 1e15;\r\n\r\n    constructor() {\r\n        owner = msg.sender;\r\n    }\r\n\r\n    struct Doctor {\r\n        bool state; // To check whether the doctor is registered or not\r\n        address dr_Id; // Address of doctor\r\n        string d_Name; // Name of doctor\r\n        string d_speciality;\r\n    }\r\n\r\n    struct Patient {\r\n        bool state; // To check whether patient is genuine\r\n        address pa_Id; // Address of registered patient\r\n        string pa_Name; // Name of Patient\r\n        uint32 pa_Age; // Age of Patient\r\n        string pa_BloodGroup; // Blood group of the patient\r\n        address hospital; // Hospital maintaining health records of the patient\r\n        string[] pa_Records; // Used to store the prescription records of corresponding patients\r\n    }\r\n\r\n    struct PrescriptionDetails {\r\n        string prescription; // prescription details of patient given by doctor\r\n    }\r\n\r\n    struct HealthRecords {\r\n        Doctor d;\r\n        Patient p;\r\n        PrescriptionDetails pre;\r\n        string[] records; // Used to store prescription records of patient w.r.t doctor\r\n    }\r\n\r\n    // Function to add Doctor details, done by admin only\r\n    function setDoctorDetails(\r\n        bool _state,\r\n        address _drId,\r\n        string memory _name,\r\n        string memory _speciality\r\n    ) external payable OnlyOwner {\r\n        require(msg.value >= amt, \"Payment Incomplete\");\r\n        DoctorInfo[_drId] = Doctor(_state, _drId, _name, _speciality);\r\n        emit DrDetailsAdded(msg.sender, _drId);\r\n    }\r\n\r\n    // Function to get Doctor details for admin\r\n    function getDoctorDetails(address _Id)\r\n        public\r\n        view\r\n        OnlyOwner\r\n        returns (\r\n            bool _state,\r\n            address _drId,\r\n            string memory _name,\r\n            string memory _speciality\r\n        )\r\n    {\r\n        _state = DoctorInfo[_Id].state;\r\n        _drId = DoctorInfo[_Id].dr_Id;\r\n        _name = DoctorInfo[_Id].d_Name;\r\n        _speciality = DoctorInfo[_Id].d_speciality;\r\n    }\r\n\r\n    // Function to add HealthRecords of patients, done by registered doctors only\r\n    function setHealthRecordsDetails(\r\n        address sender,\r\n        address _paId,\r\n        string memory _prescription\r\n    ) public Only_Doctors {\r\n        HealthInfo[sender][_paId].d.d_Name = DoctorInfo[sender].d_Name;\r\n        HealthInfo[sender][_paId].d.dr_Id = DoctorInfo[sender].dr_Id;\r\n        // HealthInfo[sender][_paId].p.state = true;\r\n        // HealthInfo[sender][_paId].p.pa_Id = _paId;\r\n        HealthInfo[sender][_paId].pre.prescription = _prescription;\r\n        HealthInfo[sender][_paId].records.push(_prescription);\r\n        PatientInfo[_paId].pa_Records.push(_prescription);\r\n        setPatientDetails(\r\n            HealthInfo[sender][_paId].p.state,\r\n            HealthInfo[sender][_paId].p.pa_Id,\r\n            HealthInfo[sender][_paId].p.pa_Name,\r\n            HealthInfo[sender][_paId].p.pa_Age,\r\n            HealthInfo[sender][_paId].p.pa_BloodGroup,\r\n            HealthInfo[sender][_paId].p.hospital,\r\n            PatientInfo[_paId].pa_Records\r\n        );\r\n        emit HealthRecordsAdded(sender, _paId);\r\n    }\r\n\r\n    // Function to add Patient details, done by registered doctors only\r\n    function setPatientDetails(\r\n        bool _state,\r\n        address _paId,\r\n        string memory _paName,\r\n        uint32 _paAge,\r\n        string memory _paBloodGroup,\r\n        address _hospital,\r\n        string[] memory _paRecords\r\n    ) public payable Only_Doctors {\r\n        require(msg.value >= amt, \"Payment Incomplete\");\r\n        PatientInfo[_paId] = Patient(\r\n            _state,\r\n            _paId,\r\n            _paName,\r\n            _paAge,\r\n            _paBloodGroup,\r\n            _hospital,\r\n            _paRecords\r\n        );\r\n        emit PatDetailsAdded(msg.sender, _paId);\r\n    }\r\n\r\n    function toString(address account) public pure returns (string memory) {\r\n        return toString1(abi.encodePacked(account));\r\n    }\r\n\r\n    function toString1(bytes memory data) public pure returns (string memory) {\r\n        bytes memory alphabet = \"0123456789abcdef\";\r\n\r\n        bytes memory str = new bytes(2 + data.length * 2);\r\n        str[0] = \"0\";\r\n        str[1] = \"x\";\r\n        for (uint256 i = 0; i < data.length; i++) {\r\n            str[2 + i * 2] = alphabet[uint256(uint8(data[i] >> 4))];\r\n            str[3 + i * 2] = alphabet[uint256(uint8(data[i] & 0x0f))];\r\n        }\r\n        return string(str);\r\n    }\r\n\r\n    // Function to get Patient details\r\n    function getPatientDetails(address sender, address _Id)\r\n        public\r\n        view\r\n        returns (\r\n            bool _state,\r\n            address _paId,\r\n            string memory _paName,\r\n            uint32 _paAge,\r\n            string memory _paBloodGroup,\r\n            address _hospital,\r\n            string[] memory _paRecords\r\n        )\r\n    {\r\n        require(\r\n            PatientInfo[sender].state == true ||\r\n                patientToDoctor[_Id][sender] == 1,\r\n            toString(sender)\r\n        );\r\n        _state = PatientInfo[_Id].state;\r\n        _paId = PatientInfo[_Id].pa_Id;\r\n        _paName = PatientInfo[_Id].pa_Name;\r\n        _paAge = PatientInfo[_Id].pa_Age;\r\n        _paBloodGroup = PatientInfo[_Id].pa_BloodGroup;\r\n        _hospital = PatientInfo[_Id].hospital;\r\n        _paRecords = PatientInfo[_Id].pa_Records;\r\n    }\r\n\r\n    // Function to get HealthRecords only for registered patients\r\n    function getHealthRecords(address sender, address _dr)\r\n        public\r\n        view\r\n        Only_Patients(sender)\r\n        returns (\r\n            string memory _drName,\r\n            address _drId,\r\n            string memory _paName,\r\n            address _paId,\r\n            string memory _prescription,\r\n            string[] memory _rec\r\n        )\r\n    {\r\n        _drName = HealthInfo[_dr][sender].d.d_Name;\r\n        _drId = HealthInfo[_dr][sender].d.dr_Id;\r\n        _paName = HealthInfo[_dr][sender].p.pa_Name;\r\n        _paId = HealthInfo[_dr][sender].p.pa_Id;\r\n        _prescription = HealthInfo[_dr][sender].pre.prescription;\r\n        _rec = HealthInfo[_dr][sender].records;\r\n    }\r\n\r\n    // Function to grant access to doctor ,so that the doctors with access can view the corresponding patients HealthRecords\r\n    function grantAccessToDoctor(\r\n        address sender,\r\n        address doctor_id,\r\n        uint256 access\r\n    ) public {\r\n        require(PatientInfo[sender].state == true, toString(sender));\r\n        patientToDoctor[sender][doctor_id] = access;\r\n        emit GrantAccessToDr(doctor_id, sender);\r\n    }\r\n\r\n    // Function to get HealthRecords only for registered Doctors\r\n    function getHealthRecordsForDoctor(address _paId)\r\n        public\r\n        view\r\n        Only_Doctors\r\n        returns (\r\n            string memory _drName,\r\n            address _drId,\r\n            string memory _paName,\r\n            address _pId,\r\n            string memory _prescription,\r\n            string[] memory _rec\r\n        )\r\n    {\r\n        require(\r\n            patientToDoctor[_paId][msg.sender] == 1,\r\n            \"DR ACCESS NOT GRANTED\"\r\n        );\r\n        _drName = HealthInfo[msg.sender][_paId].d.d_Name;\r\n        _drId = HealthInfo[msg.sender][_paId].d.dr_Id;\r\n        _paName = HealthInfo[msg.sender][_paId].p.pa_Name;\r\n        _pId = HealthInfo[msg.sender][_paId].p.pa_Id;\r\n        _prescription = HealthInfo[msg.sender][_paId].pre.prescription;\r\n        _rec = HealthInfo[msg.sender][_paId].records;\r\n    }\r\n}\r\n",
  "sourcePath": "D:\\BTP\\Demo\\Demo3\\contracts\\MedicalChain.sol",
  "compiler": {
    "name": "solc",
    "version": "0.8.15+commit.e14f2714.Emscripten.clang"
  },
  "schemaVersion": "3.4.8",
  "updatedAt": "2022-09-06T12:07:10.346Z",
  "networkType": "ethereum",
  "devdoc": {
    "kind": "dev",
    "methods": {},
    "version": 1
  },
  "userdoc": {
    "kind": "user",
    "methods": {},
    "version": 1
  }
}